{
  "_format": "hh-sol-artifact-1",
  "contractName": "VoteFactory",
  "sourceName": "contracts/vote/VoteFactory.sol",
  "abi": [
    {
      "inputs": [
        {
          "internalType": "address",
          "name": "_voteExchangeAddress",
          "type": "address"
        },
        {
          "internalType": "address",
          "name": "_coordinator",
          "type": "address"
        },
        {
          "internalType": "address",
          "name": "_link",
          "type": "address"
        },
        {
          "internalType": "uint256",
          "name": "_fee",
          "type": "uint256"
        },
        {
          "internalType": "bytes32",
          "name": "_keyhash",
          "type": "bytes32"
        },
        {
          "internalType": "address",
          "name": "_nftAddress",
          "type": "address"
        }
      ],
      "stateMutability": "nonpayable",
      "type": "constructor"
    },
    {
      "inputs": [],
      "name": "createVoteSession",
      "outputs": [],
      "stateMutability": "nonpayable",
      "type": "function"
    },
    {
      "inputs": [],
      "name": "fee",
      "outputs": [
        {
          "internalType": "uint256",
          "name": "",
          "type": "uint256"
        }
      ],
      "stateMutability": "view",
      "type": "function"
    },
    {
      "inputs": [],
      "name": "getLatestSession",
      "outputs": [
        {
          "internalType": "address",
          "name": "",
          "type": "address"
        }
      ],
      "stateMutability": "view",
      "type": "function"
    },
    {
      "inputs": [],
      "name": "keyhash",
      "outputs": [
        {
          "internalType": "bytes32",
          "name": "",
          "type": "bytes32"
        }
      ],
      "stateMutability": "view",
      "type": "function"
    },
    {
      "inputs": [],
      "name": "nftContract",
      "outputs": [
        {
          "internalType": "contract RiceNFT",
          "name": "",
          "type": "address"
        }
      ],
      "stateMutability": "view",
      "type": "function"
    },
    {
      "inputs": [],
      "name": "owner",
      "outputs": [
        {
          "internalType": "address",
          "name": "",
          "type": "address"
        }
      ],
      "stateMutability": "view",
      "type": "function"
    },
    {
      "inputs": [],
      "name": "voteExchange",
      "outputs": [
        {
          "internalType": "contract VoteExchange",
          "name": "",
          "type": "address"
        }
      ],
      "stateMutability": "view",
      "type": "function"
    },
    {
      "inputs": [],
      "name": "voteId",
      "outputs": [
        {
          "internalType": "uint256",
          "name": "",
          "type": "uint256"
        }
      ],
      "stateMutability": "view",
      "type": "function"
    },
    {
      "inputs": [
        {
          "internalType": "uint256",
          "name": "",
          "type": "uint256"
        }
      ],
      "name": "voteSessions",
      "outputs": [
        {
          "internalType": "contract VoteSession",
          "name": "",
          "type": "address"
        }
      ],
      "stateMutability": "view",
      "type": "function"
    }
  ],
  "bytecode": "0x60806040523480156200001157600080fd5b50604051620037cc380380620037cc8339818101604052810190620000379190620001e3565b33600260006101000a81548173ffffffffffffffffffffffffffffffffffffffff021916908373ffffffffffffffffffffffffffffffffffffffff160217905550600060018190555085600360006101000a81548173ffffffffffffffffffffffffffffffffffffffff021916908373ffffffffffffffffffffffffffffffffffffffff16021790555084600460006101000a81548173ffffffffffffffffffffffffffffffffffffffff021916908373ffffffffffffffffffffffffffffffffffffffff16021790555083600560006101000a81548173ffffffffffffffffffffffffffffffffffffffff021916908373ffffffffffffffffffffffffffffffffffffffff160217905550826006819055508160078190555080600860006101000a81548173ffffffffffffffffffffffffffffffffffffffff021916908373ffffffffffffffffffffffffffffffffffffffff1602179055505050505050506200030f565b600081519050620001af81620002c1565b92915050565b600081519050620001c681620002db565b92915050565b600081519050620001dd81620002f5565b92915050565b60008060008060008060c08789031215620001fd57600080fd5b60006200020d89828a016200019e565b96505060206200022089828a016200019e565b95505060406200023389828a016200019e565b94505060606200024689828a01620001cc565b93505060806200025989828a01620001b5565b92505060a06200026c89828a016200019e565b9150509295509295509295565b6000620002868262000297565b9050919050565b6000819050919050565b600073ffffffffffffffffffffffffffffffffffffffff82169050919050565b6000819050919050565b620002cc8162000279565b8114620002d857600080fd5b50565b620002e6816200028d565b8114620002f257600080fd5b50565b6200030081620002b7565b81146200030c57600080fd5b50565b6134ad806200031f6000396000f3fe60806040523480156200001157600080fd5b5060043610620000a05760003560e01c80639e6f7d05116200006f5780639e6f7d05146200012b578063d56d229d146200014d578063ddca3f43146200016f578063ec79f04c1462000191578063fbb3965114620001b357620000a0565b806306caebb614620000a5578063126a869714620000db57806369ebe78e14620000e75780638da5cb5b1462000109575b600080fd5b620000c36004803603810190620000bd91906200067d565b620001d5565b604051620000d29190620007d1565b60405180910390f35b620000e562000208565b005b620000f162000555565b6040516200010091906200077a565b60405180910390f35b620001136200055b565b6040516200012291906200075d565b60405180910390f35b6200013562000581565b6040516200014491906200075d565b60405180910390f35b62000157620005bd565b60405162000166919062000797565b60405180910390f35b62000179620005e3565b60405162000188919062000832565b60405180910390f35b6200019b620005e9565b604051620001aa9190620007b4565b60405180910390f35b620001bd6200060f565b604051620001cc919062000832565b60405180910390f35b60006020528060005260406000206000915054906101000a900473ffffffffffffffffffffffffffffffffffffffff1681565b600260009054906101000a900473ffffffffffffffffffffffffffffffffffffffff1673ffffffffffffffffffffffffffffffffffffffff163273ffffffffffffffffffffffffffffffffffffffff16146200029b576040517f08c379a0000000000000000000000000000000000000000000000000000000008152600401620002929062000810565b60405180910390fd5b6000600154146200041357600180811115620002e0577f4e487b7100000000000000000000000000000000000000000000000000000000600052602160045260246000fd5b600080600154815260200190815260200160002060009054906101000a900473ffffffffffffffffffffffffffffffffffffffff1673ffffffffffffffffffffffffffffffffffffffff1663200d2ed26040518163ffffffff1660e01b815260040160206040518083038186803b1580156200035b57600080fd5b505afa15801562000370573d6000803e3d6000fd5b505050506040513d601f19601f8201168201806040525081019062000396919062000651565b6001811115620003cf577f4e487b7100000000000000000000000000000000000000000000000000000000600052602160045260246000fd5b1462000412576040517f08c379a00000000000000000000000000000000000000000000000000000000081526004016200040990620007ee565b60405180910390fd5b5b6001806000828254620004279190620008dd565b92505081905550600154600360009054906101000a900473ffffffffffffffffffffffffffffffffffffffff16600460009054906101000a900473ffffffffffffffffffffffffffffffffffffffff16600560009054906101000a900473ffffffffffffffffffffffffffffffffffffffff16600754600654600860009054906101000a900473ffffffffffffffffffffffffffffffffffffffff16604051620004d19062000615565b620004e397969594939291906200084f565b604051809103906000f08015801562000500573d6000803e3d6000fd5b50600080600154815260200190815260200160002060006101000a81548173ffffffffffffffffffffffffffffffffffffffff021916908373ffffffffffffffffffffffffffffffffffffffff160217905550565b60075481565b600260009054906101000a900473ffffffffffffffffffffffffffffffffffffffff1681565b6000806000600154815260200190815260200160002060009054906101000a900473ffffffffffffffffffffffffffffffffffffffff16905090565b600860009054906101000a900473ffffffffffffffffffffffffffffffffffffffff1681565b60065481565b600360009054906101000a900473ffffffffffffffffffffffffffffffffffffffff1681565b60015481565b6129d18062000aa783390190565b600081519050620006348162000a7b565b92915050565b6000813590506200064b8162000a8c565b92915050565b6000602082840312156200066457600080fd5b6000620006748482850162000623565b91505092915050565b6000602082840312156200069057600080fd5b6000620006a0848285016200063a565b91505092915050565b620006b4816200093a565b82525050565b620006c5816200094e565b82525050565b620006d68162000982565b82525050565b620006e781620009aa565b82525050565b620006f881620009d2565b82525050565b60006200070d602083620008cc565b91506200071a8262000a29565b602082019050919050565b600062000734600983620008cc565b9150620007418262000a52565b602082019050919050565b620007578162000978565b82525050565b6000602082019050620007746000830184620006a9565b92915050565b6000602082019050620007916000830184620006ba565b92915050565b6000602082019050620007ae6000830184620006cb565b92915050565b6000602082019050620007cb6000830184620006dc565b92915050565b6000602082019050620007e86000830184620006ed565b92915050565b600060208201905081810360008301526200080981620006fe565b9050919050565b600060208201905081810360008301526200082b8162000725565b9050919050565b60006020820190506200084960008301846200074c565b92915050565b600060e08201905062000866600083018a6200074c565b620008756020830189620006a9565b620008846040830188620006a9565b620008936060830187620006a9565b620008a26080830186620006ba565b620008b160a08301856200074c565b620008c060c0830184620006a9565b98975050505050505050565b600082825260208201905092915050565b6000620008ea8262000978565b9150620008f78362000978565b9250827fffffffffffffffffffffffffffffffffffffffffffffffffffffffffffffffff038211156200092f576200092e620009fa565b5b828201905092915050565b6000620009478262000958565b9050919050565b6000819050919050565b600073ffffffffffffffffffffffffffffffffffffffff82169050919050565b6000819050919050565b60006200098f8262000996565b9050919050565b6000620009a38262000958565b9050919050565b6000620009b782620009be565b9050919050565b6000620009cb8262000958565b9050919050565b6000620009df82620009e6565b9050919050565b6000620009f38262000958565b9050919050565b7f4e487b7100000000000000000000000000000000000000000000000000000000600052601160045260246000fd5b7f4c617465737420766f74652073657373696f6e206973206e6f7420656e646564600082015250565b7f4e6f74206f776e65720000000000000000000000000000000000000000000000600082015250565b6002811062000a8957600080fd5b50565b62000a978162000978565b811462000aa357600080fd5b5056fe60c06040523480156200001157600080fd5b50604051620029d1380380620029d18339818101604052810190620000379190620002f8565b84848173ffffffffffffffffffffffffffffffffffffffff1660a08173ffffffffffffffffffffffffffffffffffffffff1660601b815250508073ffffffffffffffffffffffffffffffffffffffff1660808173ffffffffffffffffffffffffffffffffffffffff1660601b815250505050826009819055508160088190555032600660006101000a81548173ffffffffffffffffffffffffffffffffffffffff021916908373ffffffffffffffffffffffffffffffffffffffff160217905550866001819055506000600d60146101000a81548160ff021916908360018111156200014c577f4e487b7100000000000000000000000000000000000000000000000000000000600052602160045260246000fd5b021790555085600560006101000a81548173ffffffffffffffffffffffffffffffffffffffff021916908373ffffffffffffffffffffffffffffffffffffffff160217905550600560009054906101000a900473ffffffffffffffffffffffffffffffffffffffff1673ffffffffffffffffffffffffffffffffffffffff16630494963d6040518163ffffffff1660e01b8152600401600060405180830381600087803b158015620001fd57600080fd5b505af115801562000212573d6000803e3d6000fd5b50505050816008819055508260098190555083600a60006101000a81548173ffffffffffffffffffffffffffffffffffffffff021916908373ffffffffffffffffffffffffffffffffffffffff16021790555080600d60006101000a81548173ffffffffffffffffffffffffffffffffffffffff021916908373ffffffffffffffffffffffffffffffffffffffff160217905550505050505050506200043b565b600081519050620002c481620003ed565b92915050565b600081519050620002db8162000407565b92915050565b600081519050620002f28162000421565b92915050565b600080600080600080600060e0888a0312156200031457600080fd5b6000620003248a828b01620002e1565b9750506020620003378a828b01620002b3565b96505060406200034a8a828b01620002b3565b95505060606200035d8a828b01620002b3565b9450506080620003708a828b01620002ca565b93505060a0620003838a828b01620002e1565b92505060c0620003968a828b01620002b3565b91505092959891949750929550565b6000620003b282620003c3565b9050919050565b6000819050919050565b600073ffffffffffffffffffffffffffffffffffffffff82169050919050565b6000819050919050565b620003f881620003a5565b81146200040457600080fd5b50565b6200041281620003b9565b81146200041e57600080fd5b50565b6200042c81620003e3565b81146200043857600080fd5b50565b60805160601c60a05160601c6125636200046e600039600081816109890152611412015260006113d601526125636000f3fe608060405234801561001057600080fd5b50600436106101165760003560e01c8063965844a6116100a2578063dfbf53ae11610071578063dfbf53ae146102d3578063e9fc4856146102f1578063ec79f04c14610321578063f54769d01461033f578063fbb396511461036f57610116565b8063965844a614610249578063b922394614610279578063d56d229d14610297578063ddca3f43146102b557610116565b806341a494c5116100e957806341a494c5146101b557806369ebe78e146101d357806384e6c0a7146101f15780638da5cb5b1461020f57806394985ddd1461022d57610116565b8063200d2ed21461011b5780632410847514610139578063300062811461015557806337509f4c14610185575b600080fd5b61012361038d565b6040516101309190611d6b565b60405180910390f35b610153600480360381019061014e9190611835565b6103a0565b005b61016f600480360381019061016a91906117e3565b610771565b60405161017c9190611d86565b60405180910390f35b61019f600480360381019061019a91906117e3565b61081d565b6040516101ac9190611bd1565b60405180910390f35b6101bd61085c565b6040516101ca9190611bd1565b60405180910390f35b6101db610882565b6040516101e89190611cac565b60405180910390f35b6101f9610888565b6040516102069190611c8a565b60405180910390f35b610217610961565b6040516102249190611bd1565b60405180910390f35b61024760048036038101906102429190611766565b610987565b005b610263600480360381019061025e9190611714565b610a23565b6040516102709190611ea8565b60405180910390f35b610281610a3b565b60405161028e9190611bd1565b60405180910390f35b61029f610eb9565b6040516102ac9190611d35565b60405180910390f35b6102bd610edf565b6040516102ca9190611ea8565b60405180910390f35b6102db610ee5565b6040516102e89190611d86565b60405180910390f35b61030b60048036038101906103069190611714565b610f73565b6040516103189190611ea8565b60405180910390f35b610329611084565b6040516103369190611d50565b60405180910390f35b610359600480360381019061035491906117a2565b6110aa565b6040516103669190611ea8565b60405180910390f35b6103776110d8565b6040516103849190611ea8565b60405180910390f35b600d60149054906101000a900460ff1681565b600060018111156103da577f4e487b7100000000000000000000000000000000000000000000000000000000600052602160045260246000fd5b600d60149054906101000a900460ff166001811115610422577f4e487b7100000000000000000000000000000000000000000000000000000000600052602160045260246000fd5b14610462576040517f08c379a000000000000000000000000000000000000000000000000000000000815260040161045990611dc8565b60405180910390fd5b600082118015610473575060648211155b6104b2576040517f08c379a00000000000000000000000000000000000000000000000000000000081526004016104a990611da8565b60405180910390fd5b600260003373ffffffffffffffffffffffffffffffffffffffff1673ffffffffffffffffffffffffffffffffffffffff16815260200190815260200160002054826104fd9190611fa6565b670de0b6b3a7640000600560009054906101000a900473ffffffffffffffffffffffffffffffffffffffff1673ffffffffffffffffffffffffffffffffffffffff166395f226e4336040518263ffffffff1660e01b81526004016105619190611bd1565b60206040518083038186803b15801561057957600080fd5b505afa15801561058d573d6000803e3d6000fd5b505050506040513d601f19601f820116820180604052508101906105b1919061180c565b6105bb9190611ffc565b10156105fc576040517f08c379a00000000000000000000000000000000000000000000000000000000081526004016105f390611e28565b60405180910390fd5b600060038260405161060e9190611bba565b90815260200160405180910390205414156106605760048190806001815401808255809150506001900390600052602060002001600090919091909150908051906020019061065e9291906115a0565b505b816003826040516106719190611bba565b9081526020016040518091039020600082825461068e9190611fa6565b9250508190555081600260003373ffffffffffffffffffffffffffffffffffffffff1673ffffffffffffffffffffffffffffffffffffffff16815260200190815260200160002060008282546106e49190611fa6565b9250508190555060005b8281101561076c576007339080600181540180825580915050600190039060005260206000200160009091909190916101000a81548173ffffffffffffffffffffffffffffffffffffffff021916908373ffffffffffffffffffffffffffffffffffffffff1602179055508080610764906121c5565b9150506106ee565b505050565b6004818154811061078157600080fd5b90600052602060002001600091509050805461079c90612162565b80601f01602080910402602001604051908101604052809291908181526020018280546107c890612162565b80156108155780601f106107ea57610100808354040283529160200191610815565b820191906000526020600020905b8154815290600101906020018083116107f857829003601f168201915b505050505081565b6007818154811061082d57600080fd5b906000526020600020016000915054906101000a900473ffffffffffffffffffffffffffffffffffffffff1681565b600c60009054906101000a900473ffffffffffffffffffffffffffffffffffffffff1681565b60095481565b60606004805480602002602001604051908101604052809291908181526020016000905b828210156109585783829060005260206000200180546108cb90612162565b80601f01602080910402602001604051908101604052809291908181526020018280546108f790612162565b80156109445780601f1061091957610100808354040283529160200191610944565b820191906000526020600020905b81548152906001019060200180831161092757829003601f168201915b5050505050815260200190600101906108ac565b50505050905090565b600660009054906101000a900473ffffffffffffffffffffffffffffffffffffffff1681565b7f000000000000000000000000000000000000000000000000000000000000000073ffffffffffffffffffffffffffffffffffffffff163373ffffffffffffffffffffffffffffffffffffffff1614610a15576040517f08c379a0000000000000000000000000000000000000000000000000000000008152600401610a0c90611e48565b60405180910390fd5b610a1f82826110de565b5050565b60026020528060005260406000206000915090505481565b6000600660009054906101000a900473ffffffffffffffffffffffffffffffffffffffff1673ffffffffffffffffffffffffffffffffffffffff163273ffffffffffffffffffffffffffffffffffffffff1614610acd576040517f08c379a0000000000000000000000000000000000000000000000000000000008152600401610ac490611e68565b60405180910390fd5b6001600d60146101000a81548160ff02191690836001811115610b19577f4e487b7100000000000000000000000000000000000000000000000000000000600052602160045260246000fd5b0217905550600854600a60009054906101000a900473ffffffffffffffffffffffffffffffffffffffff1673ffffffffffffffffffffffffffffffffffffffff1663dd62ed3e32306040518363ffffffff1660e01b8152600401610b7e929190611bec565b60206040518083038186803b158015610b9657600080fd5b505afa158015610baa573d6000803e3d6000fd5b505050506040513d601f19601f82011682018060405250810190610bce919061180c565b1015610c0f576040517f08c379a0000000000000000000000000000000000000000000000000000000008152600401610c0690611de8565b60405180910390fd5b600a60009054906101000a900473ffffffffffffffffffffffffffffffffffffffff1673ffffffffffffffffffffffffffffffffffffffff166323b872dd32306008546040518463ffffffff1660e01b8152600401610c7093929190611c15565b602060405180830381600087803b158015610c8a57600080fd5b505af1158015610c9e573d6000803e3d6000fd5b505050506040513d601f19601f82011682018060405250810190610cc2919061173d565b506000610cd36009546008546113d2565b9050600560009054906101000a900473ffffffffffffffffffffffffffffffffffffffff1673ffffffffffffffffffffffffffffffffffffffff1663ddd1b0c86040518163ffffffff1660e01b8152600401600060405180830381600087803b158015610d3f57600080fd5b505af1158015610d53573d6000803e3d6000fd5b505050506000606060005b600480549050811015610e9b57600060048281548110610da7577f4e487b7100000000000000000000000000000000000000000000000000000000600052603260045260246000fd5b906000526020600020018054610dbc90612162565b80601f0160208091040260200160405190810160405280929190818152602001828054610de890612162565b8015610e355780601f10610e0a57610100808354040283529160200191610e35565b820191906000526020600020905b815481529060010190602001808311610e1857829003601f168201915b50505050509050600381604051610e4c9190611bba565b908152602001604051809103902054841015610e8757600381604051610e729190611bba565b90815260200160405180910390205493508092505b508080610e93906121c5565b915050610d5e565b5080600b9080519060200190610eb29291906115a0565b5050505090565b600d60009054906101000a900473ffffffffffffffffffffffffffffffffffffffff1681565b60085481565b600b8054610ef290612162565b80601f0160208091040260200160405190810160405280929190818152602001828054610f1e90612162565b8015610f6b5780601f10610f4057610100808354040283529160200191610f6b565b820191906000526020600020905b815481529060010190602001808311610f4e57829003601f168201915b505050505081565b6000600260008373ffffffffffffffffffffffffffffffffffffffff1673ffffffffffffffffffffffffffffffffffffffff16815260200190815260200160002054670de0b6b3a7640000600560009054906101000a900473ffffffffffffffffffffffffffffffffffffffff1673ffffffffffffffffffffffffffffffffffffffff166395f226e4856040518263ffffffff1660e01b81526004016110199190611bd1565b60206040518083038186803b15801561103157600080fd5b505afa158015611045573d6000803e3d6000fd5b505050506040513d601f19601f82011682018060405250810190611069919061180c565b6110739190611ffc565b61107d919061202d565b9050919050565b600560009054906101000a900473ffffffffffffffffffffffffffffffffffffffff1681565b6003818051602081018201805184825260208301602085012081835280955050505050506000915090505481565b60015481565b600180811115611117577f4e487b7100000000000000000000000000000000000000000000000000000000600052602160045260246000fd5b600d60149054906101000a900460ff16600181111561115f577f4e487b7100000000000000000000000000000000000000000000000000000000600052602160045260246000fd5b1461119f576040517f08c379a000000000000000000000000000000000000000000000000000000000815260040161119690611e88565b60405180910390fd5b600081116111e2576040517f08c379a00000000000000000000000000000000000000000000000000000000081526004016111d990611e08565b60405180910390fd5b6000600780549050826111f59190612222565b905060078181548110611231577f4e487b7100000000000000000000000000000000000000000000000000000000600052603260045260246000fd5b9060005260206000200160009054906101000a900473ffffffffffffffffffffffffffffffffffffffff16600c60006101000a81548173ffffffffffffffffffffffffffffffffffffffff021916908373ffffffffffffffffffffffffffffffffffffffff160217905550600d60009054906101000a900473ffffffffffffffffffffffffffffffffffffffff1673ffffffffffffffffffffffffffffffffffffffff1663a6b332ba600c60009054906101000a900473ffffffffffffffffffffffffffffffffffffffff166040518263ffffffff1660e01b81526004016113199190611bd1565b600060405180830381600087803b15801561133357600080fd5b505af1158015611347573d6000803e3d6000fd5b50505050600d60009054906101000a900473ffffffffffffffffffffffffffffffffffffffff1673ffffffffffffffffffffffffffffffffffffffff1663a7e0c5786040518163ffffffff1660e01b8152600401600060405180830381600087803b1580156113b557600080fd5b505af11580156113c9573d6000803e3d6000fd5b50505050505050565b60007f000000000000000000000000000000000000000000000000000000000000000073ffffffffffffffffffffffffffffffffffffffff16634000aea07f000000000000000000000000000000000000000000000000000000000000000084866000604051602001611446929190611cc7565b6040516020818303038152906040526040518463ffffffff1660e01b815260040161147393929190611c4c565b602060405180830381600087803b15801561148d57600080fd5b505af11580156114a1573d6000803e3d6000fd5b505050506040513d601f19601f820116820180604052508101906114c5919061173d565b5060006114e78460003060008089815260200190815260200160002054611531565b90506001600080868152602001908152602001600020546115089190611fa6565b60008086815260200190815260200160002081905550611528848261156d565b91505092915050565b60008484848460405160200161154a9493929190611cf0565b6040516020818303038152906040528051906020012060001c9050949350505050565b60008282604051602001611582929190611b8e565b60405160208183030381529060405280519060200120905092915050565b8280546115ac90612162565b90600052602060002090601f0160209004810192826115ce5760008555611615565b82601f106115e757805160ff1916838001178555611615565b82800160010185558215611615579182015b828111156116145782518255916020019190600101906115f9565b5b5090506116229190611626565b5090565b5b8082111561163f576000816000905550600101611627565b5090565b600061165661165184611ee8565b611ec3565b90508281526020810184848401111561166e57600080fd5b611679848285612120565b509392505050565b600081359050611690816124d1565b92915050565b6000815190506116a5816124e8565b92915050565b6000813590506116ba816124ff565b92915050565b600082601f8301126116d157600080fd5b81356116e1848260208601611643565b91505092915050565b6000813590506116f981612516565b92915050565b60008151905061170e81612516565b92915050565b60006020828403121561172657600080fd5b600061173484828501611681565b91505092915050565b60006020828403121561174f57600080fd5b600061175d84828501611696565b91505092915050565b6000806040838503121561177957600080fd5b6000611787858286016116ab565b9250506020611798858286016116ea565b9150509250929050565b6000602082840312156117b457600080fd5b600082013567ffffffffffffffff8111156117ce57600080fd5b6117da848285016116c0565b91505092915050565b6000602082840312156117f557600080fd5b6000611803848285016116ea565b91505092915050565b60006020828403121561181e57600080fd5b600061182c848285016116ff565b91505092915050565b6000806040838503121561184857600080fd5b6000611856858286016116ea565b925050602083013567ffffffffffffffff81111561187357600080fd5b61187f858286016116c0565b9150509250929050565b600061189583836119ad565b905092915050565b6118a681612061565b82525050565b60006118b782611f29565b6118c18185611f57565b9350836020820285016118d385611f19565b8060005b8581101561190f57848403895281516118f08582611889565b94506118fb83611f4a565b925060208a019950506001810190506118d7565b50829750879550505050505092915050565b61192a8161207f565b82525050565b61194161193c8261207f565b61220e565b82525050565b600061195282611f34565b61195c8185611f68565b935061196c81856020860161212f565b6119758161233e565b840191505092915050565b611989816120c6565b82525050565b611998816120ea565b82525050565b6119a78161210e565b82525050565b60006119b882611f3f565b6119c28185611f79565b93506119d281856020860161212f565b6119db8161233e565b840191505092915050565b60006119f182611f3f565b6119fb8185611f8a565b9350611a0b81856020860161212f565b611a148161233e565b840191505092915050565b6000611a2a82611f3f565b611a348185611f9b565b9350611a4481856020860161212f565b80840191505092915050565b6000611a5d602783611f8a565b9150611a688261234f565b604082019050919050565b6000611a80601a83611f8a565b9150611a8b8261239e565b602082019050919050565b6000611aa3600c83611f8a565b9150611aae826123c7565b602082019050919050565b6000611ac6600983611f8a565b9150611ad1826123f0565b602082019050919050565b6000611ae9601483611f8a565b9150611af482612419565b602082019050919050565b6000611b0c601f83611f8a565b9150611b1782612442565b602082019050919050565b6000611b2f600983611f8a565b9150611b3a8261246b565b602082019050919050565b6000611b52601283611f8a565b9150611b5d82612494565b602082019050919050565b611b71816120bc565b82525050565b611b88611b83826120bc565b612218565b82525050565b6000611b9a8285611930565b602082019150611baa8284611b77565b6020820191508190509392505050565b6000611bc68284611a1f565b915081905092915050565b6000602082019050611be6600083018461189d565b92915050565b6000604082019050611c01600083018561189d565b611c0e602083018461189d565b9392505050565b6000606082019050611c2a600083018661189d565b611c37602083018561189d565b611c446040830184611b68565b949350505050565b6000606082019050611c61600083018661189d565b611c6e6020830185611b68565b8181036040830152611c808184611947565b9050949350505050565b60006020820190508181036000830152611ca481846118ac565b905092915050565b6000602082019050611cc16000830184611921565b92915050565b6000604082019050611cdc6000830185611921565b611ce96020830184611b68565b9392505050565b6000608082019050611d056000830187611921565b611d126020830186611b68565b611d1f604083018561189d565b611d2c6060830184611b68565b95945050505050565b6000602082019050611d4a6000830184611980565b92915050565b6000602082019050611d65600083018461198f565b92915050565b6000602082019050611d80600083018461199e565b92915050565b60006020820190508181036000830152611da081846119e6565b905092915050565b60006020820190508181036000830152611dc181611a50565b9050919050565b60006020820190508181036000830152611de181611a73565b9050919050565b60006020820190508181036000830152611e0181611a96565b9050919050565b60006020820190508181036000830152611e2181611ab9565b9050919050565b60006020820190508181036000830152611e4181611adc565b9050919050565b60006020820190508181036000830152611e6181611aff565b9050919050565b60006020820190508181036000830152611e8181611b22565b9050919050565b60006020820190508181036000830152611ea181611b45565b9050919050565b6000602082019050611ebd6000830184611b68565b92915050565b6000611ecd611ede565b9050611ed98282612194565b919050565b6000604051905090565b600067ffffffffffffffff821115611f0357611f0261230f565b5b611f0c8261233e565b9050602081019050919050565b6000819050602082019050919050565b600081519050919050565b600081519050919050565b600081519050919050565b6000602082019050919050565b600082825260208201905092915050565b600082825260208201905092915050565b600082825260208201905092915050565b600082825260208201905092915050565b600081905092915050565b6000611fb1826120bc565b9150611fbc836120bc565b9250827fffffffffffffffffffffffffffffffffffffffffffffffffffffffffffffffff03821115611ff157611ff0612253565b5b828201905092915050565b6000612007826120bc565b9150612012836120bc565b92508261202257612021612282565b5b828204905092915050565b6000612038826120bc565b9150612043836120bc565b92508282101561205657612055612253565b5b828203905092915050565b600061206c8261209c565b9050919050565b60008115159050919050565b6000819050919050565b6000819050612097826124bd565b919050565b600073ffffffffffffffffffffffffffffffffffffffff82169050919050565b6000819050919050565b60006120d1826120d8565b9050919050565b60006120e38261209c565b9050919050565b60006120f5826120fc565b9050919050565b60006121078261209c565b9050919050565b600061211982612089565b9050919050565b82818337600083830152505050565b60005b8381101561214d578082015181840152602081019050612132565b8381111561215c576000848401525b50505050565b6000600282049050600182168061217a57607f821691505b6020821081141561218e5761218d6122e0565b5b50919050565b61219d8261233e565b810181811067ffffffffffffffff821117156121bc576121bb61230f565b5b80604052505050565b60006121d0826120bc565b91507fffffffffffffffffffffffffffffffffffffffffffffffffffffffffffffffff82141561220357612202612253565b5b600182019050919050565b6000819050919050565b6000819050919050565b600061222d826120bc565b9150612238836120bc565b92508261224857612247612282565b5b828206905092915050565b7f4e487b7100000000000000000000000000000000000000000000000000000000600052601160045260246000fd5b7f4e487b7100000000000000000000000000000000000000000000000000000000600052601260045260246000fd5b7f4e487b7100000000000000000000000000000000000000000000000000000000600052602160045260246000fd5b7f4e487b7100000000000000000000000000000000000000000000000000000000600052602260045260246000fd5b7f4e487b7100000000000000000000000000000000000000000000000000000000600052604160045260246000fd5b6000601f19601f8301169050919050565b7f566f7465206d757374206265206174206c65617374203120616e64206174206d60008201527f6f73742031303000000000000000000000000000000000000000000000000000602082015250565b7f566f74652073657373696f6e20616c726561647920656e646564000000000000600082015250565b7f72657175697265206c696e6b0000000000000000000000000000000000000000600082015250565b7f6e6f7420666f756e640000000000000000000000000000000000000000000000600082015250565b7f4e6f74206861766520656e6f75676820766f7465000000000000000000000000600082015250565b7f4f6e6c7920565246436f6f7264696e61746f722063616e2066756c66696c6c00600082015250565b7f4e6f74206f776e65720000000000000000000000000000000000000000000000600082015250565b7f766f7465206e6f7420656e642079657421210000000000000000000000000000600082015250565b600281106124ce576124cd6122b1565b5b50565b6124da81612061565b81146124e557600080fd5b50565b6124f181612073565b81146124fc57600080fd5b50565b6125088161207f565b811461251357600080fd5b50565b61251f816120bc565b811461252a57600080fd5b5056fea2646970667358221220aea21ac40e42e7dcd3e4d97f9d82bcb8b4a1adffe2aa4315b0800f1be5377ef664736f6c63430008010033a2646970667358221220bf2c5a9a256a2194dd477db813d692b742a18f6e653250f30732a2e83f6fa32b64736f6c63430008010033",
  "linkReferences": {},
  "deployedLinkReferences": {}
}