{
  "_format": "hh-sol-artifact-1",
  "contractName": "VoteFactory",
  "sourceName": "contracts/vote/VoteFactory.sol",
  "abi": [
    {
      "inputs": [
        {
          "internalType": "address",
          "name": "_voteExchangeAddress",
          "type": "address"
        },
        {
          "internalType": "address",
          "name": "_coordinator",
          "type": "address"
        },
        {
          "internalType": "address",
          "name": "_link",
          "type": "address"
        },
        {
          "internalType": "uint256",
          "name": "_fee",
          "type": "uint256"
        },
        {
          "internalType": "bytes32",
          "name": "_keyhash",
          "type": "bytes32"
        },
        {
          "internalType": "address",
          "name": "_nftAddress",
          "type": "address"
        }
      ],
      "stateMutability": "nonpayable",
      "type": "constructor"
    },
    {
      "inputs": [],
      "name": "createVoteSession",
      "outputs": [],
      "stateMutability": "nonpayable",
      "type": "function"
    },
    {
      "inputs": [],
      "name": "fee",
      "outputs": [
        {
          "internalType": "uint256",
          "name": "",
          "type": "uint256"
        }
      ],
      "stateMutability": "view",
      "type": "function"
    },
    {
      "inputs": [],
      "name": "getLatestSession",
      "outputs": [
        {
          "internalType": "address",
          "name": "",
          "type": "address"
        }
      ],
      "stateMutability": "view",
      "type": "function"
    },
    {
      "inputs": [],
      "name": "keyhash",
      "outputs": [
        {
          "internalType": "bytes32",
          "name": "",
          "type": "bytes32"
        }
      ],
      "stateMutability": "view",
      "type": "function"
    },
    {
      "inputs": [],
      "name": "nftContract",
      "outputs": [
        {
          "internalType": "contract RiceNFT",
          "name": "",
          "type": "address"
        }
      ],
      "stateMutability": "view",
      "type": "function"
    },
    {
      "inputs": [],
      "name": "owner",
      "outputs": [
        {
          "internalType": "address",
          "name": "",
          "type": "address"
        }
      ],
      "stateMutability": "view",
      "type": "function"
    },
    {
      "inputs": [],
      "name": "voteExchange",
      "outputs": [
        {
          "internalType": "contract VoteExchange",
          "name": "",
          "type": "address"
        }
      ],
      "stateMutability": "view",
      "type": "function"
    },
    {
      "inputs": [],
      "name": "voteId",
      "outputs": [
        {
          "internalType": "uint256",
          "name": "",
          "type": "uint256"
        }
      ],
      "stateMutability": "view",
      "type": "function"
    },
    {
      "inputs": [
        {
          "internalType": "uint256",
          "name": "",
          "type": "uint256"
        }
      ],
      "name": "voteSessions",
      "outputs": [
        {
          "internalType": "contract VoteSession",
          "name": "",
          "type": "address"
        }
      ],
      "stateMutability": "view",
      "type": "function"
    }
  ],
  "bytecode": "0x60806040523480156200001157600080fd5b50604051620036dd380380620036dd8339818101604052810190620000379190620001e3565b33600260006101000a81548173ffffffffffffffffffffffffffffffffffffffff021916908373ffffffffffffffffffffffffffffffffffffffff160217905550600060018190555085600360006101000a81548173ffffffffffffffffffffffffffffffffffffffff021916908373ffffffffffffffffffffffffffffffffffffffff16021790555084600460006101000a81548173ffffffffffffffffffffffffffffffffffffffff021916908373ffffffffffffffffffffffffffffffffffffffff16021790555083600560006101000a81548173ffffffffffffffffffffffffffffffffffffffff021916908373ffffffffffffffffffffffffffffffffffffffff160217905550826006819055508160078190555080600860006101000a81548173ffffffffffffffffffffffffffffffffffffffff021916908373ffffffffffffffffffffffffffffffffffffffff1602179055505050505050506200030f565b600081519050620001af81620002c1565b92915050565b600081519050620001c681620002db565b92915050565b600081519050620001dd81620002f5565b92915050565b60008060008060008060c08789031215620001fd57600080fd5b60006200020d89828a016200019e565b96505060206200022089828a016200019e565b95505060406200023389828a016200019e565b94505060606200024689828a01620001cc565b93505060806200025989828a01620001b5565b92505060a06200026c89828a016200019e565b9150509295509295509295565b6000620002868262000297565b9050919050565b6000819050919050565b600073ffffffffffffffffffffffffffffffffffffffff82169050919050565b6000819050919050565b620002cc8162000279565b8114620002d857600080fd5b50565b620002e6816200028d565b8114620002f257600080fd5b50565b6200030081620002b7565b81146200030c57600080fd5b50565b6133be806200031f6000396000f3fe60806040523480156200001157600080fd5b5060043610620000a05760003560e01c80639e6f7d05116200006f5780639e6f7d05146200012b578063d56d229d146200014d578063ddca3f43146200016f578063ec79f04c1462000191578063fbb3965114620001b357620000a0565b806306caebb614620000a5578063126a869714620000db57806369ebe78e14620000e75780638da5cb5b1462000109575b600080fd5b620000c36004803603810190620000bd91906200067d565b620001d5565b604051620000d29190620007d1565b60405180910390f35b620000e562000208565b005b620000f162000555565b6040516200010091906200077a565b60405180910390f35b620001136200055b565b6040516200012291906200075d565b60405180910390f35b6200013562000581565b6040516200014491906200075d565b60405180910390f35b62000157620005bd565b60405162000166919062000797565b60405180910390f35b62000179620005e3565b60405162000188919062000832565b60405180910390f35b6200019b620005e9565b604051620001aa9190620007b4565b60405180910390f35b620001bd6200060f565b604051620001cc919062000832565b60405180910390f35b60006020528060005260406000206000915054906101000a900473ffffffffffffffffffffffffffffffffffffffff1681565b600260009054906101000a900473ffffffffffffffffffffffffffffffffffffffff1673ffffffffffffffffffffffffffffffffffffffff163273ffffffffffffffffffffffffffffffffffffffff16146200029b576040517f08c379a0000000000000000000000000000000000000000000000000000000008152600401620002929062000810565b60405180910390fd5b6000600154146200041357600180811115620002e0577f4e487b7100000000000000000000000000000000000000000000000000000000600052602160045260246000fd5b600080600154815260200190815260200160002060009054906101000a900473ffffffffffffffffffffffffffffffffffffffff1673ffffffffffffffffffffffffffffffffffffffff1663200d2ed26040518163ffffffff1660e01b815260040160206040518083038186803b1580156200035b57600080fd5b505afa15801562000370573d6000803e3d6000fd5b505050506040513d601f19601f8201168201806040525081019062000396919062000651565b6001811115620003cf577f4e487b7100000000000000000000000000000000000000000000000000000000600052602160045260246000fd5b1462000412576040517f08c379a00000000000000000000000000000000000000000000000000000000081526004016200040990620007ee565b60405180910390fd5b5b6001806000828254620004279190620008dd565b92505081905550600154600360009054906101000a900473ffffffffffffffffffffffffffffffffffffffff16600460009054906101000a900473ffffffffffffffffffffffffffffffffffffffff16600560009054906101000a900473ffffffffffffffffffffffffffffffffffffffff16600754600654600860009054906101000a900473ffffffffffffffffffffffffffffffffffffffff16604051620004d19062000615565b620004e397969594939291906200084f565b604051809103906000f08015801562000500573d6000803e3d6000fd5b50600080600154815260200190815260200160002060006101000a81548173ffffffffffffffffffffffffffffffffffffffff021916908373ffffffffffffffffffffffffffffffffffffffff160217905550565b60075481565b600260009054906101000a900473ffffffffffffffffffffffffffffffffffffffff1681565b6000806000600154815260200190815260200160002060009054906101000a900473ffffffffffffffffffffffffffffffffffffffff16905090565b600860009054906101000a900473ffffffffffffffffffffffffffffffffffffffff1681565b60065481565b600360009054906101000a900473ffffffffffffffffffffffffffffffffffffffff1681565b60015481565b6128e28062000aa783390190565b600081519050620006348162000a7b565b92915050565b6000813590506200064b8162000a8c565b92915050565b6000602082840312156200066457600080fd5b6000620006748482850162000623565b91505092915050565b6000602082840312156200069057600080fd5b6000620006a0848285016200063a565b91505092915050565b620006b4816200093a565b82525050565b620006c5816200094e565b82525050565b620006d68162000982565b82525050565b620006e781620009aa565b82525050565b620006f881620009d2565b82525050565b60006200070d602083620008cc565b91506200071a8262000a29565b602082019050919050565b600062000734600983620008cc565b9150620007418262000a52565b602082019050919050565b620007578162000978565b82525050565b6000602082019050620007746000830184620006a9565b92915050565b6000602082019050620007916000830184620006ba565b92915050565b6000602082019050620007ae6000830184620006cb565b92915050565b6000602082019050620007cb6000830184620006dc565b92915050565b6000602082019050620007e86000830184620006ed565b92915050565b600060208201905081810360008301526200080981620006fe565b9050919050565b600060208201905081810360008301526200082b8162000725565b9050919050565b60006020820190506200084960008301846200074c565b92915050565b600060e08201905062000866600083018a6200074c565b620008756020830189620006a9565b620008846040830188620006a9565b620008936060830187620006a9565b620008a26080830186620006ba565b620008b160a08301856200074c565b620008c060c0830184620006a9565b98975050505050505050565b600082825260208201905092915050565b6000620008ea8262000978565b9150620008f78362000978565b9250827fffffffffffffffffffffffffffffffffffffffffffffffffffffffffffffffff038211156200092f576200092e620009fa565b5b828201905092915050565b6000620009478262000958565b9050919050565b6000819050919050565b600073ffffffffffffffffffffffffffffffffffffffff82169050919050565b6000819050919050565b60006200098f8262000996565b9050919050565b6000620009a38262000958565b9050919050565b6000620009b782620009be565b9050919050565b6000620009cb8262000958565b9050919050565b6000620009df82620009e6565b9050919050565b6000620009f38262000958565b9050919050565b7f4e487b7100000000000000000000000000000000000000000000000000000000600052601160045260246000fd5b7f4c617465737420766f74652073657373696f6e206973206e6f7420656e646564600082015250565b7f4e6f74206f776e65720000000000000000000000000000000000000000000000600082015250565b6002811062000a8957600080fd5b50565b62000a978162000978565b811462000aa357600080fd5b5056fe60c06040523480156200001157600080fd5b50604051620028e2380380620028e28339818101604052810190620000379190620003f5565b84848173ffffffffffffffffffffffffffffffffffffffff1660a08173ffffffffffffffffffffffffffffffffffffffff1660601b815250508073ffffffffffffffffffffffffffffffffffffffff1660808173ffffffffffffffffffffffffffffffffffffffff1660601b815250505050826009819055508160088190555032600660006101000a81548173ffffffffffffffffffffffffffffffffffffffff021916908373ffffffffffffffffffffffffffffffffffffffff160217905550866001819055506000600d60146101000a81548160ff021916908360018111156200014c577f4e487b7100000000000000000000000000000000000000000000000000000000600052602160045260246000fd5b021790555085600560006101000a81548173ffffffffffffffffffffffffffffffffffffffff021916908373ffffffffffffffffffffffffffffffffffffffff160217905550600560009054906101000a900473ffffffffffffffffffffffffffffffffffffffff1673ffffffffffffffffffffffffffffffffffffffff16630494963d6040518163ffffffff1660e01b8152600401600060405180830381600087803b158015620001fd57600080fd5b505af115801562000212573d6000803e3d6000fd5b50505050816008819055508260098190555083600a60006101000a81548173ffffffffffffffffffffffffffffffffffffffff021916908373ffffffffffffffffffffffffffffffffffffffff160217905550600a60009054906101000a900473ffffffffffffffffffffffffffffffffffffffff1673ffffffffffffffffffffffffffffffffffffffff166323b872dd32306008546040518463ffffffff1660e01b8152600401620002c893929190620004c4565b602060405180830381600087803b158015620002e357600080fd5b505af1158015620002f8573d6000803e3d6000fd5b505050506040513d601f19601f820116820180604052508101906200031e9190620003c9565b5080600d60006101000a81548173ffffffffffffffffffffffffffffffffffffffff021916908373ffffffffffffffffffffffffffffffffffffffff16021790555050505050505050620005bd565b6000815190506200037e8162000555565b92915050565b60008151905062000395816200056f565b92915050565b600081519050620003ac8162000589565b92915050565b600081519050620003c381620005a3565b92915050565b600060208284031215620003dc57600080fd5b6000620003ec8482850162000384565b91505092915050565b600080600080600080600060e0888a0312156200041157600080fd5b6000620004218a828b01620003b2565b9750506020620004348a828b016200036d565b9650506040620004478a828b016200036d565b95505060606200045a8a828b016200036d565b94505060806200046d8a828b016200039b565b93505060a0620004808a828b01620003b2565b92505060c0620004938a828b016200036d565b91505092959891949750929550565b620004ad8162000501565b82525050565b620004be816200054b565b82525050565b6000606082019050620004db6000830186620004a2565b620004ea6020830185620004a2565b620004f96040830184620004b3565b949350505050565b60006200050e826200052b565b9050919050565b60008115159050919050565b6000819050919050565b600073ffffffffffffffffffffffffffffffffffffffff82169050919050565b6000819050919050565b620005608162000501565b81146200056c57600080fd5b50565b6200057a8162000515565b81146200058657600080fd5b50565b620005948162000521565b8114620005a057600080fd5b50565b620005ae816200054b565b8114620005ba57600080fd5b50565b60805160601c60a05160601c6122f2620005f060003960008181610989015261126d0152600061123101526122f26000f3fe608060405234801561001057600080fd5b50600436106101165760003560e01c8063965844a6116100a2578063dfbf53ae11610071578063dfbf53ae146102d3578063e9fc4856146102f1578063ec79f04c14610321578063f54769d01461033f578063fbb396511461036f57610116565b8063965844a614610249578063b922394614610279578063d56d229d14610297578063ddca3f43146102b557610116565b806341a494c5116100e957806341a494c5146101b557806369ebe78e146101d357806384e6c0a7146101f15780638da5cb5b1461020f57806394985ddd1461022d57610116565b8063200d2ed21461011b5780632410847514610139578063300062811461015557806337509f4c14610185575b600080fd5b61012361038d565b6040516101309190611b43565b60405180910390f35b610153600480360381019061014e9190611690565b6103a0565b005b61016f600480360381019061016a919061163e565b610771565b60405161017c9190611b5e565b60405180910390f35b61019f600480360381019061019a919061163e565b61081d565b6040516101ac9190611a09565b60405180910390f35b6101bd61085c565b6040516101ca9190611a09565b60405180910390f35b6101db610882565b6040516101e89190611a84565b60405180910390f35b6101f9610888565b6040516102069190611a62565b60405180910390f35b610217610961565b6040516102249190611a09565b60405180910390f35b610247600480360381019061024291906115c1565b610987565b005b610263600480360381019061025e919061156f565b610a23565b6040516102709190611c60565b60405180910390f35b610281610a3b565b60405161028e9190611a09565b60405180910390f35b61029f610d14565b6040516102ac9190611b0d565b60405180910390f35b6102bd610d3a565b6040516102ca9190611c60565b60405180910390f35b6102db610d40565b6040516102e89190611b5e565b60405180910390f35b61030b6004803603810190610306919061156f565b610dce565b6040516103189190611c60565b60405180910390f35b610329610edf565b6040516103369190611b28565b60405180910390f35b610359600480360381019061035491906115fd565b610f05565b6040516103669190611c60565b60405180910390f35b610377610f33565b6040516103849190611c60565b60405180910390f35b600d60149054906101000a900460ff1681565b600060018111156103da577f4e487b7100000000000000000000000000000000000000000000000000000000600052602160045260246000fd5b600d60149054906101000a900460ff166001811115610422577f4e487b7100000000000000000000000000000000000000000000000000000000600052602160045260246000fd5b14610462576040517f08c379a000000000000000000000000000000000000000000000000000000000815260040161045990611ba0565b60405180910390fd5b600082118015610473575060648211155b6104b2576040517f08c379a00000000000000000000000000000000000000000000000000000000081526004016104a990611b80565b60405180910390fd5b600260003373ffffffffffffffffffffffffffffffffffffffff1673ffffffffffffffffffffffffffffffffffffffff16815260200190815260200160002054826104fd9190611d5e565b670de0b6b3a7640000600560009054906101000a900473ffffffffffffffffffffffffffffffffffffffff1673ffffffffffffffffffffffffffffffffffffffff166395f226e4336040518263ffffffff1660e01b81526004016105619190611a09565b60206040518083038186803b15801561057957600080fd5b505afa15801561058d573d6000803e3d6000fd5b505050506040513d601f19601f820116820180604052508101906105b19190611667565b6105bb9190611db4565b10156105fc576040517f08c379a00000000000000000000000000000000000000000000000000000000081526004016105f390611be0565b60405180910390fd5b600060038260405161060e91906119f2565b90815260200160405180910390205414156106605760048190806001815401808255809150506001900390600052602060002001600090919091909150908051906020019061065e9291906113fb565b505b8160038260405161067191906119f2565b9081526020016040518091039020600082825461068e9190611d5e565b9250508190555081600260003373ffffffffffffffffffffffffffffffffffffffff1673ffffffffffffffffffffffffffffffffffffffff16815260200190815260200160002060008282546106e49190611d5e565b9250508190555060005b8281101561076c576007339080600181540180825580915050600190039060005260206000200160009091909190916101000a81548173ffffffffffffffffffffffffffffffffffffffff021916908373ffffffffffffffffffffffffffffffffffffffff160217905550808061076490611f7d565b9150506106ee565b505050565b6004818154811061078157600080fd5b90600052602060002001600091509050805461079c90611f1a565b80601f01602080910402602001604051908101604052809291908181526020018280546107c890611f1a565b80156108155780601f106107ea57610100808354040283529160200191610815565b820191906000526020600020905b8154815290600101906020018083116107f857829003601f168201915b505050505081565b6007818154811061082d57600080fd5b906000526020600020016000915054906101000a900473ffffffffffffffffffffffffffffffffffffffff1681565b600c60009054906101000a900473ffffffffffffffffffffffffffffffffffffffff1681565b60095481565b60606004805480602002602001604051908101604052809291908181526020016000905b828210156109585783829060005260206000200180546108cb90611f1a565b80601f01602080910402602001604051908101604052809291908181526020018280546108f790611f1a565b80156109445780601f1061091957610100808354040283529160200191610944565b820191906000526020600020905b81548152906001019060200180831161092757829003601f168201915b5050505050815260200190600101906108ac565b50505050905090565b600660009054906101000a900473ffffffffffffffffffffffffffffffffffffffff1681565b7f000000000000000000000000000000000000000000000000000000000000000073ffffffffffffffffffffffffffffffffffffffff163373ffffffffffffffffffffffffffffffffffffffff1614610a15576040517f08c379a0000000000000000000000000000000000000000000000000000000008152600401610a0c90611c00565b60405180910390fd5b610a1f8282610f39565b5050565b60026020528060005260406000206000915090505481565b6000600660009054906101000a900473ffffffffffffffffffffffffffffffffffffffff1673ffffffffffffffffffffffffffffffffffffffff163273ffffffffffffffffffffffffffffffffffffffff1614610acd576040517f08c379a0000000000000000000000000000000000000000000000000000000008152600401610ac490611c20565b60405180910390fd5b6001600d60146101000a81548160ff02191690836001811115610b19577f4e487b7100000000000000000000000000000000000000000000000000000000600052602160045260246000fd5b02179055506000610b2e60095460085461122d565b9050600560009054906101000a900473ffffffffffffffffffffffffffffffffffffffff1673ffffffffffffffffffffffffffffffffffffffff1663ddd1b0c86040518163ffffffff1660e01b8152600401600060405180830381600087803b158015610b9a57600080fd5b505af1158015610bae573d6000803e3d6000fd5b505050506000606060005b600480549050811015610cf657600060048281548110610c02577f4e487b7100000000000000000000000000000000000000000000000000000000600052603260045260246000fd5b906000526020600020018054610c1790611f1a565b80601f0160208091040260200160405190810160405280929190818152602001828054610c4390611f1a565b8015610c905780601f10610c6557610100808354040283529160200191610c90565b820191906000526020600020905b815481529060010190602001808311610c7357829003601f168201915b50505050509050600381604051610ca791906119f2565b908152602001604051809103902054841015610ce257600381604051610ccd91906119f2565b90815260200160405180910390205493508092505b508080610cee90611f7d565b915050610bb9565b5080600b9080519060200190610d0d9291906113fb565b5050505090565b600d60009054906101000a900473ffffffffffffffffffffffffffffffffffffffff1681565b60085481565b600b8054610d4d90611f1a565b80601f0160208091040260200160405190810160405280929190818152602001828054610d7990611f1a565b8015610dc65780601f10610d9b57610100808354040283529160200191610dc6565b820191906000526020600020905b815481529060010190602001808311610da957829003601f168201915b505050505081565b6000600260008373ffffffffffffffffffffffffffffffffffffffff1673ffffffffffffffffffffffffffffffffffffffff16815260200190815260200160002054670de0b6b3a7640000600560009054906101000a900473ffffffffffffffffffffffffffffffffffffffff1673ffffffffffffffffffffffffffffffffffffffff166395f226e4856040518263ffffffff1660e01b8152600401610e749190611a09565b60206040518083038186803b158015610e8c57600080fd5b505afa158015610ea0573d6000803e3d6000fd5b505050506040513d601f19601f82011682018060405250810190610ec49190611667565b610ece9190611db4565b610ed89190611de5565b9050919050565b600560009054906101000a900473ffffffffffffffffffffffffffffffffffffffff1681565b6003818051602081018201805184825260208301602085012081835280955050505050506000915090505481565b60015481565b600180811115610f72577f4e487b7100000000000000000000000000000000000000000000000000000000600052602160045260246000fd5b600d60149054906101000a900460ff166001811115610fba577f4e487b7100000000000000000000000000000000000000000000000000000000600052602160045260246000fd5b14610ffa576040517f08c379a0000000000000000000000000000000000000000000000000000000008152600401610ff190611c40565b60405180910390fd5b6000811161103d576040517f08c379a000000000000000000000000000000000000000000000000000000000815260040161103490611bc0565b60405180910390fd5b6000600780549050826110509190611fda565b90506007818154811061108c577f4e487b7100000000000000000000000000000000000000000000000000000000600052603260045260246000fd5b9060005260206000200160009054906101000a900473ffffffffffffffffffffffffffffffffffffffff16600c60006101000a81548173ffffffffffffffffffffffffffffffffffffffff021916908373ffffffffffffffffffffffffffffffffffffffff160217905550600d60009054906101000a900473ffffffffffffffffffffffffffffffffffffffff1673ffffffffffffffffffffffffffffffffffffffff1663a6b332ba600c60009054906101000a900473ffffffffffffffffffffffffffffffffffffffff166040518263ffffffff1660e01b81526004016111749190611a09565b600060405180830381600087803b15801561118e57600080fd5b505af11580156111a2573d6000803e3d6000fd5b50505050600d60009054906101000a900473ffffffffffffffffffffffffffffffffffffffff1673ffffffffffffffffffffffffffffffffffffffff1663a7e0c5786040518163ffffffff1660e01b8152600401600060405180830381600087803b15801561121057600080fd5b505af1158015611224573d6000803e3d6000fd5b50505050505050565b60007f000000000000000000000000000000000000000000000000000000000000000073ffffffffffffffffffffffffffffffffffffffff16634000aea07f0000000000000000000000000000000000000000000000000000000000000000848660006040516020016112a1929190611a9f565b6040516020818303038152906040526040518463ffffffff1660e01b81526004016112ce93929190611a24565b602060405180830381600087803b1580156112e857600080fd5b505af11580156112fc573d6000803e3d6000fd5b505050506040513d601f19601f820116820180604052508101906113209190611598565b506000611342846000306000808981526020019081526020016000205461138c565b90506001600080868152602001908152602001600020546113639190611d5e565b6000808681526020019081526020016000208190555061138384826113c8565b91505092915050565b6000848484846040516020016113a59493929190611ac8565b6040516020818303038152906040528051906020012060001c9050949350505050565b600082826040516020016113dd9291906119c6565b60405160208183030381529060405280519060200120905092915050565b82805461140790611f1a565b90600052602060002090601f0160209004810192826114295760008555611470565b82601f1061144257805160ff1916838001178555611470565b82800160010185558215611470579182015b8281111561146f578251825591602001919060010190611454565b5b50905061147d9190611481565b5090565b5b8082111561149a576000816000905550600101611482565b5090565b60006114b16114ac84611ca0565b611c7b565b9050828152602081018484840111156114c957600080fd5b6114d4848285611ed8565b509392505050565b6000813590506114eb81612260565b92915050565b60008151905061150081612277565b92915050565b6000813590506115158161228e565b92915050565b600082601f83011261152c57600080fd5b813561153c84826020860161149e565b91505092915050565b600081359050611554816122a5565b92915050565b600081519050611569816122a5565b92915050565b60006020828403121561158157600080fd5b600061158f848285016114dc565b91505092915050565b6000602082840312156115aa57600080fd5b60006115b8848285016114f1565b91505092915050565b600080604083850312156115d457600080fd5b60006115e285828601611506565b92505060206115f385828601611545565b9150509250929050565b60006020828403121561160f57600080fd5b600082013567ffffffffffffffff81111561162957600080fd5b6116358482850161151b565b91505092915050565b60006020828403121561165057600080fd5b600061165e84828501611545565b91505092915050565b60006020828403121561167957600080fd5b60006116878482850161155a565b91505092915050565b600080604083850312156116a357600080fd5b60006116b185828601611545565b925050602083013567ffffffffffffffff8111156116ce57600080fd5b6116da8582860161151b565b9150509250929050565b60006116f08383611808565b905092915050565b61170181611e19565b82525050565b600061171282611ce1565b61171c8185611d0f565b93508360208202850161172e85611cd1565b8060005b8581101561176a578484038952815161174b85826116e4565b945061175683611d02565b925060208a01995050600181019050611732565b50829750879550505050505092915050565b61178581611e37565b82525050565b61179c61179782611e37565b611fc6565b82525050565b60006117ad82611cec565b6117b78185611d20565b93506117c7818560208601611ee7565b6117d0816120f6565b840191505092915050565b6117e481611e7e565b82525050565b6117f381611ea2565b82525050565b61180281611ec6565b82525050565b600061181382611cf7565b61181d8185611d31565b935061182d818560208601611ee7565b611836816120f6565b840191505092915050565b600061184c82611cf7565b6118568185611d42565b9350611866818560208601611ee7565b61186f816120f6565b840191505092915050565b600061188582611cf7565b61188f8185611d53565b935061189f818560208601611ee7565b80840191505092915050565b60006118b8602783611d42565b91506118c382612107565b604082019050919050565b60006118db601a83611d42565b91506118e682612156565b602082019050919050565b60006118fe600983611d42565b91506119098261217f565b602082019050919050565b6000611921601483611d42565b915061192c826121a8565b602082019050919050565b6000611944601f83611d42565b915061194f826121d1565b602082019050919050565b6000611967600983611d42565b9150611972826121fa565b602082019050919050565b600061198a601283611d42565b915061199582612223565b602082019050919050565b6119a981611e74565b82525050565b6119c06119bb82611e74565b611fd0565b82525050565b60006119d2828561178b565b6020820191506119e282846119af565b6020820191508190509392505050565b60006119fe828461187a565b915081905092915050565b6000602082019050611a1e60008301846116f8565b92915050565b6000606082019050611a3960008301866116f8565b611a4660208301856119a0565b8181036040830152611a5881846117a2565b9050949350505050565b60006020820190508181036000830152611a7c8184611707565b905092915050565b6000602082019050611a99600083018461177c565b92915050565b6000604082019050611ab4600083018561177c565b611ac160208301846119a0565b9392505050565b6000608082019050611add600083018761177c565b611aea60208301866119a0565b611af760408301856116f8565b611b0460608301846119a0565b95945050505050565b6000602082019050611b2260008301846117db565b92915050565b6000602082019050611b3d60008301846117ea565b92915050565b6000602082019050611b5860008301846117f9565b92915050565b60006020820190508181036000830152611b788184611841565b905092915050565b60006020820190508181036000830152611b99816118ab565b9050919050565b60006020820190508181036000830152611bb9816118ce565b9050919050565b60006020820190508181036000830152611bd9816118f1565b9050919050565b60006020820190508181036000830152611bf981611914565b9050919050565b60006020820190508181036000830152611c1981611937565b9050919050565b60006020820190508181036000830152611c398161195a565b9050919050565b60006020820190508181036000830152611c598161197d565b9050919050565b6000602082019050611c7560008301846119a0565b92915050565b6000611c85611c96565b9050611c918282611f4c565b919050565b6000604051905090565b600067ffffffffffffffff821115611cbb57611cba6120c7565b5b611cc4826120f6565b9050602081019050919050565b6000819050602082019050919050565b600081519050919050565b600081519050919050565b600081519050919050565b6000602082019050919050565b600082825260208201905092915050565b600082825260208201905092915050565b600082825260208201905092915050565b600082825260208201905092915050565b600081905092915050565b6000611d6982611e74565b9150611d7483611e74565b9250827fffffffffffffffffffffffffffffffffffffffffffffffffffffffffffffffff03821115611da957611da861200b565b5b828201905092915050565b6000611dbf82611e74565b9150611dca83611e74565b925082611dda57611dd961203a565b5b828204905092915050565b6000611df082611e74565b9150611dfb83611e74565b925082821015611e0e57611e0d61200b565b5b828203905092915050565b6000611e2482611e54565b9050919050565b60008115159050919050565b6000819050919050565b6000819050611e4f8261224c565b919050565b600073ffffffffffffffffffffffffffffffffffffffff82169050919050565b6000819050919050565b6000611e8982611e90565b9050919050565b6000611e9b82611e54565b9050919050565b6000611ead82611eb4565b9050919050565b6000611ebf82611e54565b9050919050565b6000611ed182611e41565b9050919050565b82818337600083830152505050565b60005b83811015611f05578082015181840152602081019050611eea565b83811115611f14576000848401525b50505050565b60006002820490506001821680611f3257607f821691505b60208210811415611f4657611f45612098565b5b50919050565b611f55826120f6565b810181811067ffffffffffffffff82111715611f7457611f736120c7565b5b80604052505050565b6000611f8882611e74565b91507fffffffffffffffffffffffffffffffffffffffffffffffffffffffffffffffff821415611fbb57611fba61200b565b5b600182019050919050565b6000819050919050565b6000819050919050565b6000611fe582611e74565b9150611ff083611e74565b92508261200057611fff61203a565b5b828206905092915050565b7f4e487b7100000000000000000000000000000000000000000000000000000000600052601160045260246000fd5b7f4e487b7100000000000000000000000000000000000000000000000000000000600052601260045260246000fd5b7f4e487b7100000000000000000000000000000000000000000000000000000000600052602160045260246000fd5b7f4e487b7100000000000000000000000000000000000000000000000000000000600052602260045260246000fd5b7f4e487b7100000000000000000000000000000000000000000000000000000000600052604160045260246000fd5b6000601f19601f8301169050919050565b7f566f7465206d757374206265206174206c65617374203120616e64206174206d60008201527f6f73742031303000000000000000000000000000000000000000000000000000602082015250565b7f566f74652073657373696f6e20616c726561647920656e646564000000000000600082015250565b7f6e6f7420666f756e640000000000000000000000000000000000000000000000600082015250565b7f4e6f74206861766520656e6f75676820766f7465000000000000000000000000600082015250565b7f4f6e6c7920565246436f6f7264696e61746f722063616e2066756c66696c6c00600082015250565b7f4e6f74206f776e65720000000000000000000000000000000000000000000000600082015250565b7f766f7465206e6f7420656e642079657421210000000000000000000000000000600082015250565b6002811061225d5761225c612069565b5b50565b61226981611e19565b811461227457600080fd5b50565b61228081611e2b565b811461228b57600080fd5b50565b61229781611e37565b81146122a257600080fd5b50565b6122ae81611e74565b81146122b957600080fd5b5056fea2646970667358221220bda52d6cd3765d820bbd11f639f6d3161e8006a9a7c829a4bf5e5685c89de0ee64736f6c63430008010033a26469706673582212209a193ec9d28364cf98b314d1df7e230b23a124cd2b2f970964ba331b334b6c6464736f6c63430008010033",
  "linkReferences": {},
  "deployedLinkReferences": {}
}