{
  "_format": "hh-sol-artifact-1",
  "contractName": "Pool",
  "sourceName": "contracts/Pool.sol",
  "abi": [
    {
      "inputs": [
        {
          "internalType": "address payable",
          "name": "_token0",
          "type": "address"
        },
        {
          "internalType": "address payable",
          "name": "_token1",
          "type": "address"
        },
        {
          "internalType": "uint256",
          "name": "atoken0",
          "type": "uint256"
        },
        {
          "internalType": "uint256",
          "name": "atoken1",
          "type": "uint256"
        }
      ],
      "stateMutability": "nonpayable",
      "type": "constructor"
    },
    {
      "inputs": [
        {
          "internalType": "uint256",
          "name": "",
          "type": "uint256"
        }
      ],
      "name": "addresses",
      "outputs": [
        {
          "internalType": "address",
          "name": "",
          "type": "address"
        }
      ],
      "stateMutability": "view",
      "type": "function"
    },
    {
      "inputs": [
        {
          "internalType": "address",
          "name": "_token0",
          "type": "address"
        },
        {
          "internalType": "address",
          "name": "_token1",
          "type": "address"
        },
        {
          "internalType": "uint256",
          "name": "_amount0",
          "type": "uint256"
        },
        {
          "internalType": "uint256",
          "name": "_amount1",
          "type": "uint256"
        }
      ],
      "name": "divined",
      "outputs": [],
      "stateMutability": "nonpayable",
      "type": "function"
    },
    {
      "inputs": [
        {
          "internalType": "uint8",
          "name": "_percent",
          "type": "uint8"
        },
        {
          "internalType": "address",
          "name": "guy",
          "type": "address"
        }
      ],
      "name": "drainPool",
      "outputs": [],
      "stateMutability": "payable",
      "type": "function"
    },
    {
      "inputs": [
        {
          "internalType": "uint256",
          "name": "_amountToken0",
          "type": "uint256"
        },
        {
          "internalType": "uint256",
          "name": "_amountToken1",
          "type": "uint256"
        },
        {
          "internalType": "address",
          "name": "guy",
          "type": "address"
        }
      ],
      "name": "fillPool",
      "outputs": [],
      "stateMutability": "payable",
      "type": "function"
    },
    {
      "inputs": [
        {
          "internalType": "address",
          "name": "a",
          "type": "address"
        }
      ],
      "name": "getStakeAmount",
      "outputs": [
        {
          "internalType": "uint256",
          "name": "atoken0",
          "type": "uint256"
        },
        {
          "internalType": "uint256",
          "name": "atoken1",
          "type": "uint256"
        }
      ],
      "stateMutability": "view",
      "type": "function"
    },
    {
      "inputs": [],
      "name": "getToken0",
      "outputs": [
        {
          "internalType": "contract ERC20",
          "name": "_token0",
          "type": "address"
        }
      ],
      "stateMutability": "view",
      "type": "function"
    },
    {
      "inputs": [],
      "name": "getToken0Amount",
      "outputs": [
        {
          "internalType": "uint256",
          "name": "amountOfToken0",
          "type": "uint256"
        }
      ],
      "stateMutability": "view",
      "type": "function"
    },
    {
      "inputs": [],
      "name": "getToken1",
      "outputs": [
        {
          "internalType": "contract ERC20",
          "name": "_token1",
          "type": "address"
        }
      ],
      "stateMutability": "view",
      "type": "function"
    },
    {
      "inputs": [],
      "name": "getToken1Amount",
      "outputs": [
        {
          "internalType": "uint256",
          "name": "amountOfToken1",
          "type": "uint256"
        }
      ],
      "stateMutability": "view",
      "type": "function"
    },
    {
      "inputs": [
        {
          "internalType": "uint256",
          "name": "_amountToken0",
          "type": "uint256"
        },
        {
          "internalType": "uint256",
          "name": "_amountToken1",
          "type": "uint256"
        }
      ],
      "name": "swap0to1",
      "outputs": [],
      "stateMutability": "payable",
      "type": "function"
    },
    {
      "inputs": [
        {
          "internalType": "uint256",
          "name": "_amountToken1",
          "type": "uint256"
        },
        {
          "internalType": "uint256",
          "name": "_amountToken0",
          "type": "uint256"
        }
      ],
      "name": "swap1to0",
      "outputs": [],
      "stateMutability": "payable",
      "type": "function"
    },
    {
      "inputs": [
        {
          "internalType": "uint256",
          "name": "_amountToken1",
          "type": "uint256"
        }
      ],
      "name": "token0NeedForStake",
      "outputs": [
        {
          "internalType": "uint256",
          "name": "_amountToken0",
          "type": "uint256"
        }
      ],
      "stateMutability": "view",
      "type": "function"
    },
    {
      "inputs": [
        {
          "internalType": "uint256",
          "name": "_amountToken0",
          "type": "uint256"
        }
      ],
      "name": "token1NeedForStake",
      "outputs": [
        {
          "internalType": "uint256",
          "name": "_amountToken1",
          "type": "uint256"
        }
      ],
      "stateMutability": "view",
      "type": "function"
    },
    {
      "inputs": [
        {
          "internalType": "address",
          "name": "",
          "type": "address"
        }
      ],
      "name": "wallet",
      "outputs": [
        {
          "internalType": "uint16",
          "name": "",
          "type": "uint16"
        }
      ],
      "stateMutability": "view",
      "type": "function"
    },
    {
      "inputs": [
        {
          "internalType": "address",
          "name": "",
          "type": "address"
        }
      ],
      "name": "walletToken0",
      "outputs": [
        {
          "internalType": "uint256",
          "name": "",
          "type": "uint256"
        }
      ],
      "stateMutability": "view",
      "type": "function"
    },
    {
      "inputs": [
        {
          "internalType": "address",
          "name": "",
          "type": "address"
        }
      ],
      "name": "walletToken1",
      "outputs": [
        {
          "internalType": "uint256",
          "name": "",
          "type": "uint256"
        }
      ],
      "stateMutability": "view",
      "type": "function"
    }
  ],
  "bytecode": "0x60806040523480156200001157600080fd5b506040516200181f3803806200181f8339818101604052810190620000379190620000fe565b836000806101000a81548173ffffffffffffffffffffffffffffffffffffffff021916908373ffffffffffffffffffffffffffffffffffffffff16021790555082600160006101000a81548173ffffffffffffffffffffffffffffffffffffffff021916908373ffffffffffffffffffffffffffffffffffffffff160217905550816002819055508060038190555050505050620001dc565b600081519050620000e181620001a8565b92915050565b600081519050620000f881620001c2565b92915050565b600080600080608085870312156200011557600080fd5b60006200012587828801620000d0565b94505060206200013887828801620000d0565b93505060406200014b87828801620000e7565b92505060606200015e87828801620000e7565b91505092959194509250565b600062000177826200017e565b9050919050565b600073ffffffffffffffffffffffffffffffffffffffff82169050919050565b6000819050919050565b620001b3816200016a565b8114620001bf57600080fd5b50565b620001cd816200019e565b8114620001d957600080fd5b50565b61163380620001ec6000396000f3fe6080604052600436106100f35760003560e01c8063a56cc4391161008a578063ce870b1111610059578063ce870b111461032a578063d8a9ca2b14610353578063ec0df79a14610390578063edf26d9b146103ac576100f3565b8063a56cc43914610269578063ba94a315146102a6578063bd13c1a6146102d1578063c4c793611461030e576100f3565b80633f097481116100c65780633f097481146101c95780636f26a710146101e5578063778c3a74146102105780639d7ce6991461022c576100f3565b80630c2eb403146100f857806313f5ecee14610136578063268a81de14610161578063368e89e71461019e575b600080fd5b34801561010457600080fd5b5061011f600480360381019061011a9190611016565b6103e9565b60405161012d9291906112ec565b60405180910390f35b34801561014257600080fd5b5061014b610475565b60405161015891906112d1565b60405180910390f35b34801561016d57600080fd5b5061018860048036038101906101839190611016565b61047f565b60405161019591906112d1565b60405180910390f35b3480156101aa57600080fd5b506101b3610497565b6040516101c091906112d1565b60405180910390f35b6101e360048036038101906101de919061117f565b6104a1565b005b3480156101f157600080fd5b506101fa61079f565b604051610207919061127b565b60405180910390f35b61022a60048036038101906102259190611130565b6107c9565b005b34801561023857600080fd5b50610253600480360381019061024e91906110cb565b6109e1565b60405161026091906112d1565b60405180910390f35b34801561027557600080fd5b50610290600480360381019061028b9190611016565b610a0f565b60405161029d91906112b6565b60405180910390f35b3480156102b257600080fd5b506102bb610a30565b6040516102c8919061127b565b60405180910390f35b3480156102dd57600080fd5b506102f860048036038101906102f391906110cb565b610a59565b60405161030591906112d1565b60405180910390f35b610328600480360381019061032391906110f4565b610a87565b005b34801561033657600080fd5b50610351600480360381019061034c919061103f565b610b7e565b005b34801561035f57600080fd5b5061037a60048036038101906103759190611016565b610e72565b60405161038791906112d1565b60405180910390f35b6103aa60048036038101906103a591906110f4565b610e8a565b005b3480156103b857600080fd5b506103d360048036038101906103ce91906110cb565b610f83565b6040516103e09190611237565b60405180910390f35b600080600560008473ffffffffffffffffffffffffffffffffffffffff1673ffffffffffffffffffffffffffffffffffffffff16815260200190815260200160002054600660008573ffffffffffffffffffffffffffffffffffffffff1673ffffffffffffffffffffffffffffffffffffffff1681526020019081526020016000205491509150915091565b6000600254905090565b60056020528060005260406000206000915090505481565b6000600354905090565b60008260ff166064600560003273ffffffffffffffffffffffffffffffffffffffff1673ffffffffffffffffffffffffffffffffffffffff168152602001908152602001600020546104f391906113b4565b6104fd91906113e5565b905060008360ff166064600660003273ffffffffffffffffffffffffffffffffffffffff1673ffffffffffffffffffffffffffffffffffffffff1681526020019081526020016000205461055191906113b4565b61055b91906113e5565b905060008054906101000a900473ffffffffffffffffffffffffffffffffffffffff1673ffffffffffffffffffffffffffffffffffffffff1663a9059cbb32846040518363ffffffff1660e01b81526004016105b8929190611252565b602060405180830381600087803b1580156105d257600080fd5b505af11580156105e6573d6000803e3d6000fd5b505050506040513d601f19601f8201168201806040525081019061060a91906110a2565b50600160009054906101000a900473ffffffffffffffffffffffffffffffffffffffff1673ffffffffffffffffffffffffffffffffffffffff1663a9059cbb32836040518363ffffffff1660e01b8152600401610668929190611252565b602060405180830381600087803b15801561068257600080fd5b505af1158015610696573d6000803e3d6000fd5b505050506040513d601f19601f820116820180604052508101906106ba91906110a2565b5081600260008282546106cd919061143f565b9250508190555081600560008573ffffffffffffffffffffffffffffffffffffffff1673ffffffffffffffffffffffffffffffffffffffff1681526020019081526020016000206000828254610723919061143f565b92505081905550806003600082825461073c919061143f565b9250508190555080600660008573ffffffffffffffffffffffffffffffffffffffff1673ffffffffffffffffffffffffffffffffffffffff1681526020019081526020016000206000828254610792919061143f565b9250508190555050505050565b6000600160009054906101000a900473ffffffffffffffffffffffffffffffffffffffff16905090565b82600260008282546107db919061135e565b9250508190555082600560008373ffffffffffffffffffffffffffffffffffffffff1673ffffffffffffffffffffffffffffffffffffffff1681526020019081526020016000206000828254610831919061135e565b92505081905550816003600082825461084a919061135e565b9250508190555081600660008373ffffffffffffffffffffffffffffffffffffffff1673ffffffffffffffffffffffffffffffffffffffff16815260200190815260200160002060008282546108a0919061135e565b925050819055506000600460008373ffffffffffffffffffffffffffffffffffffffff1673ffffffffffffffffffffffffffffffffffffffff16815260200190815260200160002060009054906101000a900461ffff1661ffff1614156109dc576001600460008373ffffffffffffffffffffffffffffffffffffffff1673ffffffffffffffffffffffffffffffffffffffff16815260200190815260200160002060008282829054906101000a900461ffff1661095e9190611326565b92506101000a81548161ffff021916908361ffff1602179055506007819080600181540180825580915050600190039060005260206000200160009091909190916101000a81548173ffffffffffffffffffffffffffffffffffffffff021916908373ffffffffffffffffffffffffffffffffffffffff1602179055505b505050565b6000816109ec610497565b6109f4610475565b6109fe91906113b4565b610a0891906113e5565b9050919050565b60046020528060005260406000206000915054906101000a900461ffff1681565b60008060009054906101000a900473ffffffffffffffffffffffffffffffffffffffff16905090565b600081610a64610475565b610a6c610497565b610a7691906113b4565b610a8091906113e5565b9050919050565b80610a90610475565b11610a9a57600080fd5b60008054906101000a900473ffffffffffffffffffffffffffffffffffffffff1673ffffffffffffffffffffffffffffffffffffffff1663a9059cbb32836040518363ffffffff1660e01b8152600401610af5929190611252565b602060405180830381600087803b158015610b0f57600080fd5b505af1158015610b23573d6000803e3d6000fd5b505050506040513d601f19601f82011682018060405250810190610b4791906110a2565b508060026000828254610b5a919061143f565b925050819055508160036000828254610b73919061135e565b925050819055505050565b60008054906101000a900473ffffffffffffffffffffffffffffffffffffffff1673ffffffffffffffffffffffffffffffffffffffff168473ffffffffffffffffffffffffffffffffffffffff16148015610c265750600160009054906101000a900473ffffffffffffffffffffffffffffffffffffffff1673ffffffffffffffffffffffffffffffffffffffff168373ffffffffffffffffffffffffffffffffffffffff16145b610c65576040517f08c379a0000000000000000000000000000000000000000000000000000000008152600401610c5c90611296565b60405180910390fd5b6000610c6f610475565b83610c7a91906113b4565b90506000610c86610497565b83610c9191906113b4565b905060006007805490509050600080600090505b82811015610e675760078181548110610ce7577f4e487b7100000000000000000000000000000000000000000000000000000000600052603260045260246000fd5b9060005260206000200160009054906101000a900473ffffffffffffffffffffffffffffffffffffffff169150600560008373ffffffffffffffffffffffffffffffffffffffff1673ffffffffffffffffffffffffffffffffffffffff1681526020019081526020016000205485610d5f91906113e5565b600560008473ffffffffffffffffffffffffffffffffffffffff1673ffffffffffffffffffffffffffffffffffffffff1681526020019081526020016000206000828254610dad919061135e565b92505081905550600660008373ffffffffffffffffffffffffffffffffffffffff1673ffffffffffffffffffffffffffffffffffffffff1681526020019081526020016000205484610dff91906113e5565b600660008473ffffffffffffffffffffffffffffffffffffffff1673ffffffffffffffffffffffffffffffffffffffff1681526020019081526020016000206000828254610e4d919061135e565b925050819055508080610e5f906114fa565b915050610ca5565b505050505050505050565b60066020528060005260406000206000915090505481565b80610e93610497565b11610e9d57600080fd5b600160009054906101000a900473ffffffffffffffffffffffffffffffffffffffff1673ffffffffffffffffffffffffffffffffffffffff1663a9059cbb32836040518363ffffffff1660e01b8152600401610efa929190611252565b602060405180830381600087803b158015610f1457600080fd5b505af1158015610f28573d6000803e3d6000fd5b505050506040513d601f19601f82011682018060405250810190610f4c91906110a2565b508160026000828254610f5f919061135e565b925050819055508060036000828254610f78919061143f565b925050819055505050565b60078181548110610f9357600080fd5b906000526020600020016000915054906101000a900473ffffffffffffffffffffffffffffffffffffffff1681565b600081359050610fd1816115a1565b92915050565b600081519050610fe6816115b8565b92915050565b600081359050610ffb816115cf565b92915050565b600081359050611010816115e6565b92915050565b60006020828403121561102857600080fd5b600061103684828501610fc2565b91505092915050565b6000806000806080858703121561105557600080fd5b600061106387828801610fc2565b945050602061107487828801610fc2565b935050604061108587828801610fec565b925050606061109687828801610fec565b91505092959194509250565b6000602082840312156110b457600080fd5b60006110c284828501610fd7565b91505092915050565b6000602082840312156110dd57600080fd5b60006110eb84828501610fec565b91505092915050565b6000806040838503121561110757600080fd5b600061111585828601610fec565b925050602061112685828601610fec565b9150509250929050565b60008060006060848603121561114557600080fd5b600061115386828701610fec565b935050602061116486828701610fec565b925050604061117586828701610fc2565b9150509250925092565b6000806040838503121561119257600080fd5b60006111a085828601611001565b92505060206111b185828601610fc2565b9150509250929050565b6111c481611473565b82525050565b6111d3816114d6565b82525050565b60006111e6601083611315565b91507f57726f6e6720746f6b656e20706f6f6c000000000000000000000000000000006000830152602082019050919050565b61122281611491565b82525050565b611231816114bf565b82525050565b600060208201905061124c60008301846111bb565b92915050565b600060408201905061126760008301856111bb565b6112746020830184611228565b9392505050565b600060208201905061129060008301846111ca565b92915050565b600060208201905081810360008301526112af816111d9565b9050919050565b60006020820190506112cb6000830184611219565b92915050565b60006020820190506112e66000830184611228565b92915050565b60006040820190506113016000830185611228565b61130e6020830184611228565b9392505050565b600082825260208201905092915050565b600061133182611491565b915061133c83611491565b92508261ffff0382111561135357611352611543565b5b828201905092915050565b6000611369826114bf565b9150611374836114bf565b9250827fffffffffffffffffffffffffffffffffffffffffffffffffffffffffffffffff038211156113a9576113a8611543565b5b828201905092915050565b60006113bf826114bf565b91506113ca836114bf565b9250826113da576113d9611572565b5b828204905092915050565b60006113f0826114bf565b91506113fb836114bf565b9250817fffffffffffffffffffffffffffffffffffffffffffffffffffffffffffffffff048311821515161561143457611433611543565b5b828202905092915050565b600061144a826114bf565b9150611455836114bf565b92508282101561146857611467611543565b5b828203905092915050565b600061147e8261149f565b9050919050565b60008115159050919050565b600061ffff82169050919050565b600073ffffffffffffffffffffffffffffffffffffffff82169050919050565b6000819050919050565b600060ff82169050919050565b60006114e1826114e8565b9050919050565b60006114f38261149f565b9050919050565b6000611505826114bf565b91507fffffffffffffffffffffffffffffffffffffffffffffffffffffffffffffffff82141561153857611537611543565b5b600182019050919050565b7f4e487b7100000000000000000000000000000000000000000000000000000000600052601160045260246000fd5b7f4e487b7100000000000000000000000000000000000000000000000000000000600052601260045260246000fd5b6115aa81611473565b81146115b557600080fd5b50565b6115c181611485565b81146115cc57600080fd5b50565b6115d8816114bf565b81146115e357600080fd5b50565b6115ef816114c9565b81146115fa57600080fd5b5056fea2646970667358221220cc8c9911ae6a124a208c5f19d34982b9f798b77837cbf688faa2cb3d51521f9e64736f6c63430008000033",
  "linkReferences": {},
  "deployedLinkReferences": {}
}