{
  "_format": "hh-sol-artifact-1",
  "contractName": "RiceNFT",
  "sourceName": "contracts/nft/RiceNFT.sol",
  "abi": [
    {
      "inputs": [],
      "stateMutability": "nonpayable",
      "type": "constructor"
    },
    {
      "anonymous": false,
      "inputs": [
        {
          "indexed": true,
          "internalType": "address",
          "name": "owner",
          "type": "address"
        },
        {
          "indexed": true,
          "internalType": "address",
          "name": "approved",
          "type": "address"
        },
        {
          "indexed": true,
          "internalType": "uint256",
          "name": "tokenId",
          "type": "uint256"
        }
      ],
      "name": "Approval",
      "type": "event"
    },
    {
      "anonymous": false,
      "inputs": [
        {
          "indexed": true,
          "internalType": "address",
          "name": "owner",
          "type": "address"
        },
        {
          "indexed": true,
          "internalType": "address",
          "name": "operator",
          "type": "address"
        },
        {
          "indexed": false,
          "internalType": "bool",
          "name": "approved",
          "type": "bool"
        }
      ],
      "name": "ApprovalForAll",
      "type": "event"
    },
    {
      "anonymous": false,
      "inputs": [
        {
          "indexed": true,
          "internalType": "address",
          "name": "from",
          "type": "address"
        },
        {
          "indexed": true,
          "internalType": "address",
          "name": "to",
          "type": "address"
        },
        {
          "indexed": true,
          "internalType": "uint256",
          "name": "tokenId",
          "type": "uint256"
        }
      ],
      "name": "Transfer",
      "type": "event"
    },
    {
      "inputs": [
        {
          "internalType": "address",
          "name": "to",
          "type": "address"
        },
        {
          "internalType": "uint256",
          "name": "tokenId",
          "type": "uint256"
        }
      ],
      "name": "approve",
      "outputs": [],
      "stateMutability": "nonpayable",
      "type": "function"
    },
    {
      "inputs": [
        {
          "internalType": "string",
          "name": "tokenURI",
          "type": "string"
        }
      ],
      "name": "award",
      "outputs": [
        {
          "internalType": "uint256",
          "name": "",
          "type": "uint256"
        }
      ],
      "stateMutability": "nonpayable",
      "type": "function"
    },
    {
      "inputs": [
        {
          "internalType": "address",
          "name": "owner",
          "type": "address"
        }
      ],
      "name": "balanceOf",
      "outputs": [
        {
          "internalType": "uint256",
          "name": "",
          "type": "uint256"
        }
      ],
      "stateMutability": "view",
      "type": "function"
    },
    {
      "inputs": [
        {
          "internalType": "uint256",
          "name": "tokenId",
          "type": "uint256"
        }
      ],
      "name": "getApproved",
      "outputs": [
        {
          "internalType": "address",
          "name": "",
          "type": "address"
        }
      ],
      "stateMutability": "view",
      "type": "function"
    },
    {
      "inputs": [],
      "name": "handleNFT",
      "outputs": [
        {
          "internalType": "uint256[]",
          "name": "list",
          "type": "uint256[]"
        }
      ],
      "stateMutability": "nonpayable",
      "type": "function"
    },
    {
      "inputs": [
        {
          "internalType": "address",
          "name": "owner",
          "type": "address"
        },
        {
          "internalType": "address",
          "name": "operator",
          "type": "address"
        }
      ],
      "name": "isApprovedForAll",
      "outputs": [
        {
          "internalType": "bool",
          "name": "",
          "type": "bool"
        }
      ],
      "stateMutability": "view",
      "type": "function"
    },
    {
      "inputs": [],
      "name": "name",
      "outputs": [
        {
          "internalType": "string",
          "name": "",
          "type": "string"
        }
      ],
      "stateMutability": "view",
      "type": "function"
    },
    {
      "inputs": [],
      "name": "openNFT",
      "outputs": [],
      "stateMutability": "nonpayable",
      "type": "function"
    },
    {
      "inputs": [],
      "name": "owner",
      "outputs": [
        {
          "internalType": "address",
          "name": "",
          "type": "address"
        }
      ],
      "stateMutability": "view",
      "type": "function"
    },
    {
      "inputs": [
        {
          "internalType": "uint256",
          "name": "tokenId",
          "type": "uint256"
        }
      ],
      "name": "ownerOf",
      "outputs": [
        {
          "internalType": "address",
          "name": "",
          "type": "address"
        }
      ],
      "stateMutability": "view",
      "type": "function"
    },
    {
      "inputs": [],
      "name": "recentAward",
      "outputs": [
        {
          "internalType": "address",
          "name": "",
          "type": "address"
        }
      ],
      "stateMutability": "view",
      "type": "function"
    },
    {
      "inputs": [
        {
          "internalType": "address",
          "name": "from",
          "type": "address"
        },
        {
          "internalType": "address",
          "name": "to",
          "type": "address"
        },
        {
          "internalType": "uint256",
          "name": "tokenId",
          "type": "uint256"
        }
      ],
      "name": "safeTransferFrom",
      "outputs": [],
      "stateMutability": "nonpayable",
      "type": "function"
    },
    {
      "inputs": [
        {
          "internalType": "address",
          "name": "from",
          "type": "address"
        },
        {
          "internalType": "address",
          "name": "to",
          "type": "address"
        },
        {
          "internalType": "uint256",
          "name": "tokenId",
          "type": "uint256"
        },
        {
          "internalType": "bytes",
          "name": "_data",
          "type": "bytes"
        }
      ],
      "name": "safeTransferFrom",
      "outputs": [],
      "stateMutability": "nonpayable",
      "type": "function"
    },
    {
      "inputs": [
        {
          "internalType": "address",
          "name": "operator",
          "type": "address"
        },
        {
          "internalType": "bool",
          "name": "approved",
          "type": "bool"
        }
      ],
      "name": "setApprovalForAll",
      "outputs": [],
      "stateMutability": "nonpayable",
      "type": "function"
    },
    {
      "inputs": [
        {
          "internalType": "address",
          "name": "_award",
          "type": "address"
        }
      ],
      "name": "setAward",
      "outputs": [],
      "stateMutability": "nonpayable",
      "type": "function"
    },
    {
      "inputs": [],
      "name": "status",
      "outputs": [
        {
          "internalType": "enum RiceNFT.State",
          "name": "",
          "type": "uint8"
        }
      ],
      "stateMutability": "view",
      "type": "function"
    },
    {
      "inputs": [
        {
          "internalType": "bytes4",
          "name": "interfaceId",
          "type": "bytes4"
        }
      ],
      "name": "supportsInterface",
      "outputs": [
        {
          "internalType": "bool",
          "name": "",
          "type": "bool"
        }
      ],
      "stateMutability": "view",
      "type": "function"
    },
    {
      "inputs": [],
      "name": "symbol",
      "outputs": [
        {
          "internalType": "string",
          "name": "",
          "type": "string"
        }
      ],
      "stateMutability": "view",
      "type": "function"
    },
    {
      "inputs": [
        {
          "internalType": "uint256",
          "name": "tokenId",
          "type": "uint256"
        }
      ],
      "name": "tokenURI",
      "outputs": [
        {
          "internalType": "string",
          "name": "",
          "type": "string"
        }
      ],
      "stateMutability": "view",
      "type": "function"
    },
    {
      "inputs": [
        {
          "internalType": "address",
          "name": "from",
          "type": "address"
        },
        {
          "internalType": "address",
          "name": "to",
          "type": "address"
        },
        {
          "internalType": "uint256",
          "name": "tokenId",
          "type": "uint256"
        }
      ],
      "name": "transferFrom",
      "outputs": [],
      "stateMutability": "nonpayable",
      "type": "function"
    }
  ],
  "bytecode": "0x60806040523480156200001157600080fd5b506040518060400160405280600781526020017f526963654e4654000000000000000000000000000000000000000000000000008152506040518060400160405280600381526020017f524e4400000000000000000000000000000000000000000000000000000000008152508160009080519060200190620000969291906200014b565b508060019080519060200190620000af9291906200014b565b5050506001600960146101000a81548160ff02191690836001811115620000ff577f4e487b7100000000000000000000000000000000000000000000000000000000600052602160045260246000fd5b021790555033600860006101000a81548173ffffffffffffffffffffffffffffffffffffffff021916908373ffffffffffffffffffffffffffffffffffffffff16021790555062000260565b8280546200015990620001fb565b90600052602060002090601f0160209004810192826200017d5760008555620001c9565b82601f106200019857805160ff1916838001178555620001c9565b82800160010185558215620001c9579182015b82811115620001c8578251825591602001919060010190620001ab565b5b509050620001d89190620001dc565b5090565b5b80821115620001f7576000816000905550600101620001dd565b5090565b600060028204905060018216806200021457607f821691505b602082108114156200022b576200022a62000231565b5b50919050565b7f4e487b7100000000000000000000000000000000000000000000000000000000600052602260045260246000fd5b61336080620002706000396000f3fe608060405234801561001057600080fd5b506004361061012c5760003560e01c80636fde4b02116100ad578063a6b332ba11610071578063a6b332ba14610345578063a7e0c57814610361578063b88d4fde1461036b578063c87b56dd14610387578063e985e9c5146103b75761012c565b80636fde4b021461029f57806370a08231146102bd5780638da5cb5b146102ed57806395d89b411461030b578063a22cb465146103295761012c565b806323b872dd116100f457806323b872dd146101e957806330953a8f1461020557806341c3b8a51461022357806342842e0e146102535780636352211e1461026f5761012c565b806301ffc9a71461013157806306fdde0314610161578063081812fc1461017f578063095ea7b3146101af578063200d2ed2146101cb575b600080fd5b61014b600480360381019061014691906120f0565b6103e7565b6040516101589190612656565b60405180910390f35b6101696104c9565b604051610176919061268c565b60405180910390f35b61019960048036038101906101949190612183565b61055b565b6040516101a691906125cd565b60405180910390f35b6101c960048036038101906101c491906120b4565b6105e0565b005b6101d36106f8565b6040516101e09190612671565b60405180910390f35b61020360048036038101906101fe9190611fae565b61070b565b005b61020d61076b565b60405161021a9190612634565b60405180910390f35b61023d60048036038101906102389190612142565b610833565b60405161024a919061290e565b60405180910390f35b61026d60048036038101906102689190611fae565b610aca565b005b61028960048036038101906102849190612183565b610aea565b60405161029691906125cd565b60405180910390f35b6102a7610b9c565b6040516102b491906125cd565b60405180910390f35b6102d760048036038101906102d29190611f49565b610bc2565b6040516102e4919061290e565b60405180910390f35b6102f5610c7a565b60405161030291906125cd565b60405180910390f35b610313610ca0565b604051610320919061268c565b60405180910390f35b610343600480360381019061033e9190612078565b610d32565b005b61035f600480360381019061035a9190611f49565b610d48565b005b610369610d8c565b005b61038560048036038101906103809190611ffd565b610ddf565b005b6103a1600480360381019061039c9190612183565b610e41565b6040516103ae919061268c565b60405180910390f35b6103d160048036038101906103cc9190611f72565b610f93565b6040516103de9190612656565b60405180910390f35b60007f80ac58cd000000000000000000000000000000000000000000000000000000007bffffffffffffffffffffffffffffffffffffffffffffffffffffffff1916827bffffffffffffffffffffffffffffffffffffffffffffffffffffffff191614806104b257507f5b5e139f000000000000000000000000000000000000000000000000000000007bffffffffffffffffffffffffffffffffffffffffffffffffffffffff1916827bffffffffffffffffffffffffffffffffffffffffffffffffffffffff1916145b806104c257506104c182611027565b5b9050919050565b6060600080546104d890612bc2565b80601f016020809104026020016040519081016040528092919081815260200182805461050490612bc2565b80156105515780601f1061052657610100808354040283529160200191610551565b820191906000526020600020905b81548152906001019060200180831161053457829003601f168201915b5050505050905090565b600061056682611091565b6105a5576040517f08c379a000000000000000000000000000000000000000000000000000000000815260040161059c9061288e565b60405180910390fd5b6004600083815260200190815260200160002060009054906101000a900473ffffffffffffffffffffffffffffffffffffffff169050919050565b60006105eb82610aea565b90508073ffffffffffffffffffffffffffffffffffffffff168373ffffffffffffffffffffffffffffffffffffffff16141561065c576040517f08c379a0000000000000000000000000000000000000000000000000000000008152600401610653906128ce565b60405180910390fd5b8073ffffffffffffffffffffffffffffffffffffffff1661067b6110fd565b73ffffffffffffffffffffffffffffffffffffffff1614806106aa57506106a9816106a46110fd565b610f93565b5b6106e9576040517f08c379a00000000000000000000000000000000000000000000000000000000081526004016106e0906127ae565b60405180910390fd5b6106f38383611105565b505050565b600960149054906101000a900460ff1681565b61071c6107166110fd565b826111be565b61075b576040517f08c379a0000000000000000000000000000000000000000000000000000000008152600401610752906128ee565b60405180910390fd5b61076683838361129c565b505050565b606080600080600190505b6107806007611503565b811161082a573373ffffffffffffffffffffffffffffffffffffffff166107a682610aea565b73ffffffffffffffffffffffffffffffffffffffff16141561081757808383815181106107fc577f4e487b7100000000000000000000000000000000000000000000000000000000600052603260045260246000fd5b602002602001018181525050818061081390612c25565b9250505b808061082290612c25565b915050610776565b50819250505090565b600080600181111561086e577f4e487b7100000000000000000000000000000000000000000000000000000000600052602160045260246000fd5b600960149054906101000a900460ff1660018111156108b6577f4e487b7100000000000000000000000000000000000000000000000000000000600052602160045260246000fd5b146108f6576040517f08c379a00000000000000000000000000000000000000000000000000000000081526004016108ed9061282e565b60405180910390fd5b600860009054906101000a900473ffffffffffffffffffffffffffffffffffffffff1673ffffffffffffffffffffffffffffffffffffffff163273ffffffffffffffffffffffffffffffffffffffff1614610986576040517f08c379a000000000000000000000000000000000000000000000000000000000815260040161097d9061276e565b60405180910390fd5b600073ffffffffffffffffffffffffffffffffffffffff16600960009054906101000a900473ffffffffffffffffffffffffffffffffffffffff1673ffffffffffffffffffffffffffffffffffffffff161415610a18576040517f08c379a0000000000000000000000000000000000000000000000000000000008152600401610a0f9061270e565b60405180910390fd5b610a226007611511565b6000610a2e6007611503565b9050610a5c600960009054906101000a900473ffffffffffffffffffffffffffffffffffffffff1682611527565b610a668184611701565b6001600960146101000a81548160ff02191690836001811115610ab2577f4e487b7100000000000000000000000000000000000000000000000000000000600052602160045260246000fd5b0217905550610ac16000610d48565b80915050919050565b610ae583838360405180602001604052806000815250610ddf565b505050565b6000806002600084815260200190815260200160002060009054906101000a900473ffffffffffffffffffffffffffffffffffffffff169050600073ffffffffffffffffffffffffffffffffffffffff168173ffffffffffffffffffffffffffffffffffffffff161415610b93576040517f08c379a0000000000000000000000000000000000000000000000000000000008152600401610b8a906127ee565b60405180910390fd5b80915050919050565b600960009054906101000a900473ffffffffffffffffffffffffffffffffffffffff1681565b60008073ffffffffffffffffffffffffffffffffffffffff168273ffffffffffffffffffffffffffffffffffffffff161415610c33576040517f08c379a0000000000000000000000000000000000000000000000000000000008152600401610c2a906127ce565b60405180910390fd5b600360008373ffffffffffffffffffffffffffffffffffffffff1673ffffffffffffffffffffffffffffffffffffffff168152602001908152602001600020549050919050565b600860009054906101000a900473ffffffffffffffffffffffffffffffffffffffff1681565b606060018054610caf90612bc2565b80601f0160208091040260200160405190810160405280929190818152602001828054610cdb90612bc2565b8015610d285780601f10610cfd57610100808354040283529160200191610d28565b820191906000526020600020905b815481529060010190602001808311610d0b57829003601f168201915b5050505050905090565b610d44610d3d6110fd565b8383611775565b5050565b80600960006101000a81548173ffffffffffffffffffffffffffffffffffffffff021916908373ffffffffffffffffffffffffffffffffffffffff16021790555050565b6000600960146101000a81548160ff02191690836001811115610dd8577f4e487b7100000000000000000000000000000000000000000000000000000000600052602160045260246000fd5b0217905550565b610df0610dea6110fd565b836111be565b610e2f576040517f08c379a0000000000000000000000000000000000000000000000000000000008152600401610e26906128ee565b60405180910390fd5b610e3b848484846118e2565b50505050565b6060610e4c82611091565b610e8b576040517f08c379a0000000000000000000000000000000000000000000000000000000008152600401610e829061286e565b60405180910390fd5b6000600660008481526020019081526020016000208054610eab90612bc2565b80601f0160208091040260200160405190810160405280929190818152602001828054610ed790612bc2565b8015610f245780601f10610ef957610100808354040283529160200191610f24565b820191906000526020600020905b815481529060010190602001808311610f0757829003601f168201915b505050505090506000610f3561193e565b9050600081511415610f4b578192505050610f8e565b600082511115610f80578082604051602001610f689291906125a9565b60405160208183030381529060405292505050610f8e565b610f8984611955565b925050505b919050565b6000600560008473ffffffffffffffffffffffffffffffffffffffff1673ffffffffffffffffffffffffffffffffffffffff16815260200190815260200160002060008373ffffffffffffffffffffffffffffffffffffffff1673ffffffffffffffffffffffffffffffffffffffff16815260200190815260200160002060009054906101000a900460ff16905092915050565b60007f01ffc9a7000000000000000000000000000000000000000000000000000000007bffffffffffffffffffffffffffffffffffffffffffffffffffffffff1916827bffffffffffffffffffffffffffffffffffffffffffffffffffffffff1916149050919050565b60008073ffffffffffffffffffffffffffffffffffffffff166002600084815260200190815260200160002060009054906101000a900473ffffffffffffffffffffffffffffffffffffffff1673ffffffffffffffffffffffffffffffffffffffff1614159050919050565b600033905090565b816004600083815260200190815260200160002060006101000a81548173ffffffffffffffffffffffffffffffffffffffff021916908373ffffffffffffffffffffffffffffffffffffffff160217905550808273ffffffffffffffffffffffffffffffffffffffff1661117883610aea565b73ffffffffffffffffffffffffffffffffffffffff167f8c5be1e5ebec7d5bd14f71427d1e84f3dd0314c0f7b2291e5b200ac8c7c3b92560405160405180910390a45050565b60006111c982611091565b611208576040517f08c379a00000000000000000000000000000000000000000000000000000000081526004016111ff9061278e565b60405180910390fd5b600061121383610aea565b90508073ffffffffffffffffffffffffffffffffffffffff168473ffffffffffffffffffffffffffffffffffffffff16148061128257508373ffffffffffffffffffffffffffffffffffffffff1661126a8461055b565b73ffffffffffffffffffffffffffffffffffffffff16145b8061129357506112928185610f93565b5b91505092915050565b8273ffffffffffffffffffffffffffffffffffffffff166112bc82610aea565b73ffffffffffffffffffffffffffffffffffffffff1614611312576040517f08c379a0000000000000000000000000000000000000000000000000000000008152600401611309906126ce565b60405180910390fd5b600073ffffffffffffffffffffffffffffffffffffffff168273ffffffffffffffffffffffffffffffffffffffff161415611382576040517f08c379a00000000000000000000000000000000000000000000000000000000081526004016113799061272e565b60405180910390fd5b61138d8383836119fc565b611398600082611105565b6001600360008573ffffffffffffffffffffffffffffffffffffffff1673ffffffffffffffffffffffffffffffffffffffff16815260200190815260200160002060008282546113e89190612ab3565b925050819055506001600360008473ffffffffffffffffffffffffffffffffffffffff1673ffffffffffffffffffffffffffffffffffffffff168152602001908152602001600020600082825461143f9190612a2c565b92505081905550816002600083815260200190815260200160002060006101000a81548173ffffffffffffffffffffffffffffffffffffffff021916908373ffffffffffffffffffffffffffffffffffffffff160217905550808273ffffffffffffffffffffffffffffffffffffffff168473ffffffffffffffffffffffffffffffffffffffff167fddf252ad1be2c89b69c2b068fc378daa952ba7f163c4a11628f55a4df523b3ef60405160405180910390a46114fe838383611a01565b505050565b600081600001549050919050565b6001816000016000828254019250508190555050565b600073ffffffffffffffffffffffffffffffffffffffff168273ffffffffffffffffffffffffffffffffffffffff161415611597576040517f08c379a000000000000000000000000000000000000000000000000000000000815260040161158e9061284e565b60405180910390fd5b6115a081611091565b156115e0576040517f08c379a00000000000000000000000000000000000000000000000000000000081526004016115d7906126ee565b60405180910390fd5b6115ec600083836119fc565b6001600360008473ffffffffffffffffffffffffffffffffffffffff1673ffffffffffffffffffffffffffffffffffffffff168152602001908152602001600020600082825461163c9190612a2c565b92505081905550816002600083815260200190815260200160002060006101000a81548173ffffffffffffffffffffffffffffffffffffffff021916908373ffffffffffffffffffffffffffffffffffffffff160217905550808273ffffffffffffffffffffffffffffffffffffffff16600073ffffffffffffffffffffffffffffffffffffffff167fddf252ad1be2c89b69c2b068fc378daa952ba7f163c4a11628f55a4df523b3ef60405160405180910390a46116fd60008383611a01565b5050565b61170a82611091565b611749576040517f08c379a00000000000000000000000000000000000000000000000000000000081526004016117409061280e565b60405180910390fd5b80600660008481526020019081526020016000209080519060200190611770929190611d6d565b505050565b8173ffffffffffffffffffffffffffffffffffffffff168373ffffffffffffffffffffffffffffffffffffffff1614156117e4576040517f08c379a00000000000000000000000000000000000000000000000000000000081526004016117db9061274e565b60405180910390fd5b80600560008573ffffffffffffffffffffffffffffffffffffffff1673ffffffffffffffffffffffffffffffffffffffff16815260200190815260200160002060008473ffffffffffffffffffffffffffffffffffffffff1673ffffffffffffffffffffffffffffffffffffffff16815260200190815260200160002060006101000a81548160ff0219169083151502179055508173ffffffffffffffffffffffffffffffffffffffff168373ffffffffffffffffffffffffffffffffffffffff167f17307eab39ab6107e8899845ad3d59bd9653f200f220920489ca2b5937696c31836040516118d59190612656565b60405180910390a3505050565b6118ed84848461129c565b6118f984848484611a06565b611938576040517f08c379a000000000000000000000000000000000000000000000000000000000815260040161192f906126ae565b60405180910390fd5b50505050565b606060405180602001604052806000815250905090565b606061196082611091565b61199f576040517f08c379a0000000000000000000000000000000000000000000000000000000008152600401611996906128ae565b60405180910390fd5b60006119a961193e565b905060008151116119c957604051806020016040528060008152506119f4565b806119d384611b9d565b6040516020016119e49291906125a9565b6040516020818303038152906040525b915050919050565b505050565b505050565b6000611a278473ffffffffffffffffffffffffffffffffffffffff16611d4a565b15611b90578373ffffffffffffffffffffffffffffffffffffffff1663150b7a02611a506110fd565b8786866040518563ffffffff1660e01b8152600401611a7294939291906125e8565b602060405180830381600087803b158015611a8c57600080fd5b505af1925050508015611abd57506040513d601f19601f82011682018060405250810190611aba9190612119565b60015b611b40573d8060008114611aed576040519150601f19603f3d011682016040523d82523d6000602084013e611af2565b606091505b50600081511415611b38576040517f08c379a0000000000000000000000000000000000000000000000000000000008152600401611b2f906126ae565b60405180910390fd5b805181602001fd5b63150b7a0260e01b7bffffffffffffffffffffffffffffffffffffffffffffffffffffffff1916817bffffffffffffffffffffffffffffffffffffffffffffffffffffffff191614915050611b95565b600190505b949350505050565b60606000821415611be5576040518060400160405280600181526020017f30000000000000000000000000000000000000000000000000000000000000008152509050611d45565b600082905060005b60008214611c17578080611c0090612c25565b915050600a82611c109190612a82565b9150611bed565b60008167ffffffffffffffff811115611c59577f4e487b7100000000000000000000000000000000000000000000000000000000600052604160045260246000fd5b6040519080825280601f01601f191660200182016040528015611c8b5781602001600182028036833780820191505090505b5090505b60008514611d3e57600182611ca49190612ab3565b9150600a85611cb39190612c6e565b6030611cbf9190612a2c565b60f81b818381518110611cfb577f4e487b7100000000000000000000000000000000000000000000000000000000600052603260045260246000fd5b60200101907effffffffffffffffffffffffffffffffffffffffffffffffffffffffffffff1916908160001a905350600a85611d379190612a82565b9450611c8f565b8093505050505b919050565b6000808273ffffffffffffffffffffffffffffffffffffffff163b119050919050565b828054611d7990612bc2565b90600052602060002090601f016020900481019282611d9b5760008555611de2565b82601f10611db457805160ff1916838001178555611de2565b82800160010185558215611de2579182015b82811115611de1578251825591602001919060010190611dc6565b5b509050611def9190611df3565b5090565b5b80821115611e0c576000816000905550600101611df4565b5090565b6000611e23611e1e8461294e565b612929565b905082815260208101848484011115611e3b57600080fd5b611e46848285612b80565b509392505050565b6000611e61611e5c8461297f565b612929565b905082815260208101848484011115611e7957600080fd5b611e84848285612b80565b509392505050565b600081359050611e9b816132ce565b92915050565b600081359050611eb0816132e5565b92915050565b600081359050611ec5816132fc565b92915050565b600081519050611eda816132fc565b92915050565b600082601f830112611ef157600080fd5b8135611f01848260208601611e10565b91505092915050565b600082601f830112611f1b57600080fd5b8135611f2b848260208601611e4e565b91505092915050565b600081359050611f4381613313565b92915050565b600060208284031215611f5b57600080fd5b6000611f6984828501611e8c565b91505092915050565b60008060408385031215611f8557600080fd5b6000611f9385828601611e8c565b9250506020611fa485828601611e8c565b9150509250929050565b600080600060608486031215611fc357600080fd5b6000611fd186828701611e8c565b9350506020611fe286828701611e8c565b9250506040611ff386828701611f34565b9150509250925092565b6000806000806080858703121561201357600080fd5b600061202187828801611e8c565b945050602061203287828801611e8c565b935050604061204387828801611f34565b925050606085013567ffffffffffffffff81111561206057600080fd5b61206c87828801611ee0565b91505092959194509250565b6000806040838503121561208b57600080fd5b600061209985828601611e8c565b92505060206120aa85828601611ea1565b9150509250929050565b600080604083850312156120c757600080fd5b60006120d585828601611e8c565b92505060206120e685828601611f34565b9150509250929050565b60006020828403121561210257600080fd5b600061211084828501611eb6565b91505092915050565b60006020828403121561212b57600080fd5b600061213984828501611ecb565b91505092915050565b60006020828403121561215457600080fd5b600082013567ffffffffffffffff81111561216e57600080fd5b61217a84828501611f0a565b91505092915050565b60006020828403121561219557600080fd5b60006121a384828501611f34565b91505092915050565b60006121b8838361258b565b60208301905092915050565b6121cd81612ae7565b82525050565b60006121de826129c0565b6121e881856129ee565b93506121f3836129b0565b8060005b8381101561222457815161220b88826121ac565b9750612216836129e1565b9250506001810190506121f7565b5085935050505092915050565b61223a81612af9565b82525050565b600061224b826129cb565b61225581856129ff565b9350612265818560208601612b8f565b61226e81612d8a565b840191505092915050565b61228281612b6e565b82525050565b6000612293826129d6565b61229d8185612a10565b93506122ad818560208601612b8f565b6122b681612d8a565b840191505092915050565b60006122cc826129d6565b6122d68185612a21565b93506122e6818560208601612b8f565b80840191505092915050565b60006122ff603283612a10565b915061230a82612d9b565b604082019050919050565b6000612322602583612a10565b915061232d82612dea565b604082019050919050565b6000612345601c83612a10565b915061235082612e39565b602082019050919050565b6000612368601883612a10565b915061237382612e62565b602082019050919050565b600061238b602483612a10565b915061239682612e8b565b604082019050919050565b60006123ae601983612a10565b91506123b982612eda565b602082019050919050565b60006123d1600983612a10565b91506123dc82612f03565b602082019050919050565b60006123f4602c83612a10565b91506123ff82612f2c565b604082019050919050565b6000612417603883612a10565b915061242282612f7b565b604082019050919050565b600061243a602a83612a10565b915061244582612fca565b604082019050919050565b600061245d602983612a10565b915061246882613019565b604082019050919050565b6000612480602e83612a10565b915061248b82613068565b604082019050919050565b60006124a3602283612a10565b91506124ae826130b7565b604082019050919050565b60006124c6602083612a10565b91506124d182613106565b602082019050919050565b60006124e9603183612a10565b91506124f48261312f565b604082019050919050565b600061250c602c83612a10565b91506125178261317e565b604082019050919050565b600061252f602f83612a10565b915061253a826131cd565b604082019050919050565b6000612552602183612a10565b915061255d8261321c565b604082019050919050565b6000612575603183612a10565b91506125808261326b565b604082019050919050565b61259481612b64565b82525050565b6125a381612b64565b82525050565b60006125b582856122c1565b91506125c182846122c1565b91508190509392505050565b60006020820190506125e260008301846121c4565b92915050565b60006080820190506125fd60008301876121c4565b61260a60208301866121c4565b612617604083018561259a565b81810360608301526126298184612240565b905095945050505050565b6000602082019050818103600083015261264e81846121d3565b905092915050565b600060208201905061266b6000830184612231565b92915050565b60006020820190506126866000830184612279565b92915050565b600060208201905081810360008301526126a68184612288565b905092915050565b600060208201905081810360008301526126c7816122f2565b9050919050565b600060208201905081810360008301526126e781612315565b9050919050565b6000602082019050818103600083015261270781612338565b9050919050565b600060208201905081810360008301526127278161235b565b9050919050565b600060208201905081810360008301526127478161237e565b9050919050565b60006020820190508181036000830152612767816123a1565b9050919050565b60006020820190508181036000830152612787816123c4565b9050919050565b600060208201905081810360008301526127a7816123e7565b9050919050565b600060208201905081810360008301526127c78161240a565b9050919050565b600060208201905081810360008301526127e78161242d565b9050919050565b6000602082019050818103600083015261280781612450565b9050919050565b6000602082019050818103600083015261282781612473565b9050919050565b6000602082019050818103600083015261284781612496565b9050919050565b60006020820190508181036000830152612867816124b9565b9050919050565b60006020820190508181036000830152612887816124dc565b9050919050565b600060208201905081810360008301526128a7816124ff565b9050919050565b600060208201905081810360008301526128c781612522565b9050919050565b600060208201905081810360008301526128e781612545565b9050919050565b6000602082019050818103600083015261290781612568565b9050919050565b6000602082019050612923600083018461259a565b92915050565b6000612933612944565b905061293f8282612bf4565b919050565b6000604051905090565b600067ffffffffffffffff82111561296957612968612d5b565b5b61297282612d8a565b9050602081019050919050565b600067ffffffffffffffff82111561299a57612999612d5b565b5b6129a382612d8a565b9050602081019050919050565b6000819050602082019050919050565b600081519050919050565b600081519050919050565b600081519050919050565b6000602082019050919050565b600082825260208201905092915050565b600082825260208201905092915050565b600082825260208201905092915050565b600081905092915050565b6000612a3782612b64565b9150612a4283612b64565b9250827fffffffffffffffffffffffffffffffffffffffffffffffffffffffffffffffff03821115612a7757612a76612c9f565b5b828201905092915050565b6000612a8d82612b64565b9150612a9883612b64565b925082612aa857612aa7612cce565b5b828204905092915050565b6000612abe82612b64565b9150612ac983612b64565b925082821015612adc57612adb612c9f565b5b828203905092915050565b6000612af282612b44565b9050919050565b60008115159050919050565b60007fffffffff0000000000000000000000000000000000000000000000000000000082169050919050565b6000819050612b3f826132ba565b919050565b600073ffffffffffffffffffffffffffffffffffffffff82169050919050565b6000819050919050565b6000612b7982612b31565b9050919050565b82818337600083830152505050565b60005b83811015612bad578082015181840152602081019050612b92565b83811115612bbc576000848401525b50505050565b60006002820490506001821680612bda57607f821691505b60208210811415612bee57612bed612d2c565b5b50919050565b612bfd82612d8a565b810181811067ffffffffffffffff82111715612c1c57612c1b612d5b565b5b80604052505050565b6000612c3082612b64565b91507fffffffffffffffffffffffffffffffffffffffffffffffffffffffffffffffff821415612c6357612c62612c9f565b5b600182019050919050565b6000612c7982612b64565b9150612c8483612b64565b925082612c9457612c93612cce565b5b828206905092915050565b7f4e487b7100000000000000000000000000000000000000000000000000000000600052601160045260246000fd5b7f4e487b7100000000000000000000000000000000000000000000000000000000600052601260045260246000fd5b7f4e487b7100000000000000000000000000000000000000000000000000000000600052602160045260246000fd5b7f4e487b7100000000000000000000000000000000000000000000000000000000600052602260045260246000fd5b7f4e487b7100000000000000000000000000000000000000000000000000000000600052604160045260246000fd5b6000601f19601f8301169050919050565b7f4552433732313a207472616e7366657220746f206e6f6e20455243373231526560008201527f63656976657220696d706c656d656e7465720000000000000000000000000000602082015250565b7f4552433732313a207472616e736665722066726f6d20696e636f72726563742060008201527f6f776e6572000000000000000000000000000000000000000000000000000000602082015250565b7f4552433732313a20746f6b656e20616c7265616479206d696e74656400000000600082015250565b7f41776172642041646472657373206e6f74206578697374210000000000000000600082015250565b7f4552433732313a207472616e7366657220746f20746865207a65726f2061646460008201527f7265737300000000000000000000000000000000000000000000000000000000602082015250565b7f4552433732313a20617070726f766520746f2063616c6c657200000000000000600082015250565b7f4e6f74204f776e65720000000000000000000000000000000000000000000000600082015250565b7f4552433732313a206f70657261746f7220717565727920666f72206e6f6e657860008201527f697374656e7420746f6b656e0000000000000000000000000000000000000000602082015250565b7f4552433732313a20617070726f76652063616c6c6572206973206e6f74206f7760008201527f6e6572206e6f7220617070726f76656420666f7220616c6c0000000000000000602082015250565b7f4552433732313a2062616c616e636520717565727920666f7220746865207a6560008201527f726f206164647265737300000000000000000000000000000000000000000000602082015250565b7f4552433732313a206f776e657220717565727920666f72206e6f6e657869737460008201527f656e7420746f6b656e0000000000000000000000000000000000000000000000602082015250565b7f45524337323155524953746f726167653a2055524920736574206f66206e6f6e60008201527f6578697374656e7420746f6b656e000000000000000000000000000000000000602082015250565b7f556e61626c6520746f206d696e742073696e6365204e465420697320636c6f7360008201527f6564000000000000000000000000000000000000000000000000000000000000602082015250565b7f4552433732313a206d696e7420746f20746865207a65726f2061646472657373600082015250565b7f45524337323155524953746f726167653a2055524920717565727920666f722060008201527f6e6f6e6578697374656e7420746f6b656e000000000000000000000000000000602082015250565b7f4552433732313a20617070726f76656420717565727920666f72206e6f6e657860008201527f697374656e7420746f6b656e0000000000000000000000000000000000000000602082015250565b7f4552433732314d657461646174613a2055524920717565727920666f72206e6f60008201527f6e6578697374656e7420746f6b656e0000000000000000000000000000000000602082015250565b7f4552433732313a20617070726f76616c20746f2063757272656e74206f776e6560008201527f7200000000000000000000000000000000000000000000000000000000000000602082015250565b7f4552433732313a207472616e736665722063616c6c6572206973206e6f74206f60008201527f776e6572206e6f7220617070726f766564000000000000000000000000000000602082015250565b600281106132cb576132ca612cfd565b5b50565b6132d781612ae7565b81146132e257600080fd5b50565b6132ee81612af9565b81146132f957600080fd5b50565b61330581612b05565b811461331057600080fd5b50565b61331c81612b64565b811461332757600080fd5b5056fea264697066735822122049753e3f53b51fc9994eb8e52e49bcaa3794dc745b3b1e1143a6b9f30f30dc4364736f6c63430008010033",
  "linkReferences": {},
  "deployedLinkReferences": {}
}