{
  "_format": "hh-sol-artifact-1",
  "contractName": "RiceNFT",
  "sourceName": "contracts/nft/RiceNFT.sol",
  "abi": [
    {
      "inputs": [],
      "stateMutability": "nonpayable",
      "type": "constructor"
    },
    {
      "anonymous": false,
      "inputs": [
        {
          "indexed": true,
          "internalType": "address",
          "name": "owner",
          "type": "address"
        },
        {
          "indexed": true,
          "internalType": "address",
          "name": "approved",
          "type": "address"
        },
        {
          "indexed": true,
          "internalType": "uint256",
          "name": "tokenId",
          "type": "uint256"
        }
      ],
      "name": "Approval",
      "type": "event"
    },
    {
      "anonymous": false,
      "inputs": [
        {
          "indexed": true,
          "internalType": "address",
          "name": "owner",
          "type": "address"
        },
        {
          "indexed": true,
          "internalType": "address",
          "name": "operator",
          "type": "address"
        },
        {
          "indexed": false,
          "internalType": "bool",
          "name": "approved",
          "type": "bool"
        }
      ],
      "name": "ApprovalForAll",
      "type": "event"
    },
    {
      "anonymous": false,
      "inputs": [
        {
          "indexed": true,
          "internalType": "address",
          "name": "from",
          "type": "address"
        },
        {
          "indexed": true,
          "internalType": "address",
          "name": "to",
          "type": "address"
        },
        {
          "indexed": true,
          "internalType": "uint256",
          "name": "tokenId",
          "type": "uint256"
        }
      ],
      "name": "Transfer",
      "type": "event"
    },
    {
      "inputs": [
        {
          "internalType": "address",
          "name": "to",
          "type": "address"
        },
        {
          "internalType": "uint256",
          "name": "tokenId",
          "type": "uint256"
        }
      ],
      "name": "approve",
      "outputs": [],
      "stateMutability": "nonpayable",
      "type": "function"
    },
    {
      "inputs": [
        {
          "internalType": "string",
          "name": "tokenURI",
          "type": "string"
        }
      ],
      "name": "award",
      "outputs": [
        {
          "internalType": "uint256",
          "name": "",
          "type": "uint256"
        }
      ],
      "stateMutability": "nonpayable",
      "type": "function"
    },
    {
      "inputs": [
        {
          "internalType": "address",
          "name": "owner",
          "type": "address"
        }
      ],
      "name": "balanceOf",
      "outputs": [
        {
          "internalType": "uint256",
          "name": "",
          "type": "uint256"
        }
      ],
      "stateMutability": "view",
      "type": "function"
    },
    {
      "inputs": [
        {
          "internalType": "uint256",
          "name": "tokenId",
          "type": "uint256"
        }
      ],
      "name": "getApproved",
      "outputs": [
        {
          "internalType": "address",
          "name": "",
          "type": "address"
        }
      ],
      "stateMutability": "view",
      "type": "function"
    },
    {
      "inputs": [
        {
          "internalType": "address",
          "name": "x",
          "type": "address"
        }
      ],
      "name": "getInventory",
      "outputs": [
        {
          "internalType": "uint256[]",
          "name": "",
          "type": "uint256[]"
        }
      ],
      "stateMutability": "view",
      "type": "function"
    },
    {
      "inputs": [],
      "name": "handleNFT",
      "outputs": [
        {
          "internalType": "uint256[]",
          "name": "list",
          "type": "uint256[]"
        }
      ],
      "stateMutability": "nonpayable",
      "type": "function"
    },
    {
      "inputs": [
        {
          "internalType": "address",
          "name": "",
          "type": "address"
        },
        {
          "internalType": "uint256",
          "name": "",
          "type": "uint256"
        }
      ],
      "name": "inventory",
      "outputs": [
        {
          "internalType": "uint256",
          "name": "",
          "type": "uint256"
        }
      ],
      "stateMutability": "view",
      "type": "function"
    },
    {
      "inputs": [
        {
          "internalType": "address",
          "name": "owner",
          "type": "address"
        },
        {
          "internalType": "address",
          "name": "operator",
          "type": "address"
        }
      ],
      "name": "isApprovedForAll",
      "outputs": [
        {
          "internalType": "bool",
          "name": "",
          "type": "bool"
        }
      ],
      "stateMutability": "view",
      "type": "function"
    },
    {
      "inputs": [],
      "name": "name",
      "outputs": [
        {
          "internalType": "string",
          "name": "",
          "type": "string"
        }
      ],
      "stateMutability": "view",
      "type": "function"
    },
    {
      "inputs": [],
      "name": "openNFT",
      "outputs": [],
      "stateMutability": "nonpayable",
      "type": "function"
    },
    {
      "inputs": [],
      "name": "owner",
      "outputs": [
        {
          "internalType": "address",
          "name": "",
          "type": "address"
        }
      ],
      "stateMutability": "view",
      "type": "function"
    },
    {
      "inputs": [
        {
          "internalType": "uint256",
          "name": "tokenId",
          "type": "uint256"
        }
      ],
      "name": "ownerOf",
      "outputs": [
        {
          "internalType": "address",
          "name": "",
          "type": "address"
        }
      ],
      "stateMutability": "view",
      "type": "function"
    },
    {
      "inputs": [],
      "name": "recentAward",
      "outputs": [
        {
          "internalType": "address",
          "name": "",
          "type": "address"
        }
      ],
      "stateMutability": "view",
      "type": "function"
    },
    {
      "inputs": [
        {
          "internalType": "address",
          "name": "from",
          "type": "address"
        },
        {
          "internalType": "address",
          "name": "to",
          "type": "address"
        },
        {
          "internalType": "uint256",
          "name": "tokenId",
          "type": "uint256"
        }
      ],
      "name": "safeTransferFrom",
      "outputs": [],
      "stateMutability": "nonpayable",
      "type": "function"
    },
    {
      "inputs": [
        {
          "internalType": "address",
          "name": "from",
          "type": "address"
        },
        {
          "internalType": "address",
          "name": "to",
          "type": "address"
        },
        {
          "internalType": "uint256",
          "name": "tokenId",
          "type": "uint256"
        },
        {
          "internalType": "bytes",
          "name": "_data",
          "type": "bytes"
        }
      ],
      "name": "safeTransferFrom",
      "outputs": [],
      "stateMutability": "nonpayable",
      "type": "function"
    },
    {
      "inputs": [
        {
          "internalType": "address",
          "name": "from",
          "type": "address"
        },
        {
          "internalType": "address",
          "name": "to",
          "type": "address"
        },
        {
          "internalType": "uint256",
          "name": "id",
          "type": "uint256"
        }
      ],
      "name": "sendingNFT",
      "outputs": [],
      "stateMutability": "nonpayable",
      "type": "function"
    },
    {
      "inputs": [
        {
          "internalType": "address",
          "name": "operator",
          "type": "address"
        },
        {
          "internalType": "bool",
          "name": "approved",
          "type": "bool"
        }
      ],
      "name": "setApprovalForAll",
      "outputs": [],
      "stateMutability": "nonpayable",
      "type": "function"
    },
    {
      "inputs": [
        {
          "internalType": "address",
          "name": "_award",
          "type": "address"
        }
      ],
      "name": "setAward",
      "outputs": [],
      "stateMutability": "nonpayable",
      "type": "function"
    },
    {
      "inputs": [],
      "name": "status",
      "outputs": [
        {
          "internalType": "enum RiceNFT.State",
          "name": "",
          "type": "uint8"
        }
      ],
      "stateMutability": "view",
      "type": "function"
    },
    {
      "inputs": [
        {
          "internalType": "bytes4",
          "name": "interfaceId",
          "type": "bytes4"
        }
      ],
      "name": "supportsInterface",
      "outputs": [
        {
          "internalType": "bool",
          "name": "",
          "type": "bool"
        }
      ],
      "stateMutability": "view",
      "type": "function"
    },
    {
      "inputs": [],
      "name": "symbol",
      "outputs": [
        {
          "internalType": "string",
          "name": "",
          "type": "string"
        }
      ],
      "stateMutability": "view",
      "type": "function"
    },
    {
      "inputs": [
        {
          "internalType": "uint256",
          "name": "tokenId",
          "type": "uint256"
        }
      ],
      "name": "tokenURI",
      "outputs": [
        {
          "internalType": "string",
          "name": "",
          "type": "string"
        }
      ],
      "stateMutability": "view",
      "type": "function"
    },
    {
      "inputs": [
        {
          "internalType": "address",
          "name": "from",
          "type": "address"
        },
        {
          "internalType": "address",
          "name": "to",
          "type": "address"
        },
        {
          "internalType": "uint256",
          "name": "tokenId",
          "type": "uint256"
        }
      ],
      "name": "transferFrom",
      "outputs": [],
      "stateMutability": "nonpayable",
      "type": "function"
    }
  ],
  "bytecode": "0x60806040523480156200001157600080fd5b506040518060400160405280600781526020017f526963654e4654000000000000000000000000000000000000000000000000008152506040518060400160405280600381526020017f524e4400000000000000000000000000000000000000000000000000000000008152508160009080519060200190620000969291906200014b565b508060019080519060200190620000af9291906200014b565b5050506001600b60006101000a81548160ff02191690836001811115620000ff577f4e487b7100000000000000000000000000000000000000000000000000000000600052602160045260246000fd5b021790555033600860006101000a81548173ffffffffffffffffffffffffffffffffffffffff021916908373ffffffffffffffffffffffffffffffffffffffff16021790555062000260565b8280546200015990620001fb565b90600052602060002090601f0160209004810192826200017d5760008555620001c9565b82601f106200019857805160ff1916838001178555620001c9565b82800160010185558215620001c9579182015b82811115620001c8578251825591602001919060010190620001ab565b5b509050620001d89190620001dc565b5090565b5b80821115620001f7576000816000905550600101620001dd565b5090565b600060028204905060018216806200021457607f821691505b602082108114156200022b576200022a62000231565b5b50919050565b7f4e487b7100000000000000000000000000000000000000000000000000000000600052602260045260246000fd5b61389180620002706000396000f3fe608060405234801561001057600080fd5b506004361061014d5760003560e01c80636fde4b02116100c3578063a6b332ba1161007c578063a6b332ba146103c6578063a7e0c578146103e2578063b88d4fde146103ec578063c87b56dd14610408578063cdc6344214610438578063e985e9c5146104545761014d565b80636fde4b02146102f057806370a082311461030e5780638b87c5441461033e5780638da5cb5b1461036e57806395d89b411461038c578063a22cb465146103aa5761014d565b806323b872dd1161011557806323b872dd1461020a57806330953a8f1461022657806341c3b8a51461024457806342842e0e146102745780636352211e1461029057806368f222fd146102c05761014d565b806301ffc9a71461015257806306fdde0314610182578063081812fc146101a0578063095ea7b3146101d0578063200d2ed2146101ec575b600080fd5b61016c60048036038101906101679190612621565b610484565b6040516101799190612b87565b60405180910390f35b61018a610566565b6040516101979190612bbd565b60405180910390f35b6101ba60048036038101906101b591906126b4565b6105f8565b6040516101c79190612afe565b60405180910390f35b6101ea60048036038101906101e591906125e5565b61067d565b005b6101f4610795565b6040516102019190612ba2565b60405180910390f35b610224600480360381019061021f91906124df565b6107a8565b005b61022e610808565b60405161023b9190612b65565b60405180910390f35b61025e60048036038101906102599190612673565b6108d0565b60405161026b9190612e3f565b60405180910390f35b61028e600480360381019061028991906124df565b610bef565b005b6102aa60048036038101906102a591906126b4565b610c0f565b6040516102b79190612afe565b60405180910390f35b6102da60048036038101906102d591906125e5565b610cc1565b6040516102e79190612e3f565b60405180910390f35b6102f8610cf2565b6040516103059190612afe565b60405180910390f35b6103286004803603810190610323919061247a565b610d18565b6040516103359190612e3f565b60405180910390f35b6103586004803603810190610353919061247a565b610dd0565b6040516103659190612b65565b60405180910390f35b610376610e67565b6040516103839190612afe565b60405180910390f35b610394610e8d565b6040516103a19190612bbd565b60405180910390f35b6103c460048036038101906103bf91906125a9565b610f1f565b005b6103e060048036038101906103db919061247a565b610f35565b005b6103ea610f79565b005b6104066004803603810190610401919061252e565b610fcc565b005b610422600480360381019061041d91906126b4565b61102e565b60405161042f9190612bbd565b60405180910390f35b610452600480360381019061044d91906124df565b611180565b005b61046e600480360381019061046991906124a3565b6114c4565b60405161047b9190612b87565b60405180910390f35b60007f80ac58cd000000000000000000000000000000000000000000000000000000007bffffffffffffffffffffffffffffffffffffffffffffffffffffffff1916827bffffffffffffffffffffffffffffffffffffffffffffffffffffffff1916148061054f57507f5b5e139f000000000000000000000000000000000000000000000000000000007bffffffffffffffffffffffffffffffffffffffffffffffffffffffff1916827bffffffffffffffffffffffffffffffffffffffffffffffffffffffff1916145b8061055f575061055e82611558565b5b9050919050565b606060008054610575906130f3565b80601f01602080910402602001604051908101604052809291908181526020018280546105a1906130f3565b80156105ee5780601f106105c3576101008083540402835291602001916105ee565b820191906000526020600020905b8154815290600101906020018083116105d157829003601f168201915b5050505050905090565b6000610603826115c2565b610642576040517f08c379a000000000000000000000000000000000000000000000000000000000815260040161063990612dbf565b60405180910390fd5b6004600083815260200190815260200160002060009054906101000a900473ffffffffffffffffffffffffffffffffffffffff169050919050565b600061068882610c0f565b90508073ffffffffffffffffffffffffffffffffffffffff168373ffffffffffffffffffffffffffffffffffffffff1614156106f9576040517f08c379a00000000000000000000000000000000000000000000000000000000081526004016106f090612dff565b60405180910390fd5b8073ffffffffffffffffffffffffffffffffffffffff1661071861162e565b73ffffffffffffffffffffffffffffffffffffffff16148061074757506107468161074161162e565b6114c4565b5b610786576040517f08c379a000000000000000000000000000000000000000000000000000000000815260040161077d90612cdf565b60405180910390fd5b6107908383611636565b505050565b600b60009054906101000a900460ff1681565b6107b96107b361162e565b826116ef565b6107f8576040517f08c379a00000000000000000000000000000000000000000000000000000000081526004016107ef90612e1f565b60405180910390fd5b6108038383836117cd565b505050565b606080600080600190505b61081d6007611a34565b81116108c7573373ffffffffffffffffffffffffffffffffffffffff1661084382610c0f565b73ffffffffffffffffffffffffffffffffffffffff1614156108b45780838381518110610899577f4e487b7100000000000000000000000000000000000000000000000000000000600052603260045260246000fd5b60200260200101818152505081806108b090613156565b9250505b80806108bf90613156565b915050610813565b50819250505090565b600080600181111561090b577f4e487b7100000000000000000000000000000000000000000000000000000000600052602160045260246000fd5b600b60009054906101000a900460ff166001811115610953577f4e487b7100000000000000000000000000000000000000000000000000000000600052602160045260246000fd5b14610993576040517f08c379a000000000000000000000000000000000000000000000000000000000815260040161098a90612d5f565b60405180910390fd5b600860009054906101000a900473ffffffffffffffffffffffffffffffffffffffff1673ffffffffffffffffffffffffffffffffffffffff163273ffffffffffffffffffffffffffffffffffffffff1614610a23576040517f08c379a0000000000000000000000000000000000000000000000000000000008152600401610a1a90612c9f565b60405180910390fd5b600073ffffffffffffffffffffffffffffffffffffffff16600960009054906101000a900473ffffffffffffffffffffffffffffffffffffffff1673ffffffffffffffffffffffffffffffffffffffff161415610ab5576040517f08c379a0000000000000000000000000000000000000000000000000000000008152600401610aac90612c3f565b60405180910390fd5b610abf6007611a42565b6000610acb6007611a34565b9050610af9600960009054906101000a900473ffffffffffffffffffffffffffffffffffffffff1682611a58565b600a6000600960009054906101000a900473ffffffffffffffffffffffffffffffffffffffff1673ffffffffffffffffffffffffffffffffffffffff1673ffffffffffffffffffffffffffffffffffffffff168152602001908152602001600020819080600181540180825580915050600190039060005260206000200160009091909190915055610b8b8184611c32565b6001600b60006101000a81548160ff02191690836001811115610bd7577f4e487b7100000000000000000000000000000000000000000000000000000000600052602160045260246000fd5b0217905550610be66000610f35565b80915050919050565b610c0a83838360405180602001604052806000815250610fcc565b505050565b6000806002600084815260200190815260200160002060009054906101000a900473ffffffffffffffffffffffffffffffffffffffff169050600073ffffffffffffffffffffffffffffffffffffffff168173ffffffffffffffffffffffffffffffffffffffff161415610cb8576040517f08c379a0000000000000000000000000000000000000000000000000000000008152600401610caf90612d1f565b60405180910390fd5b80915050919050565b600a6020528160005260406000208181548110610cdd57600080fd5b90600052602060002001600091509150505481565b600960009054906101000a900473ffffffffffffffffffffffffffffffffffffffff1681565b60008073ffffffffffffffffffffffffffffffffffffffff168273ffffffffffffffffffffffffffffffffffffffff161415610d89576040517f08c379a0000000000000000000000000000000000000000000000000000000008152600401610d8090612cff565b60405180910390fd5b600360008373ffffffffffffffffffffffffffffffffffffffff1673ffffffffffffffffffffffffffffffffffffffff168152602001908152602001600020549050919050565b6060600a60008373ffffffffffffffffffffffffffffffffffffffff1673ffffffffffffffffffffffffffffffffffffffff168152602001908152602001600020805480602002602001604051908101604052809291908181526020018280548015610e5b57602002820191906000526020600020905b815481526020019060010190808311610e47575b50505050509050919050565b600860009054906101000a900473ffffffffffffffffffffffffffffffffffffffff1681565b606060018054610e9c906130f3565b80601f0160208091040260200160405190810160405280929190818152602001828054610ec8906130f3565b8015610f155780601f10610eea57610100808354040283529160200191610f15565b820191906000526020600020905b815481529060010190602001808311610ef857829003601f168201915b5050505050905090565b610f31610f2a61162e565b8383611ca6565b5050565b80600960006101000a81548173ffffffffffffffffffffffffffffffffffffffff021916908373ffffffffffffffffffffffffffffffffffffffff16021790555050565b6000600b60006101000a81548160ff02191690836001811115610fc5577f4e487b7100000000000000000000000000000000000000000000000000000000600052602160045260246000fd5b0217905550565b610fdd610fd761162e565b836116ef565b61101c576040517f08c379a000000000000000000000000000000000000000000000000000000000815260040161101390612e1f565b60405180910390fd5b61102884848484611e13565b50505050565b6060611039826115c2565b611078576040517f08c379a000000000000000000000000000000000000000000000000000000000815260040161106f90612d9f565b60405180910390fd5b6000600660008481526020019081526020016000208054611098906130f3565b80601f01602080910402602001604051908101604052809291908181526020018280546110c4906130f3565b80156111115780601f106110e657610100808354040283529160200191611111565b820191906000526020600020905b8154815290600101906020018083116110f457829003601f168201915b505050505090506000611122611e6f565b905060008151141561113857819250505061117b565b60008251111561116d578082604051602001611155929190612ada565b6040516020818303038152906040529250505061117b565b61117684611e86565b925050505b919050565b61118b8383836107a8565b60005b600a60008573ffffffffffffffffffffffffffffffffffffffff1673ffffffffffffffffffffffffffffffffffffffff1681526020019081526020016000208054905081116114585781600a60008673ffffffffffffffffffffffffffffffffffffffff1673ffffffffffffffffffffffffffffffffffffffff168152602001908152602001600020828154811061124f577f4e487b7100000000000000000000000000000000000000000000000000000000600052603260045260246000fd5b9060005260206000200154141561144557600a60008573ffffffffffffffffffffffffffffffffffffffff1673ffffffffffffffffffffffffffffffffffffffff1681526020019081526020016000206001600a60008773ffffffffffffffffffffffffffffffffffffffff1673ffffffffffffffffffffffffffffffffffffffff168152602001908152602001600020805490506112ee9190612fe4565b81548110611325577f4e487b7100000000000000000000000000000000000000000000000000000000600052603260045260246000fd5b9060005260206000200154600a60008673ffffffffffffffffffffffffffffffffffffffff1673ffffffffffffffffffffffffffffffffffffffff16815260200190815260200160002082815481106113a7577f4e487b7100000000000000000000000000000000000000000000000000000000600052603260045260246000fd5b9060005260206000200181905550600a60008573ffffffffffffffffffffffffffffffffffffffff1673ffffffffffffffffffffffffffffffffffffffff16815260200190815260200160002080548061142a577f4e487b7100000000000000000000000000000000000000000000000000000000600052603160045260246000fd5b60019003818190600052602060002001600090559055611458565b808061145090613156565b91505061118e565b50600a60008373ffffffffffffffffffffffffffffffffffffffff1673ffffffffffffffffffffffffffffffffffffffff168152602001908152602001600020819080600181540180825580915050600190039060005260206000200160009091909190915055505050565b6000600560008473ffffffffffffffffffffffffffffffffffffffff1673ffffffffffffffffffffffffffffffffffffffff16815260200190815260200160002060008373ffffffffffffffffffffffffffffffffffffffff1673ffffffffffffffffffffffffffffffffffffffff16815260200190815260200160002060009054906101000a900460ff16905092915050565b60007f01ffc9a7000000000000000000000000000000000000000000000000000000007bffffffffffffffffffffffffffffffffffffffffffffffffffffffff1916827bffffffffffffffffffffffffffffffffffffffffffffffffffffffff1916149050919050565b60008073ffffffffffffffffffffffffffffffffffffffff166002600084815260200190815260200160002060009054906101000a900473ffffffffffffffffffffffffffffffffffffffff1673ffffffffffffffffffffffffffffffffffffffff1614159050919050565b600033905090565b816004600083815260200190815260200160002060006101000a81548173ffffffffffffffffffffffffffffffffffffffff021916908373ffffffffffffffffffffffffffffffffffffffff160217905550808273ffffffffffffffffffffffffffffffffffffffff166116a983610c0f565b73ffffffffffffffffffffffffffffffffffffffff167f8c5be1e5ebec7d5bd14f71427d1e84f3dd0314c0f7b2291e5b200ac8c7c3b92560405160405180910390a45050565b60006116fa826115c2565b611739576040517f08c379a000000000000000000000000000000000000000000000000000000000815260040161173090612cbf565b60405180910390fd5b600061174483610c0f565b90508073ffffffffffffffffffffffffffffffffffffffff168473ffffffffffffffffffffffffffffffffffffffff1614806117b357508373ffffffffffffffffffffffffffffffffffffffff1661179b846105f8565b73ffffffffffffffffffffffffffffffffffffffff16145b806117c457506117c381856114c4565b5b91505092915050565b8273ffffffffffffffffffffffffffffffffffffffff166117ed82610c0f565b73ffffffffffffffffffffffffffffffffffffffff1614611843576040517f08c379a000000000000000000000000000000000000000000000000000000000815260040161183a90612bff565b60405180910390fd5b600073ffffffffffffffffffffffffffffffffffffffff168273ffffffffffffffffffffffffffffffffffffffff1614156118b3576040517f08c379a00000000000000000000000000000000000000000000000000000000081526004016118aa90612c5f565b60405180910390fd5b6118be838383611f2d565b6118c9600082611636565b6001600360008573ffffffffffffffffffffffffffffffffffffffff1673ffffffffffffffffffffffffffffffffffffffff16815260200190815260200160002060008282546119199190612fe4565b925050819055506001600360008473ffffffffffffffffffffffffffffffffffffffff1673ffffffffffffffffffffffffffffffffffffffff16815260200190815260200160002060008282546119709190612f5d565b92505081905550816002600083815260200190815260200160002060006101000a81548173ffffffffffffffffffffffffffffffffffffffff021916908373ffffffffffffffffffffffffffffffffffffffff160217905550808273ffffffffffffffffffffffffffffffffffffffff168473ffffffffffffffffffffffffffffffffffffffff167fddf252ad1be2c89b69c2b068fc378daa952ba7f163c4a11628f55a4df523b3ef60405160405180910390a4611a2f838383611f32565b505050565b600081600001549050919050565b6001816000016000828254019250508190555050565b600073ffffffffffffffffffffffffffffffffffffffff168273ffffffffffffffffffffffffffffffffffffffff161415611ac8576040517f08c379a0000000000000000000000000000000000000000000000000000000008152600401611abf90612d7f565b60405180910390fd5b611ad1816115c2565b15611b11576040517f08c379a0000000000000000000000000000000000000000000000000000000008152600401611b0890612c1f565b60405180910390fd5b611b1d60008383611f2d565b6001600360008473ffffffffffffffffffffffffffffffffffffffff1673ffffffffffffffffffffffffffffffffffffffff1681526020019081526020016000206000828254611b6d9190612f5d565b92505081905550816002600083815260200190815260200160002060006101000a81548173ffffffffffffffffffffffffffffffffffffffff021916908373ffffffffffffffffffffffffffffffffffffffff160217905550808273ffffffffffffffffffffffffffffffffffffffff16600073ffffffffffffffffffffffffffffffffffffffff167fddf252ad1be2c89b69c2b068fc378daa952ba7f163c4a11628f55a4df523b3ef60405160405180910390a4611c2e60008383611f32565b5050565b611c3b826115c2565b611c7a576040517f08c379a0000000000000000000000000000000000000000000000000000000008152600401611c7190612d3f565b60405180910390fd5b80600660008481526020019081526020016000209080519060200190611ca192919061229e565b505050565b8173ffffffffffffffffffffffffffffffffffffffff168373ffffffffffffffffffffffffffffffffffffffff161415611d15576040517f08c379a0000000000000000000000000000000000000000000000000000000008152600401611d0c90612c7f565b60405180910390fd5b80600560008573ffffffffffffffffffffffffffffffffffffffff1673ffffffffffffffffffffffffffffffffffffffff16815260200190815260200160002060008473ffffffffffffffffffffffffffffffffffffffff1673ffffffffffffffffffffffffffffffffffffffff16815260200190815260200160002060006101000a81548160ff0219169083151502179055508173ffffffffffffffffffffffffffffffffffffffff168373ffffffffffffffffffffffffffffffffffffffff167f17307eab39ab6107e8899845ad3d59bd9653f200f220920489ca2b5937696c3183604051611e069190612b87565b60405180910390a3505050565b611e1e8484846117cd565b611e2a84848484611f37565b611e69576040517f08c379a0000000000000000000000000000000000000000000000000000000008152600401611e6090612bdf565b60405180910390fd5b50505050565b606060405180602001604052806000815250905090565b6060611e91826115c2565b611ed0576040517f08c379a0000000000000000000000000000000000000000000000000000000008152600401611ec790612ddf565b60405180910390fd5b6000611eda611e6f565b90506000815111611efa5760405180602001604052806000815250611f25565b80611f04846120ce565b604051602001611f15929190612ada565b6040516020818303038152906040525b915050919050565b505050565b505050565b6000611f588473ffffffffffffffffffffffffffffffffffffffff1661227b565b156120c1578373ffffffffffffffffffffffffffffffffffffffff1663150b7a02611f8161162e565b8786866040518563ffffffff1660e01b8152600401611fa39493929190612b19565b602060405180830381600087803b158015611fbd57600080fd5b505af1925050508015611fee57506040513d601f19601f82011682018060405250810190611feb919061264a565b60015b612071573d806000811461201e576040519150601f19603f3d011682016040523d82523d6000602084013e612023565b606091505b50600081511415612069576040517f08c379a000000000000000000000000000000000000000000000000000000000815260040161206090612bdf565b60405180910390fd5b805181602001fd5b63150b7a0260e01b7bffffffffffffffffffffffffffffffffffffffffffffffffffffffff1916817bffffffffffffffffffffffffffffffffffffffffffffffffffffffff1916149150506120c6565b600190505b949350505050565b60606000821415612116576040518060400160405280600181526020017f30000000000000000000000000000000000000000000000000000000000000008152509050612276565b600082905060005b6000821461214857808061213190613156565b915050600a826121419190612fb3565b915061211e565b60008167ffffffffffffffff81111561218a577f4e487b7100000000000000000000000000000000000000000000000000000000600052604160045260246000fd5b6040519080825280601f01601f1916602001820160405280156121bc5781602001600182028036833780820191505090505b5090505b6000851461226f576001826121d59190612fe4565b9150600a856121e4919061319f565b60306121f09190612f5d565b60f81b81838151811061222c577f4e487b7100000000000000000000000000000000000000000000000000000000600052603260045260246000fd5b60200101907effffffffffffffffffffffffffffffffffffffffffffffffffffffffffffff1916908160001a905350600a856122689190612fb3565b94506121c0565b8093505050505b919050565b6000808273ffffffffffffffffffffffffffffffffffffffff163b119050919050565b8280546122aa906130f3565b90600052602060002090601f0160209004810192826122cc5760008555612313565b82601f106122e557805160ff1916838001178555612313565b82800160010185558215612313579182015b828111156123125782518255916020019190600101906122f7565b5b5090506123209190612324565b5090565b5b8082111561233d576000816000905550600101612325565b5090565b600061235461234f84612e7f565b612e5a565b90508281526020810184848401111561236c57600080fd5b6123778482856130b1565b509392505050565b600061239261238d84612eb0565b612e5a565b9050828152602081018484840111156123aa57600080fd5b6123b58482856130b1565b509392505050565b6000813590506123cc816137ff565b92915050565b6000813590506123e181613816565b92915050565b6000813590506123f68161382d565b92915050565b60008151905061240b8161382d565b92915050565b600082601f83011261242257600080fd5b8135612432848260208601612341565b91505092915050565b600082601f83011261244c57600080fd5b813561245c84826020860161237f565b91505092915050565b60008135905061247481613844565b92915050565b60006020828403121561248c57600080fd5b600061249a848285016123bd565b91505092915050565b600080604083850312156124b657600080fd5b60006124c4858286016123bd565b92505060206124d5858286016123bd565b9150509250929050565b6000806000606084860312156124f457600080fd5b6000612502868287016123bd565b9350506020612513868287016123bd565b925050604061252486828701612465565b9150509250925092565b6000806000806080858703121561254457600080fd5b6000612552878288016123bd565b9450506020612563878288016123bd565b935050604061257487828801612465565b925050606085013567ffffffffffffffff81111561259157600080fd5b61259d87828801612411565b91505092959194509250565b600080604083850312156125bc57600080fd5b60006125ca858286016123bd565b92505060206125db858286016123d2565b9150509250929050565b600080604083850312156125f857600080fd5b6000612606858286016123bd565b925050602061261785828601612465565b9150509250929050565b60006020828403121561263357600080fd5b6000612641848285016123e7565b91505092915050565b60006020828403121561265c57600080fd5b600061266a848285016123fc565b91505092915050565b60006020828403121561268557600080fd5b600082013567ffffffffffffffff81111561269f57600080fd5b6126ab8482850161243b565b91505092915050565b6000602082840312156126c657600080fd5b60006126d484828501612465565b91505092915050565b60006126e98383612abc565b60208301905092915050565b6126fe81613018565b82525050565b600061270f82612ef1565b6127198185612f1f565b935061272483612ee1565b8060005b8381101561275557815161273c88826126dd565b975061274783612f12565b925050600181019050612728565b5085935050505092915050565b61276b8161302a565b82525050565b600061277c82612efc565b6127868185612f30565b93506127968185602086016130c0565b61279f816132bb565b840191505092915050565b6127b38161309f565b82525050565b60006127c482612f07565b6127ce8185612f41565b93506127de8185602086016130c0565b6127e7816132bb565b840191505092915050565b60006127fd82612f07565b6128078185612f52565b93506128178185602086016130c0565b80840191505092915050565b6000612830603283612f41565b915061283b826132cc565b604082019050919050565b6000612853602583612f41565b915061285e8261331b565b604082019050919050565b6000612876601c83612f41565b91506128818261336a565b602082019050919050565b6000612899601883612f41565b91506128a482613393565b602082019050919050565b60006128bc602483612f41565b91506128c7826133bc565b604082019050919050565b60006128df601983612f41565b91506128ea8261340b565b602082019050919050565b6000612902600983612f41565b915061290d82613434565b602082019050919050565b6000612925602c83612f41565b91506129308261345d565b604082019050919050565b6000612948603883612f41565b9150612953826134ac565b604082019050919050565b600061296b602a83612f41565b9150612976826134fb565b604082019050919050565b600061298e602983612f41565b91506129998261354a565b604082019050919050565b60006129b1602e83612f41565b91506129bc82613599565b604082019050919050565b60006129d4602283612f41565b91506129df826135e8565b604082019050919050565b60006129f7602083612f41565b9150612a0282613637565b602082019050919050565b6000612a1a603183612f41565b9150612a2582613660565b604082019050919050565b6000612a3d602c83612f41565b9150612a48826136af565b604082019050919050565b6000612a60602f83612f41565b9150612a6b826136fe565b604082019050919050565b6000612a83602183612f41565b9150612a8e8261374d565b604082019050919050565b6000612aa6603183612f41565b9150612ab18261379c565b604082019050919050565b612ac581613095565b82525050565b612ad481613095565b82525050565b6000612ae682856127f2565b9150612af282846127f2565b91508190509392505050565b6000602082019050612b1360008301846126f5565b92915050565b6000608082019050612b2e60008301876126f5565b612b3b60208301866126f5565b612b486040830185612acb565b8181036060830152612b5a8184612771565b905095945050505050565b60006020820190508181036000830152612b7f8184612704565b905092915050565b6000602082019050612b9c6000830184612762565b92915050565b6000602082019050612bb760008301846127aa565b92915050565b60006020820190508181036000830152612bd781846127b9565b905092915050565b60006020820190508181036000830152612bf881612823565b9050919050565b60006020820190508181036000830152612c1881612846565b9050919050565b60006020820190508181036000830152612c3881612869565b9050919050565b60006020820190508181036000830152612c588161288c565b9050919050565b60006020820190508181036000830152612c78816128af565b9050919050565b60006020820190508181036000830152612c98816128d2565b9050919050565b60006020820190508181036000830152612cb8816128f5565b9050919050565b60006020820190508181036000830152612cd881612918565b9050919050565b60006020820190508181036000830152612cf88161293b565b9050919050565b60006020820190508181036000830152612d188161295e565b9050919050565b60006020820190508181036000830152612d3881612981565b9050919050565b60006020820190508181036000830152612d58816129a4565b9050919050565b60006020820190508181036000830152612d78816129c7565b9050919050565b60006020820190508181036000830152612d98816129ea565b9050919050565b60006020820190508181036000830152612db881612a0d565b9050919050565b60006020820190508181036000830152612dd881612a30565b9050919050565b60006020820190508181036000830152612df881612a53565b9050919050565b60006020820190508181036000830152612e1881612a76565b9050919050565b60006020820190508181036000830152612e3881612a99565b9050919050565b6000602082019050612e546000830184612acb565b92915050565b6000612e64612e75565b9050612e708282613125565b919050565b6000604051905090565b600067ffffffffffffffff821115612e9a57612e9961328c565b5b612ea3826132bb565b9050602081019050919050565b600067ffffffffffffffff821115612ecb57612eca61328c565b5b612ed4826132bb565b9050602081019050919050565b6000819050602082019050919050565b600081519050919050565b600081519050919050565b600081519050919050565b6000602082019050919050565b600082825260208201905092915050565b600082825260208201905092915050565b600082825260208201905092915050565b600081905092915050565b6000612f6882613095565b9150612f7383613095565b9250827fffffffffffffffffffffffffffffffffffffffffffffffffffffffffffffffff03821115612fa857612fa76131d0565b5b828201905092915050565b6000612fbe82613095565b9150612fc983613095565b925082612fd957612fd86131ff565b5b828204905092915050565b6000612fef82613095565b9150612ffa83613095565b92508282101561300d5761300c6131d0565b5b828203905092915050565b600061302382613075565b9050919050565b60008115159050919050565b60007fffffffff0000000000000000000000000000000000000000000000000000000082169050919050565b6000819050613070826137eb565b919050565b600073ffffffffffffffffffffffffffffffffffffffff82169050919050565b6000819050919050565b60006130aa82613062565b9050919050565b82818337600083830152505050565b60005b838110156130de5780820151818401526020810190506130c3565b838111156130ed576000848401525b50505050565b6000600282049050600182168061310b57607f821691505b6020821081141561311f5761311e61325d565b5b50919050565b61312e826132bb565b810181811067ffffffffffffffff8211171561314d5761314c61328c565b5b80604052505050565b600061316182613095565b91507fffffffffffffffffffffffffffffffffffffffffffffffffffffffffffffffff821415613194576131936131d0565b5b600182019050919050565b60006131aa82613095565b91506131b583613095565b9250826131c5576131c46131ff565b5b828206905092915050565b7f4e487b7100000000000000000000000000000000000000000000000000000000600052601160045260246000fd5b7f4e487b7100000000000000000000000000000000000000000000000000000000600052601260045260246000fd5b7f4e487b7100000000000000000000000000000000000000000000000000000000600052602160045260246000fd5b7f4e487b7100000000000000000000000000000000000000000000000000000000600052602260045260246000fd5b7f4e487b7100000000000000000000000000000000000000000000000000000000600052604160045260246000fd5b6000601f19601f8301169050919050565b7f4552433732313a207472616e7366657220746f206e6f6e20455243373231526560008201527f63656976657220696d706c656d656e7465720000000000000000000000000000602082015250565b7f4552433732313a207472616e736665722066726f6d20696e636f72726563742060008201527f6f776e6572000000000000000000000000000000000000000000000000000000602082015250565b7f4552433732313a20746f6b656e20616c7265616479206d696e74656400000000600082015250565b7f41776172642041646472657373206e6f74206578697374210000000000000000600082015250565b7f4552433732313a207472616e7366657220746f20746865207a65726f2061646460008201527f7265737300000000000000000000000000000000000000000000000000000000602082015250565b7f4552433732313a20617070726f766520746f2063616c6c657200000000000000600082015250565b7f4e6f74204f776e65720000000000000000000000000000000000000000000000600082015250565b7f4552433732313a206f70657261746f7220717565727920666f72206e6f6e657860008201527f697374656e7420746f6b656e0000000000000000000000000000000000000000602082015250565b7f4552433732313a20617070726f76652063616c6c6572206973206e6f74206f7760008201527f6e6572206e6f7220617070726f76656420666f7220616c6c0000000000000000602082015250565b7f4552433732313a2062616c616e636520717565727920666f7220746865207a6560008201527f726f206164647265737300000000000000000000000000000000000000000000602082015250565b7f4552433732313a206f776e657220717565727920666f72206e6f6e657869737460008201527f656e7420746f6b656e0000000000000000000000000000000000000000000000602082015250565b7f45524337323155524953746f726167653a2055524920736574206f66206e6f6e60008201527f6578697374656e7420746f6b656e000000000000000000000000000000000000602082015250565b7f556e61626c6520746f206d696e742073696e6365204e465420697320636c6f7360008201527f6564000000000000000000000000000000000000000000000000000000000000602082015250565b7f4552433732313a206d696e7420746f20746865207a65726f2061646472657373600082015250565b7f45524337323155524953746f726167653a2055524920717565727920666f722060008201527f6e6f6e6578697374656e7420746f6b656e000000000000000000000000000000602082015250565b7f4552433732313a20617070726f76656420717565727920666f72206e6f6e657860008201527f697374656e7420746f6b656e0000000000000000000000000000000000000000602082015250565b7f4552433732314d657461646174613a2055524920717565727920666f72206e6f60008201527f6e6578697374656e7420746f6b656e0000000000000000000000000000000000602082015250565b7f4552433732313a20617070726f76616c20746f2063757272656e74206f776e6560008201527f7200000000000000000000000000000000000000000000000000000000000000602082015250565b7f4552433732313a207472616e736665722063616c6c6572206973206e6f74206f60008201527f776e6572206e6f7220617070726f766564000000000000000000000000000000602082015250565b600281106137fc576137fb61322e565b5b50565b61380881613018565b811461381357600080fd5b50565b61381f8161302a565b811461382a57600080fd5b50565b61383681613036565b811461384157600080fd5b50565b61384d81613095565b811461385857600080fd5b5056fea2646970667358221220ee8f0833afe011fa9cbc4443d71b64740acb5fad96204f4e6341085f23ab368a64736f6c63430008010033",
  "linkReferences": {},
  "deployedLinkReferences": {}
}