{
  "_format": "hh-sol-artifact-1",
  "contractName": "PoolFactory",
  "sourceName": "contracts/PoolFactory.sol",
  "abi": [
    {
      "inputs": [
        {
          "internalType": "address",
          "name": "_token0",
          "type": "address"
        },
        {
          "internalType": "address",
          "name": "_token1",
          "type": "address"
        },
        {
          "internalType": "uint256",
          "name": "amountToken0",
          "type": "uint256"
        },
        {
          "internalType": "uint256",
          "name": "amountToken1",
          "type": "uint256"
        }
      ],
      "name": "createNewPool",
      "outputs": [],
      "stateMutability": "payable",
      "type": "function"
    },
    {
      "inputs": [
        {
          "internalType": "address",
          "name": "_token0",
          "type": "address"
        },
        {
          "internalType": "address",
          "name": "_token1",
          "type": "address"
        }
      ],
      "name": "getPool",
      "outputs": [
        {
          "internalType": "contract Pool",
          "name": "_pool",
          "type": "address"
        }
      ],
      "stateMutability": "view",
      "type": "function"
    },
    {
      "inputs": [
        {
          "internalType": "address",
          "name": "_token0",
          "type": "address"
        },
        {
          "internalType": "address",
          "name": "_token1",
          "type": "address"
        }
      ],
      "name": "getPoolAddress",
      "outputs": [
        {
          "internalType": "address",
          "name": "_poolAddress",
          "type": "address"
        }
      ],
      "stateMutability": "view",
      "type": "function"
    },
    {
      "inputs": [
        {
          "internalType": "address",
          "name": "_token0",
          "type": "address"
        },
        {
          "internalType": "address",
          "name": "_token1",
          "type": "address"
        }
      ],
      "name": "getTotalAmountInPool",
      "outputs": [
        {
          "internalType": "uint256",
          "name": "amountToken0",
          "type": "uint256"
        },
        {
          "internalType": "uint256",
          "name": "amountToken1",
          "type": "uint256"
        }
      ],
      "stateMutability": "view",
      "type": "function"
    },
    {
      "inputs": [
        {
          "internalType": "address",
          "name": "",
          "type": "address"
        },
        {
          "internalType": "address",
          "name": "",
          "type": "address"
        }
      ],
      "name": "pools",
      "outputs": [
        {
          "internalType": "contract Pool",
          "name": "",
          "type": "address"
        }
      ],
      "stateMutability": "view",
      "type": "function"
    }
  ],
  "bytecode": "0x608060405234801561001057600080fd5b50612ad7806100206000396000f3fe608060405260043610620000505760003560e01c80632d72e32e14620000555780633fa1e0c8146200009a578063531aa03e14620000de578063901754d71462000122578063b65565951462000166575b600080fd5b3480156200006257600080fd5b506200008160048036038101906200007b919062000d69565b62000186565b604051620000919291906200109a565b60405180910390f35b348015620000a757600080fd5b50620000c66004803603810190620000c0919062000d69565b6200068f565b604051620000d5919062000f4e565b60405180910390f35b348015620000eb57600080fd5b506200010a600480360381019062000104919062000d69565b62000735565b60405162000119919062000ff5565b60405180910390f35b3480156200012f57600080fd5b506200014e600480360381019062000148919062000d69565b620007db565b6040516200015d919062000ff5565b60405180910390f35b6200018460048036038101906200017e919062000daa565b6200081d565b005b600080600073ffffffffffffffffffffffffffffffffffffffff166000808673ffffffffffffffffffffffffffffffffffffffff1673ffffffffffffffffffffffffffffffffffffffff16815260200190815260200160002060008573ffffffffffffffffffffffffffffffffffffffff1673ffffffffffffffffffffffffffffffffffffffff16815260200190815260200160002060009054906101000a900473ffffffffffffffffffffffffffffffffffffffff1673ffffffffffffffffffffffffffffffffffffffff16141580620003295750600073ffffffffffffffffffffffffffffffffffffffff166000808573ffffffffffffffffffffffffffffffffffffffff1673ffffffffffffffffffffffffffffffffffffffff16815260200190815260200160002060008673ffffffffffffffffffffffffffffffffffffffff1673ffffffffffffffffffffffffffffffffffffffff16815260200190815260200160002060009054906101000a900473ffffffffffffffffffffffffffffffffffffffff1673ffffffffffffffffffffffffffffffffffffffff1614155b6200036b576040517f08c379a0000000000000000000000000000000000000000000000000000000008152600401620003629062001078565b60405180910390fd5b60008073ffffffffffffffffffffffffffffffffffffffff166000808773ffffffffffffffffffffffffffffffffffffffff1673ffffffffffffffffffffffffffffffffffffffff16815260200190815260200160002060008673ffffffffffffffffffffffffffffffffffffffff1673ffffffffffffffffffffffffffffffffffffffff16815260200190815260200160002060009054906101000a900473ffffffffffffffffffffffffffffffffffffffff1673ffffffffffffffffffffffffffffffffffffffff1614620004e0576000808673ffffffffffffffffffffffffffffffffffffffff1673ffffffffffffffffffffffffffffffffffffffff16815260200190815260200160002060008573ffffffffffffffffffffffffffffffffffffffff1673ffffffffffffffffffffffffffffffffffffffff16815260200190815260200160002060009054906101000a900473ffffffffffffffffffffffffffffffffffffffff1690506200057f565b6000808573ffffffffffffffffffffffffffffffffffffffff1673ffffffffffffffffffffffffffffffffffffffff16815260200190815260200160002060008673ffffffffffffffffffffffffffffffffffffffff1673ffffffffffffffffffffffffffffffffffffffff16815260200190815260200160002060009054906101000a900473ffffffffffffffffffffffffffffffffffffffff1690505b8073ffffffffffffffffffffffffffffffffffffffff166313f5ecee6040518163ffffffff1660e01b815260040160206040518083038186803b158015620005c657600080fd5b505afa158015620005db573d6000803e3d6000fd5b505050506040513d601f19601f8201168201806040525081019062000601919062000e42565b8173ffffffffffffffffffffffffffffffffffffffff1663368e89e76040518163ffffffff1660e01b815260040160206040518083038186803b1580156200064857600080fd5b505afa1580156200065d573d6000803e3d6000fd5b505050506040513d601f19601f8201168201806040525081019062000683919062000e42565b92509250509250929050565b60008060008473ffffffffffffffffffffffffffffffffffffffff1673ffffffffffffffffffffffffffffffffffffffff16815260200190815260200160002060008373ffffffffffffffffffffffffffffffffffffffff1673ffffffffffffffffffffffffffffffffffffffff16815260200190815260200160002060009054906101000a900473ffffffffffffffffffffffffffffffffffffffff16905092915050565b60008060008473ffffffffffffffffffffffffffffffffffffffff1673ffffffffffffffffffffffffffffffffffffffff16815260200190815260200160002060008373ffffffffffffffffffffffffffffffffffffffff1673ffffffffffffffffffffffffffffffffffffffff16815260200190815260200160002060009054906101000a900473ffffffffffffffffffffffffffffffffffffffff16905092915050565b60006020528160005260406000206020528060005260406000206000915091509054906101000a900473ffffffffffffffffffffffffffffffffffffffff1681565b600073ffffffffffffffffffffffffffffffffffffffff166000808673ffffffffffffffffffffffffffffffffffffffff1673ffffffffffffffffffffffffffffffffffffffff16815260200190815260200160002060008573ffffffffffffffffffffffffffffffffffffffff1673ffffffffffffffffffffffffffffffffffffffff16815260200190815260200160002060009054906101000a900473ffffffffffffffffffffffffffffffffffffffff1673ffffffffffffffffffffffffffffffffffffffff16148015620009bc5750600073ffffffffffffffffffffffffffffffffffffffff166000808573ffffffffffffffffffffffffffffffffffffffff1673ffffffffffffffffffffffffffffffffffffffff16815260200190815260200160002060008673ffffffffffffffffffffffffffffffffffffffff1673ffffffffffffffffffffffffffffffffffffffff16815260200190815260200160002060009054906101000a900473ffffffffffffffffffffffffffffffffffffffff1673ffffffffffffffffffffffffffffffffffffffff16145b620009fe576040517f08c379a0000000000000000000000000000000000000000000000000000000008152600401620009f59062001034565b60405180910390fd5b60008211801562000a0f5750600081115b62000a51576040517f08c379a000000000000000000000000000000000000000000000000000000000815260040162000a489062001056565b60405180910390fd5b8273ffffffffffffffffffffffffffffffffffffffff168473ffffffffffffffffffffffffffffffffffffffff16141562000ac3576040517f08c379a000000000000000000000000000000000000000000000000000000000815260040162000aba9062001012565b60405180910390fd5b6000849050600084905060008282868660405162000ae19062000cff565b62000af0949392919062000f6b565b604051809103906000f08015801562000b0d573d6000803e3d6000fd5b5090508673ffffffffffffffffffffffffffffffffffffffff166323b872dd3283886040518463ffffffff1660e01b815260040162000b4f9392919062000fb8565b602060405180830381600087803b15801562000b6a57600080fd5b505af115801562000b7f573d6000803e3d6000fd5b505050506040513d601f19601f8201168201806040525081019062000ba5919062000e16565b508573ffffffffffffffffffffffffffffffffffffffff166323b872dd3283876040518463ffffffff1660e01b815260040162000be59392919062000fb8565b602060405180830381600087803b15801562000c0057600080fd5b505af115801562000c15573d6000803e3d6000fd5b505050506040513d601f19601f8201168201806040525081019062000c3b919062000e16565b50806000808973ffffffffffffffffffffffffffffffffffffffff1673ffffffffffffffffffffffffffffffffffffffff16815260200190815260200160002060008873ffffffffffffffffffffffffffffffffffffffff1673ffffffffffffffffffffffffffffffffffffffff16815260200190815260200160002060006101000a81548173ffffffffffffffffffffffffffffffffffffffff021916908373ffffffffffffffffffffffffffffffffffffffff16021790555050505050505050565b61182b806200127783390190565b60008135905062000d1e8162001228565b92915050565b60008151905062000d358162001242565b92915050565b60008135905062000d4c816200125c565b92915050565b60008151905062000d63816200125c565b92915050565b6000806040838503121562000d7d57600080fd5b600062000d8d8582860162000d0d565b925050602062000da08582860162000d0d565b9150509250929050565b6000806000806080858703121562000dc157600080fd5b600062000dd18782880162000d0d565b945050602062000de48782880162000d0d565b935050604062000df78782880162000d3b565b925050606062000e0a8782880162000d3b565b91505092959194509250565b60006020828403121562000e2957600080fd5b600062000e398482850162000d24565b91505092915050565b60006020828403121562000e5557600080fd5b600062000e658482850162000d52565b91505092915050565b62000e7981620010ec565b82525050565b62000e8a81620010d8565b82525050565b62000e9b8162001136565b82525050565b600062000eb0601c83620010c7565b915062000ebd826200115e565b602082019050919050565b600062000ed7601283620010c7565b915062000ee48262001187565b602082019050919050565b600062000efe602883620010c7565b915062000f0b82620011b0565b604082019050919050565b600062000f25600d83620010c7565b915062000f3282620011ff565b602082019050919050565b62000f48816200112c565b82525050565b600060208201905062000f65600083018462000e7f565b92915050565b600060808201905062000f82600083018762000e6e565b62000f91602083018662000e6e565b62000fa0604083018562000f3d565b62000faf606083018462000f3d565b95945050505050565b600060608201905062000fcf600083018662000e7f565b62000fde602083018562000e7f565b62000fed604083018462000f3d565b949350505050565b60006020820190506200100c600083018462000e90565b92915050565b600060208201905081810360008301526200102d8162000ea1565b9050919050565b600060208201905081810360008301526200104f8162000ec8565b9050919050565b60006020820190508181036000830152620010718162000eef565b9050919050565b60006020820190508181036000830152620010938162000f16565b9050919050565b6000604082019050620010b1600083018562000f3d565b620010c0602083018462000f3d565b9392505050565b600082825260208201905092915050565b6000620010e5826200110c565b9050919050565b6000620010f9826200110c565b9050919050565b60008115159050919050565b600073ffffffffffffffffffffffffffffffffffffffff82169050919050565b6000819050919050565b600062001143826200114a565b9050919050565b600062001157826200110c565b9050919050565b7f4e6f7420616c6c6f772073616d65207061697220746f20706f6f6c2100000000600082015250565b7f506f6f6c20616c72656164792045786973740000000000000000000000000000600082015250565b7f596f75206861766520746f2070757420736f6d6520746f6b656e20746f20737460008201527f61727420706f6f6c000000000000000000000000000000000000000000000000602082015250565b7f4e6f207375636820706f6f6c2100000000000000000000000000000000000000600082015250565b6200123381620010d8565b81146200123f57600080fd5b50565b6200124d8162001100565b81146200125957600080fd5b50565b62001267816200112c565b81146200127357600080fd5b5056fe60806040523480156200001157600080fd5b506040516200182b3803806200182b8339818101604052810190620000379190620000fe565b836000806101000a81548173ffffffffffffffffffffffffffffffffffffffff021916908373ffffffffffffffffffffffffffffffffffffffff16021790555082600160006101000a81548173ffffffffffffffffffffffffffffffffffffffff021916908373ffffffffffffffffffffffffffffffffffffffff160217905550816002819055508060038190555050505050620001dc565b600081519050620000e181620001a8565b92915050565b600081519050620000f881620001c2565b92915050565b600080600080608085870312156200011557600080fd5b60006200012587828801620000d0565b94505060206200013887828801620000d0565b93505060406200014b87828801620000e7565b92505060606200015e87828801620000e7565b91505092959194509250565b600062000177826200017e565b9050919050565b600073ffffffffffffffffffffffffffffffffffffffff82169050919050565b6000819050919050565b620001b3816200016a565b8114620001bf57600080fd5b50565b620001cd816200019e565b8114620001d957600080fd5b50565b61163f80620001ec6000396000f3fe6080604052600436106100f35760003560e01c8063a56cc4391161008a578063ce870b1111610059578063ce870b111461032a578063d8a9ca2b14610353578063ec0df79a14610390578063edf26d9b146103ac576100f3565b8063a56cc43914610269578063ba94a315146102a6578063bd13c1a6146102d1578063c4c793611461030e576100f3565b80633f097481116100c65780633f097481146101c95780636f26a710146101e5578063778c3a74146102105780639d7ce6991461022c576100f3565b80630c2eb403146100f857806313f5ecee14610136578063268a81de14610161578063368e89e71461019e575b600080fd5b34801561010457600080fd5b5061011f600480360381019061011a9190611016565b6103e9565b60405161012d9291906112cf565b60405180910390f35b34801561014257600080fd5b5061014b610475565b60405161015891906112b4565b60405180910390f35b34801561016d57600080fd5b5061018860048036038101906101839190611016565b61047f565b60405161019591906112b4565b60405180910390f35b3480156101aa57600080fd5b506101b3610497565b6040516101c091906112b4565b60405180910390f35b6101e360048036038101906101de919061117f565b6104a1565b005b3480156101f157600080fd5b506101fa61079f565b604051610207919061125e565b60405180910390f35b61022a60048036038101906102259190611130565b6107c9565b005b34801561023857600080fd5b50610253600480360381019061024e91906110cb565b6109e1565b60405161026091906112b4565b60405180910390f35b34801561027557600080fd5b50610290600480360381019061028b9190611016565b610a0f565b60405161029d9190611299565b60405180910390f35b3480156102b257600080fd5b506102bb610a30565b6040516102c8919061125e565b60405180910390f35b3480156102dd57600080fd5b506102f860048036038101906102f391906110cb565b610a59565b60405161030591906112b4565b60405180910390f35b610328600480360381019061032391906110f4565b610a87565b005b34801561033657600080fd5b50610351600480360381019061034c919061103f565b610b7e565b005b34801561035f57600080fd5b5061037a60048036038101906103759190611016565b610e72565b60405161038791906112b4565b60405180910390f35b6103aa60048036038101906103a591906110f4565b610e8a565b005b3480156103b857600080fd5b506103d360048036038101906103ce91906110cb565b610f83565b6040516103e0919061121a565b60405180910390f35b600080600560008473ffffffffffffffffffffffffffffffffffffffff1673ffffffffffffffffffffffffffffffffffffffff16815260200190815260200160002054600660008573ffffffffffffffffffffffffffffffffffffffff1673ffffffffffffffffffffffffffffffffffffffff1681526020019081526020016000205491509150915091565b6000600254905090565b60056020528060005260406000206000915090505481565b6000600354905090565b60008260ff166064600560003273ffffffffffffffffffffffffffffffffffffffff1673ffffffffffffffffffffffffffffffffffffffff168152602001908152602001600020546104f39190611397565b6104fd91906113c8565b905060008360ff166064600660003273ffffffffffffffffffffffffffffffffffffffff1673ffffffffffffffffffffffffffffffffffffffff168152602001908152602001600020546105519190611397565b61055b91906113c8565b905060008054906101000a900473ffffffffffffffffffffffffffffffffffffffff1673ffffffffffffffffffffffffffffffffffffffff1663a9059cbb32846040518363ffffffff1660e01b81526004016105b8929190611235565b602060405180830381600087803b1580156105d257600080fd5b505af11580156105e6573d6000803e3d6000fd5b505050506040513d601f19601f8201168201806040525081019061060a91906110a2565b50600160009054906101000a900473ffffffffffffffffffffffffffffffffffffffff1673ffffffffffffffffffffffffffffffffffffffff1663a9059cbb32836040518363ffffffff1660e01b8152600401610668929190611235565b602060405180830381600087803b15801561068257600080fd5b505af1158015610696573d6000803e3d6000fd5b505050506040513d601f19601f820116820180604052508101906106ba91906110a2565b5081600260008282546106cd9190611422565b9250508190555081600560008573ffffffffffffffffffffffffffffffffffffffff1673ffffffffffffffffffffffffffffffffffffffff16815260200190815260200160002060008282546107239190611422565b92505081905550806003600082825461073c9190611422565b9250508190555080600660008573ffffffffffffffffffffffffffffffffffffffff1673ffffffffffffffffffffffffffffffffffffffff16815260200190815260200160002060008282546107929190611422565b9250508190555050505050565b6000600160009054906101000a900473ffffffffffffffffffffffffffffffffffffffff16905090565b82600260008282546107db9190611341565b9250508190555082600560008373ffffffffffffffffffffffffffffffffffffffff1673ffffffffffffffffffffffffffffffffffffffff16815260200190815260200160002060008282546108319190611341565b92505081905550816003600082825461084a9190611341565b9250508190555081600660008373ffffffffffffffffffffffffffffffffffffffff1673ffffffffffffffffffffffffffffffffffffffff16815260200190815260200160002060008282546108a09190611341565b925050819055506000600460008373ffffffffffffffffffffffffffffffffffffffff1673ffffffffffffffffffffffffffffffffffffffff16815260200190815260200160002060009054906101000a900461ffff1661ffff1614156109dc576001600460008373ffffffffffffffffffffffffffffffffffffffff1673ffffffffffffffffffffffffffffffffffffffff16815260200190815260200160002060008282829054906101000a900461ffff1661095e9190611309565b92506101000a81548161ffff021916908361ffff1602179055506007819080600181540180825580915050600190039060005260206000200160009091909190916101000a81548173ffffffffffffffffffffffffffffffffffffffff021916908373ffffffffffffffffffffffffffffffffffffffff1602179055505b505050565b6000816109ec610497565b6109f4610475565b6109fe9190611397565b610a0891906113c8565b9050919050565b60046020528060005260406000206000915054906101000a900461ffff1681565b60008060009054906101000a900473ffffffffffffffffffffffffffffffffffffffff16905090565b600081610a64610475565b610a6c610497565b610a769190611397565b610a8091906113c8565b9050919050565b80610a90610475565b11610a9a57600080fd5b60008054906101000a900473ffffffffffffffffffffffffffffffffffffffff1673ffffffffffffffffffffffffffffffffffffffff1663a9059cbb32836040518363ffffffff1660e01b8152600401610af5929190611235565b602060405180830381600087803b158015610b0f57600080fd5b505af1158015610b23573d6000803e3d6000fd5b505050506040513d601f19601f82011682018060405250810190610b4791906110a2565b508060026000828254610b5a9190611422565b925050819055508160036000828254610b739190611341565b925050819055505050565b60008054906101000a900473ffffffffffffffffffffffffffffffffffffffff1673ffffffffffffffffffffffffffffffffffffffff168473ffffffffffffffffffffffffffffffffffffffff16148015610c265750600160009054906101000a900473ffffffffffffffffffffffffffffffffffffffff1673ffffffffffffffffffffffffffffffffffffffff168373ffffffffffffffffffffffffffffffffffffffff16145b610c65576040517f08c379a0000000000000000000000000000000000000000000000000000000008152600401610c5c90611279565b60405180910390fd5b6000610c6f610475565b83610c7a9190611397565b90506000610c86610497565b83610c919190611397565b905060006007805490509050600080600090505b82811015610e675760078181548110610ce7577f4e487b7100000000000000000000000000000000000000000000000000000000600052603260045260246000fd5b9060005260206000200160009054906101000a900473ffffffffffffffffffffffffffffffffffffffff169150600560008373ffffffffffffffffffffffffffffffffffffffff1673ffffffffffffffffffffffffffffffffffffffff1681526020019081526020016000205485610d5f91906113c8565b600560008473ffffffffffffffffffffffffffffffffffffffff1673ffffffffffffffffffffffffffffffffffffffff1681526020019081526020016000206000828254610dad9190611341565b92505081905550600660008373ffffffffffffffffffffffffffffffffffffffff1673ffffffffffffffffffffffffffffffffffffffff1681526020019081526020016000205484610dff91906113c8565b600660008473ffffffffffffffffffffffffffffffffffffffff1673ffffffffffffffffffffffffffffffffffffffff1681526020019081526020016000206000828254610e4d9190611341565b925050819055508080610e5f906114dd565b915050610ca5565b505050505050505050565b60066020528060005260406000206000915090505481565b80610e93610497565b11610e9d57600080fd5b600160009054906101000a900473ffffffffffffffffffffffffffffffffffffffff1673ffffffffffffffffffffffffffffffffffffffff1663a9059cbb32836040518363ffffffff1660e01b8152600401610efa929190611235565b602060405180830381600087803b158015610f1457600080fd5b505af1158015610f28573d6000803e3d6000fd5b505050506040513d601f19601f82011682018060405250810190610f4c91906110a2565b508160026000828254610f5f9190611341565b925050819055508060036000828254610f789190611422565b925050819055505050565b60078181548110610f9357600080fd5b906000526020600020016000915054906101000a900473ffffffffffffffffffffffffffffffffffffffff1681565b600081359050610fd1816115ad565b92915050565b600081519050610fe6816115c4565b92915050565b600081359050610ffb816115db565b92915050565b600081359050611010816115f2565b92915050565b60006020828403121561102857600080fd5b600061103684828501610fc2565b91505092915050565b6000806000806080858703121561105557600080fd5b600061106387828801610fc2565b945050602061107487828801610fc2565b935050604061108587828801610fec565b925050606061109687828801610fec565b91505092959194509250565b6000602082840312156110b457600080fd5b60006110c284828501610fd7565b91505092915050565b6000602082840312156110dd57600080fd5b60006110eb84828501610fec565b91505092915050565b6000806040838503121561110757600080fd5b600061111585828601610fec565b925050602061112685828601610fec565b9150509250929050565b60008060006060848603121561114557600080fd5b600061115386828701610fec565b935050602061116486828701610fec565b925050604061117586828701610fc2565b9150509250925092565b6000806040838503121561119257600080fd5b60006111a085828601611001565b92505060206111b185828601610fc2565b9150509250929050565b6111c481611456565b82525050565b6111d3816114b9565b82525050565b60006111e66010836112f8565b91506111f182611584565b602082019050919050565b61120581611474565b82525050565b611214816114a2565b82525050565b600060208201905061122f60008301846111bb565b92915050565b600060408201905061124a60008301856111bb565b611257602083018461120b565b9392505050565b600060208201905061127360008301846111ca565b92915050565b60006020820190508181036000830152611292816111d9565b9050919050565b60006020820190506112ae60008301846111fc565b92915050565b60006020820190506112c9600083018461120b565b92915050565b60006040820190506112e4600083018561120b565b6112f1602083018461120b565b9392505050565b600082825260208201905092915050565b600061131482611474565b915061131f83611474565b92508261ffff0382111561133657611335611526565b5b828201905092915050565b600061134c826114a2565b9150611357836114a2565b9250827fffffffffffffffffffffffffffffffffffffffffffffffffffffffffffffffff0382111561138c5761138b611526565b5b828201905092915050565b60006113a2826114a2565b91506113ad836114a2565b9250826113bd576113bc611555565b5b828204905092915050565b60006113d3826114a2565b91506113de836114a2565b9250817fffffffffffffffffffffffffffffffffffffffffffffffffffffffffffffffff048311821515161561141757611416611526565b5b828202905092915050565b600061142d826114a2565b9150611438836114a2565b92508282101561144b5761144a611526565b5b828203905092915050565b600061146182611482565b9050919050565b60008115159050919050565b600061ffff82169050919050565b600073ffffffffffffffffffffffffffffffffffffffff82169050919050565b6000819050919050565b600060ff82169050919050565b60006114c4826114cb565b9050919050565b60006114d682611482565b9050919050565b60006114e8826114a2565b91507fffffffffffffffffffffffffffffffffffffffffffffffffffffffffffffffff82141561151b5761151a611526565b5b600182019050919050565b7f4e487b7100000000000000000000000000000000000000000000000000000000600052601160045260246000fd5b7f4e487b7100000000000000000000000000000000000000000000000000000000600052601260045260246000fd5b7f57726f6e6720746f6b656e20706f6f6c00000000000000000000000000000000600082015250565b6115b681611456565b81146115c157600080fd5b50565b6115cd81611468565b81146115d857600080fd5b50565b6115e4816114a2565b81146115ef57600080fd5b50565b6115fb816114ac565b811461160657600080fd5b5056fea2646970667358221220aba1a3d106fc972d8ae271cc4734de17b1ab2a137a08ea3a4d09d1621f3b9c3d64736f6c63430008010033a264697066735822122013816ef5dca191dc31a4b6ca4ac3021d95cac76337dc8ab3c45fe8e5299d151e64736f6c63430008010033",
  "linkReferences": {},
  "deployedLinkReferences": {}
}