{
  "_format": "hh-sol-artifact-1",
  "contractName": "VoteExchange",
  "sourceName": "contracts/vote/VoteExchange.sol",
  "abi": [
    {
      "inputs": [
        {
          "internalType": "address",
          "name": "_tokenAddress",
          "type": "address"
        }
      ],
      "stateMutability": "nonpayable",
      "type": "constructor"
    },
    {
      "inputs": [],
      "name": "closeExchange",
      "outputs": [],
      "stateMutability": "nonpayable",
      "type": "function"
    },
    {
      "inputs": [
        {
          "internalType": "uint256",
          "name": "_amount",
          "type": "uint256"
        }
      ],
      "name": "deposit",
      "outputs": [],
      "stateMutability": "payable",
      "type": "function"
    },
    {
      "inputs": [],
      "name": "openExchange",
      "outputs": [],
      "stateMutability": "nonpayable",
      "type": "function"
    },
    {
      "inputs": [],
      "name": "owner",
      "outputs": [
        {
          "internalType": "address",
          "name": "",
          "type": "address"
        }
      ],
      "stateMutability": "view",
      "type": "function"
    },
    {
      "inputs": [],
      "name": "status",
      "outputs": [
        {
          "internalType": "enum VoteExchange.ExchangeState",
          "name": "",
          "type": "uint8"
        }
      ],
      "stateMutability": "view",
      "type": "function"
    },
    {
      "inputs": [],
      "name": "token",
      "outputs": [
        {
          "internalType": "contract RICE",
          "name": "",
          "type": "address"
        }
      ],
      "stateMutability": "view",
      "type": "function"
    },
    {
      "inputs": [
        {
          "internalType": "address",
          "name": "",
          "type": "address"
        }
      ],
      "name": "voteExchange",
      "outputs": [
        {
          "internalType": "uint256",
          "name": "",
          "type": "uint256"
        }
      ],
      "stateMutability": "view",
      "type": "function"
    },
    {
      "inputs": [
        {
          "internalType": "uint256",
          "name": "_amount",
          "type": "uint256"
        }
      ],
      "name": "withdraw",
      "outputs": [],
      "stateMutability": "payable",
      "type": "function"
    }
  ],
  "bytecode": "0x608060405234801561001057600080fd5b50604051610ecb380380610ecb83398181016040528101906100329190610120565b33600160006101000a81548173ffffffffffffffffffffffffffffffffffffffff021916908373ffffffffffffffffffffffffffffffffffffffff1602179055506001600260146101000a81548160ff021916908360018111156100bf577f4e487b7100000000000000000000000000000000000000000000000000000000600052602160045260246000fd5b021790555080600260006101000a81548173ffffffffffffffffffffffffffffffffffffffff021916908373ffffffffffffffffffffffffffffffffffffffff16021790555050610192565b60008151905061011a8161017b565b92915050565b60006020828403121561013257600080fd5b60006101408482850161010b565b91505092915050565b60006101548261015b565b9050919050565b600073ffffffffffffffffffffffffffffffffffffffff82169050919050565b61018481610149565b811461018f57600080fd5b50565b610d2a806101a16000396000f3fe60806040526004361061007b5760003560e01c806395f226e41161004e57806395f226e414610109578063b6b55f2514610146578063ddd1b0c814610162578063fc0c546a146101795761007b565b80630494963d14610080578063200d2ed2146100975780632e1a7d4d146100c25780638da5cb5b146100de575b600080fd5b34801561008c57600080fd5b506100956101a4565b005b3480156100a357600080fd5b506100ac610287565b6040516100b99190610991565b60405180910390f35b6100dc60048036038101906100d7919061080a565b61029a565b005b3480156100ea57600080fd5b506100f36104e5565b60405161010091906108fb565b60405180910390f35b34801561011557600080fd5b50610130600480360381019061012b91906107b8565b61050b565b60405161013d9190610a2c565b60405180910390f35b610160600480360381019061015b919061080a565b610523565b005b34801561016e57600080fd5b50610177610670565b005b34801561018557600080fd5b5061018e610753565b60405161019b9190610976565b60405180910390f35b600160009054906101000a900473ffffffffffffffffffffffffffffffffffffffff1673ffffffffffffffffffffffffffffffffffffffff163273ffffffffffffffffffffffffffffffffffffffff1614610234576040517f08c379a000000000000000000000000000000000000000000000000000000000815260040161022b90610a0c565b60405180910390fd5b6001600260146101000a81548160ff02191690836001811115610280577f4e487b7100000000000000000000000000000000000000000000000000000000600052602160045260246000fd5b0217905550565b600260149054906101000a900460ff1681565b600060018111156102d4577f4e487b7100000000000000000000000000000000000000000000000000000000600052602160045260246000fd5b600260149054906101000a900460ff16600181111561031c577f4e487b7100000000000000000000000000000000000000000000000000000000600052602160045260246000fd5b1461035c576040517f08c379a0000000000000000000000000000000000000000000000000000000008152600401610353906109ac565b60405180910390fd5b806000803373ffffffffffffffffffffffffffffffffffffffff1673ffffffffffffffffffffffffffffffffffffffff1681526020019081526020016000205410156103dd576040517f08c379a00000000000000000000000000000000000000000000000000000000081526004016103d4906109cc565b60405180910390fd5b600260009054906101000a900473ffffffffffffffffffffffffffffffffffffffff1673ffffffffffffffffffffffffffffffffffffffff1663a9059cbb33836040518363ffffffff1660e01b815260040161043a92919061094d565b602060405180830381600087803b15801561045457600080fd5b505af1158015610468573d6000803e3d6000fd5b505050506040513d601f19601f8201168201806040525081019061048c91906107e1565b50806000803373ffffffffffffffffffffffffffffffffffffffff1673ffffffffffffffffffffffffffffffffffffffff16815260200190815260200160002060008282546104db9190610aae565b9250508190555050565b600160009054906101000a900473ffffffffffffffffffffffffffffffffffffffff1681565b60006020528060005260406000206000915090505481565b60008111610566576040517f08c379a000000000000000000000000000000000000000000000000000000000815260040161055d906109ec565b60405180910390fd5b600260009054906101000a900473ffffffffffffffffffffffffffffffffffffffff1673ffffffffffffffffffffffffffffffffffffffff166323b872dd3330846040518463ffffffff1660e01b81526004016105c593929190610916565b602060405180830381600087803b1580156105df57600080fd5b505af11580156105f3573d6000803e3d6000fd5b505050506040513d601f19601f8201168201806040525081019061061791906107e1565b50806000803373ffffffffffffffffffffffffffffffffffffffff1673ffffffffffffffffffffffffffffffffffffffff16815260200190815260200160002060008282546106669190610a58565b9250508190555050565b600160009054906101000a900473ffffffffffffffffffffffffffffffffffffffff1673ffffffffffffffffffffffffffffffffffffffff163273ffffffffffffffffffffffffffffffffffffffff1614610700576040517f08c379a00000000000000000000000000000000000000000000000000000000081526004016106f790610a0c565b60405180910390fd5b6000600260146101000a81548160ff0219169083600181111561074c577f4e487b7100000000000000000000000000000000000000000000000000000000600052602160045260246000fd5b0217905550565b600260009054906101000a900473ffffffffffffffffffffffffffffffffffffffff1681565b60008135905061078881610caf565b92915050565b60008151905061079d81610cc6565b92915050565b6000813590506107b281610cdd565b92915050565b6000602082840312156107ca57600080fd5b60006107d884828501610779565b91505092915050565b6000602082840312156107f357600080fd5b60006108018482850161078e565b91505092915050565b60006020828403121561081c57600080fd5b600061082a848285016107a3565b91505092915050565b61083c81610ae2565b82525050565b61084b81610b3d565b82525050565b61085a81610b61565b82525050565b600061086d600883610a47565b915061087882610bd1565b602082019050919050565b6000610890601c83610a47565b915061089b82610bfa565b602082019050919050565b60006108b3602783610a47565b91506108be82610c23565b604082019050919050565b60006108d6600983610a47565b91506108e182610c72565b602082019050919050565b6108f581610b33565b82525050565b60006020820190506109106000830184610833565b92915050565b600060608201905061092b6000830186610833565b6109386020830185610833565b61094560408301846108ec565b949350505050565b60006040820190506109626000830185610833565b61096f60208301846108ec565b9392505050565b600060208201905061098b6000830184610842565b92915050565b60006020820190506109a66000830184610851565b92915050565b600060208201905081810360008301526109c581610860565b9050919050565b600060208201905081810360008301526109e581610883565b9050919050565b60006020820190508181036000830152610a05816108a6565b9050919050565b60006020820190508181036000830152610a25816108c9565b9050919050565b6000602082019050610a4160008301846108ec565b92915050565b600082825260208201905092915050565b6000610a6382610b33565b9150610a6e83610b33565b9250827fffffffffffffffffffffffffffffffffffffffffffffffffffffffffffffffff03821115610aa357610aa2610b73565b5b828201905092915050565b6000610ab982610b33565b9150610ac483610b33565b925082821015610ad757610ad6610b73565b5b828203905092915050565b6000610aed82610b13565b9050919050565b60008115159050919050565b6000819050610b0e82610c9b565b919050565b600073ffffffffffffffffffffffffffffffffffffffff82169050919050565b6000819050919050565b6000610b4882610b4f565b9050919050565b6000610b5a82610b13565b9050919050565b6000610b6c82610b00565b9050919050565b7f4e487b7100000000000000000000000000000000000000000000000000000000600052601160045260246000fd5b7f4e487b7100000000000000000000000000000000000000000000000000000000600052602160045260246000fd5b7f4e6f74206f70656e000000000000000000000000000000000000000000000000600082015250565b7f4e6f7420656e6f75676820746f6b656e20746f20776974686472617700000000600082015250565b7f596f75206e65656420746f206465706f736974206174206c6561737420736f6d60008201527f6520746f6b656e00000000000000000000000000000000000000000000000000602082015250565b7f4e6f74206f776e65720000000000000000000000000000000000000000000000600082015250565b60028110610cac57610cab610ba2565b5b50565b610cb881610ae2565b8114610cc357600080fd5b50565b610ccf81610af4565b8114610cda57600080fd5b50565b610ce681610b33565b8114610cf157600080fd5b5056fea26469706673582212209492311cefc858bcecdc703c48d19a4a316ed2948404d5db0c44a966933058b364736f6c63430008010033",
  "linkReferences": {},
  "deployedLinkReferences": {}
}