{
  "_format": "hh-sol-artifact-1",
  "contractName": "VoteExchange",
  "sourceName": "contracts/vote/VoteExchange.sol",
  "abi": [
    {
      "inputs": [
        {
          "internalType": "address",
          "name": "_tokenAddress",
          "type": "address"
        }
      ],
      "stateMutability": "nonpayable",
      "type": "constructor"
    },
    {
      "inputs": [],
      "name": "closeExchange",
      "outputs": [],
      "stateMutability": "nonpayable",
      "type": "function"
    },
    {
      "inputs": [
        {
          "internalType": "uint256",
          "name": "_amount",
          "type": "uint256"
        }
      ],
      "name": "deposit",
      "outputs": [],
      "stateMutability": "payable",
      "type": "function"
    },
    {
      "inputs": [],
      "name": "openExchange",
      "outputs": [],
      "stateMutability": "nonpayable",
      "type": "function"
    },
    {
      "inputs": [],
      "name": "owner",
      "outputs": [
        {
          "internalType": "address",
          "name": "",
          "type": "address"
        }
      ],
      "stateMutability": "view",
      "type": "function"
    },
    {
      "inputs": [],
      "name": "status",
      "outputs": [
        {
          "internalType": "enum VoteExchange.ExchangeState",
          "name": "",
          "type": "uint8"
        }
      ],
      "stateMutability": "view",
      "type": "function"
    },
    {
      "inputs": [],
      "name": "token",
      "outputs": [
        {
          "internalType": "contract RICE",
          "name": "",
          "type": "address"
        }
      ],
      "stateMutability": "view",
      "type": "function"
    },
    {
      "inputs": [
        {
          "internalType": "address",
          "name": "",
          "type": "address"
        }
      ],
      "name": "voteExchange",
      "outputs": [
        {
          "internalType": "uint256",
          "name": "",
          "type": "uint256"
        }
      ],
      "stateMutability": "view",
      "type": "function"
    },
    {
      "inputs": [
        {
          "internalType": "uint256",
          "name": "_amount",
          "type": "uint256"
        }
      ],
      "name": "withdraw",
      "outputs": [],
      "stateMutability": "payable",
      "type": "function"
    }
  ],
  "bytecode": "0x608060405234801561001057600080fd5b50604051610e9b380380610e9b83398181016040528101906100329190610120565b33600160006101000a81548173ffffffffffffffffffffffffffffffffffffffff021916908373ffffffffffffffffffffffffffffffffffffffff1602179055506001600260146101000a81548160ff021916908360018111156100bf577f4e487b7100000000000000000000000000000000000000000000000000000000600052602160045260246000fd5b021790555080600260006101000a81548173ffffffffffffffffffffffffffffffffffffffff021916908373ffffffffffffffffffffffffffffffffffffffff16021790555050610192565b60008151905061011a8161017b565b92915050565b60006020828403121561013257600080fd5b60006101408482850161010b565b91505092915050565b60006101548261015b565b9050919050565b600073ffffffffffffffffffffffffffffffffffffffff82169050919050565b61018481610149565b811461018f57600080fd5b50565b610cfa806101a16000396000f3fe60806040526004361061007b5760003560e01c806395f226e41161004e57806395f226e414610109578063b6b55f2514610146578063ddd1b0c814610162578063fc0c546a146101795761007b565b80630494963d14610080578063200d2ed2146100975780632e1a7d4d146100c25780638da5cb5b146100de575b600080fd5b34801561008c57600080fd5b506100956101a4565b005b3480156100a357600080fd5b506100ac610287565b6040516100b99190610a2b565b60405180910390f35b6100dc60048036038101906100d7919061080a565b61029a565b005b3480156100ea57600080fd5b506100f36104e5565b6040516101009190610995565b60405180910390f35b34801561011557600080fd5b50610130600480360381019061012b91906107b8565b61050b565b60405161013d9190610ac6565b60405180910390f35b610160600480360381019061015b919061080a565b610523565b005b34801561016e57600080fd5b50610177610670565b005b34801561018557600080fd5b5061018e610753565b60405161019b9190610a10565b60405180910390f35b600160009054906101000a900473ffffffffffffffffffffffffffffffffffffffff1673ffffffffffffffffffffffffffffffffffffffff163273ffffffffffffffffffffffffffffffffffffffff1614610234576040517f08c379a000000000000000000000000000000000000000000000000000000000815260040161022b90610aa6565b60405180910390fd5b6001600260146101000a81548160ff02191690836001811115610280577f4e487b7100000000000000000000000000000000000000000000000000000000600052602160045260246000fd5b0217905550565b600260149054906101000a900460ff1681565b600060018111156102d4577f4e487b7100000000000000000000000000000000000000000000000000000000600052602160045260246000fd5b600260149054906101000a900460ff16600181111561031c577f4e487b7100000000000000000000000000000000000000000000000000000000600052602160045260246000fd5b1461035c576040517f08c379a000000000000000000000000000000000000000000000000000000000815260040161035390610a46565b60405180910390fd5b806000803373ffffffffffffffffffffffffffffffffffffffff1673ffffffffffffffffffffffffffffffffffffffff1681526020019081526020016000205410156103dd576040517f08c379a00000000000000000000000000000000000000000000000000000000081526004016103d490610a66565b60405180910390fd5b600260009054906101000a900473ffffffffffffffffffffffffffffffffffffffff1673ffffffffffffffffffffffffffffffffffffffff1663a9059cbb33836040518363ffffffff1660e01b815260040161043a9291906109e7565b602060405180830381600087803b15801561045457600080fd5b505af1158015610468573d6000803e3d6000fd5b505050506040513d601f19601f8201168201806040525081019061048c91906107e1565b50806000803373ffffffffffffffffffffffffffffffffffffffff1673ffffffffffffffffffffffffffffffffffffffff16815260200190815260200160002060008282546104db9190610b48565b9250508190555050565b600160009054906101000a900473ffffffffffffffffffffffffffffffffffffffff1681565b60006020528060005260406000206000915090505481565b60008111610566576040517f08c379a000000000000000000000000000000000000000000000000000000000815260040161055d90610a86565b60405180910390fd5b600260009054906101000a900473ffffffffffffffffffffffffffffffffffffffff1673ffffffffffffffffffffffffffffffffffffffff166323b872dd3330846040518463ffffffff1660e01b81526004016105c5939291906109b0565b602060405180830381600087803b1580156105df57600080fd5b505af11580156105f3573d6000803e3d6000fd5b505050506040513d601f19601f8201168201806040525081019061061791906107e1565b50806000803373ffffffffffffffffffffffffffffffffffffffff1673ffffffffffffffffffffffffffffffffffffffff16815260200190815260200160002060008282546106669190610af2565b9250508190555050565b600160009054906101000a900473ffffffffffffffffffffffffffffffffffffffff1673ffffffffffffffffffffffffffffffffffffffff163273ffffffffffffffffffffffffffffffffffffffff1614610700576040517f08c379a00000000000000000000000000000000000000000000000000000000081526004016106f790610aa6565b60405180910390fd5b6000600260146101000a81548160ff0219169083600181111561074c577f4e487b7100000000000000000000000000000000000000000000000000000000600052602160045260246000fd5b0217905550565b600260009054906101000a900473ffffffffffffffffffffffffffffffffffffffff1681565b60008135905061078881610c7f565b92915050565b60008151905061079d81610c96565b92915050565b6000813590506107b281610cad565b92915050565b6000602082840312156107ca57600080fd5b60006107d884828501610779565b91505092915050565b6000602082840312156107f357600080fd5b60006108018482850161078e565b91505092915050565b60006020828403121561081c57600080fd5b600061082a848285016107a3565b91505092915050565b61083c81610b7c565b82525050565b61084b81610bd7565b82525050565b61085a81610bfb565b82525050565b600061086d600883610ae1565b91507f4e6f74206f70656e0000000000000000000000000000000000000000000000006000830152602082019050919050565b60006108ad601c83610ae1565b91507f4e6f7420656e6f75676820746f6b656e20746f207769746864726177000000006000830152602082019050919050565b60006108ed602783610ae1565b91507f596f75206e65656420746f206465706f736974206174206c6561737420736f6d60008301527f6520746f6b656e000000000000000000000000000000000000000000000000006020830152604082019050919050565b6000610953600983610ae1565b91507f4e6f74206f776e657200000000000000000000000000000000000000000000006000830152602082019050919050565b61098f81610bcd565b82525050565b60006020820190506109aa6000830184610833565b92915050565b60006060820190506109c56000830186610833565b6109d26020830185610833565b6109df6040830184610986565b949350505050565b60006040820190506109fc6000830185610833565b610a096020830184610986565b9392505050565b6000602082019050610a256000830184610842565b92915050565b6000602082019050610a406000830184610851565b92915050565b60006020820190508181036000830152610a5f81610860565b9050919050565b60006020820190508181036000830152610a7f816108a0565b9050919050565b60006020820190508181036000830152610a9f816108e0565b9050919050565b60006020820190508181036000830152610abf81610946565b9050919050565b6000602082019050610adb6000830184610986565b92915050565b600082825260208201905092915050565b6000610afd82610bcd565b9150610b0883610bcd565b9250827fffffffffffffffffffffffffffffffffffffffffffffffffffffffffffffffff03821115610b3d57610b3c610c0d565b5b828201905092915050565b6000610b5382610bcd565b9150610b5e83610bcd565b925082821015610b7157610b70610c0d565b5b828203905092915050565b6000610b8782610bad565b9050919050565b60008115159050919050565b6000819050610ba882610c6b565b919050565b600073ffffffffffffffffffffffffffffffffffffffff82169050919050565b6000819050919050565b6000610be282610be9565b9050919050565b6000610bf482610bad565b9050919050565b6000610c0682610b9a565b9050919050565b7f4e487b7100000000000000000000000000000000000000000000000000000000600052601160045260246000fd5b7f4e487b7100000000000000000000000000000000000000000000000000000000600052602160045260246000fd5b60028110610c7c57610c7b610c3c565b5b50565b610c8881610b7c565b8114610c9357600080fd5b50565b610c9f81610b8e565b8114610caa57600080fd5b50565b610cb681610bcd565b8114610cc157600080fd5b5056fea2646970667358221220228df097103f904727f43022a10160b76003bd7329f5279164a08334a51e7ba864736f6c63430008000033",
  "linkReferences": {},
  "deployedLinkReferences": {}
}