{
  "_format": "hh-sol-artifact-1",
  "contractName": "Stake",
  "sourceName": "contracts/Stake.sol",
  "abi": [
    {
      "inputs": [
        {
          "internalType": "address",
          "name": "_poolFactory",
          "type": "address"
        }
      ],
      "stateMutability": "nonpayable",
      "type": "constructor"
    },
    {
      "inputs": [
        {
          "internalType": "address",
          "name": "_token0",
          "type": "address"
        },
        {
          "internalType": "address",
          "name": "_token1",
          "type": "address"
        }
      ],
      "name": "getStakeAmount",
      "outputs": [
        {
          "internalType": "uint256",
          "name": "atoken0",
          "type": "uint256"
        },
        {
          "internalType": "uint256",
          "name": "atoken1",
          "type": "uint256"
        }
      ],
      "stateMutability": "view",
      "type": "function"
    },
    {
      "inputs": [
        {
          "internalType": "address",
          "name": "_token0",
          "type": "address"
        },
        {
          "internalType": "address",
          "name": "_token1",
          "type": "address"
        },
        {
          "internalType": "uint256",
          "name": "amountToken0",
          "type": "uint256"
        },
        {
          "internalType": "uint256",
          "name": "amountToken1",
          "type": "uint256"
        }
      ],
      "name": "stake",
      "outputs": [],
      "stateMutability": "nonpayable",
      "type": "function"
    },
    {
      "inputs": [
        {
          "internalType": "address",
          "name": "_token0",
          "type": "address"
        },
        {
          "internalType": "address",
          "name": "_token1",
          "type": "address"
        },
        {
          "internalType": "uint8",
          "name": "percent",
          "type": "uint8"
        }
      ],
      "name": "unstake",
      "outputs": [],
      "stateMutability": "nonpayable",
      "type": "function"
    }
  ],
  "bytecode": "0x60806040523480156200001157600080fd5b5060405162001a4b38038062001a4b833981810160405281019062000037919062000095565b806000806101000a81548173ffffffffffffffffffffffffffffffffffffffff021916908373ffffffffffffffffffffffffffffffffffffffff160217905550506200010f565b6000815190506200008f81620000f5565b92915050565b600060208284031215620000a857600080fd5b6000620000b8848285016200007e565b91505092915050565b6000620000ce82620000d5565b9050919050565b600073ffffffffffffffffffffffffffffffffffffffff82169050919050565b6200010081620000c1565b81146200010c57600080fd5b50565b61192c806200011f6000396000f3fe608060405234801561001057600080fd5b50600436106100415760003560e01c8063e851b5fc14610046578063f8a75c6014610077578063fdeaab6d14610093575b600080fd5b610060600480360381019061005b9190611428565b6100af565b60405161006e929190611730565b60405180910390f35b610091600480360381019061008c91906114c7565b610581565b005b6100ad60048036038101906100a89190611464565b610a85565b005b600080600073ffffffffffffffffffffffffffffffffffffffff1660008054906101000a900473ffffffffffffffffffffffffffffffffffffffff1673ffffffffffffffffffffffffffffffffffffffff16633fa1e0c886866040518363ffffffff1660e01b8152600401610125929190611655565b60206040518083038186803b15801561013d57600080fd5b505afa158015610151573d6000803e3d6000fd5b505050506040513d601f19601f8201168201806040525081019061017591906113ff565b73ffffffffffffffffffffffffffffffffffffffff1614158061026f5750600073ffffffffffffffffffffffffffffffffffffffff1660008054906101000a900473ffffffffffffffffffffffffffffffffffffffff1673ffffffffffffffffffffffffffffffffffffffff16633fa1e0c885876040518363ffffffff1660e01b8152600401610206929190611655565b60206040518083038186803b15801561021e57600080fd5b505afa158015610232573d6000803e3d6000fd5b505050506040513d601f19601f8201168201806040525081019061025691906113ff565b73ffffffffffffffffffffffffffffffffffffffff1614155b6102ae576040517f08c379a00000000000000000000000000000000000000000000000000000000081526004016102a5906116f5565b60405180910390fd5b60008073ffffffffffffffffffffffffffffffffffffffff1660008054906101000a900473ffffffffffffffffffffffffffffffffffffffff1673ffffffffffffffffffffffffffffffffffffffff16633fa1e0c887876040518363ffffffff1660e01b8152600401610322929190611655565b60206040518083038186803b15801561033a57600080fd5b505afa15801561034e573d6000803e3d6000fd5b505050506040513d601f19601f8201168201806040525081019061037291906113ff565b73ffffffffffffffffffffffffffffffffffffffff161461043f5760008054906101000a900473ffffffffffffffffffffffffffffffffffffffff1673ffffffffffffffffffffffffffffffffffffffff16633fa1e0c886866040518363ffffffff1660e01b81526004016103e8929190611655565b60206040518083038186803b15801561040057600080fd5b505afa158015610414573d6000803e3d6000fd5b505050506040513d601f19601f8201168201806040525081019061043891906113ff565b90506104ed565b60008054906101000a900473ffffffffffffffffffffffffffffffffffffffff1673ffffffffffffffffffffffffffffffffffffffff16633fa1e0c885876040518363ffffffff1660e01b815260040161049a929190611655565b60206040518083038186803b1580156104b257600080fd5b505afa1580156104c6573d6000803e3d6000fd5b505050506040513d601f19601f820116820180604052508101906104ea91906113ff565b90505b8073ffffffffffffffffffffffffffffffffffffffff16630c2eb403336040518263ffffffff1660e01b8152600401610526919061163a565b604080518083038186803b15801561053d57600080fd5b505afa158015610551573d6000803e3d6000fd5b505050506040513d601f19601f820116820180604052508101906105759190611568565b92509250509250929050565b60008160ff16118015610598575060648160ff1611155b6105d7576040517f08c379a00000000000000000000000000000000000000000000000000000000081526004016105ce906116d5565b60405180910390fd5b600073ffffffffffffffffffffffffffffffffffffffff1660008054906101000a900473ffffffffffffffffffffffffffffffffffffffff1673ffffffffffffffffffffffffffffffffffffffff16633fa1e0c885856040518363ffffffff1660e01b815260040161064a929190611655565b60206040518083038186803b15801561066257600080fd5b505afa158015610676573d6000803e3d6000fd5b505050506040513d601f19601f8201168201806040525081019061069a91906113ff565b73ffffffffffffffffffffffffffffffffffffffff161415806107945750600073ffffffffffffffffffffffffffffffffffffffff1660008054906101000a900473ffffffffffffffffffffffffffffffffffffffff1673ffffffffffffffffffffffffffffffffffffffff16633fa1e0c884866040518363ffffffff1660e01b815260040161072b929190611655565b60206040518083038186803b15801561074357600080fd5b505afa158015610757573d6000803e3d6000fd5b505050506040513d601f19601f8201168201806040525081019061077b91906113ff565b73ffffffffffffffffffffffffffffffffffffffff1614155b6107d3576040517f08c379a00000000000000000000000000000000000000000000000000000000081526004016107ca906116f5565b60405180910390fd5b60008073ffffffffffffffffffffffffffffffffffffffff1660008054906101000a900473ffffffffffffffffffffffffffffffffffffffff1673ffffffffffffffffffffffffffffffffffffffff16633fa1e0c886866040518363ffffffff1660e01b8152600401610847929190611655565b60206040518083038186803b15801561085f57600080fd5b505afa158015610873573d6000803e3d6000fd5b505050506040513d601f19601f8201168201806040525081019061089791906113ff565b73ffffffffffffffffffffffffffffffffffffffff16146109645760008054906101000a900473ffffffffffffffffffffffffffffffffffffffff1673ffffffffffffffffffffffffffffffffffffffff16633fa1e0c885856040518363ffffffff1660e01b815260040161090d929190611655565b60206040518083038186803b15801561092557600080fd5b505afa158015610939573d6000803e3d6000fd5b505050506040513d601f19601f8201168201806040525081019061095d91906113ff565b9050610a12565b60008054906101000a900473ffffffffffffffffffffffffffffffffffffffff1673ffffffffffffffffffffffffffffffffffffffff16633fa1e0c884866040518363ffffffff1660e01b81526004016109bf929190611655565b60206040518083038186803b1580156109d757600080fd5b505afa1580156109eb573d6000803e3d6000fd5b505050506040513d601f19601f82011682018060405250810190610a0f91906113ff565b90505b8073ffffffffffffffffffffffffffffffffffffffff16633f09748183336040518363ffffffff1660e01b8152600401610a4d929190611790565b600060405180830381600087803b158015610a6757600080fd5b505af1158015610a7b573d6000803e3d6000fd5b5050505050505050565b600082118015610a955750600081115b610ad4576040517f08c379a0000000000000000000000000000000000000000000000000000000008152600401610acb906116b5565b60405180910390fd5b600073ffffffffffffffffffffffffffffffffffffffff1660008054906101000a900473ffffffffffffffffffffffffffffffffffffffff1673ffffffffffffffffffffffffffffffffffffffff16633fa1e0c886866040518363ffffffff1660e01b8152600401610b47929190611655565b60206040518083038186803b158015610b5f57600080fd5b505afa158015610b73573d6000803e3d6000fd5b505050506040513d601f19601f82011682018060405250810190610b9791906113ff565b73ffffffffffffffffffffffffffffffffffffffff16141580610c915750600073ffffffffffffffffffffffffffffffffffffffff1660008054906101000a900473ffffffffffffffffffffffffffffffffffffffff1673ffffffffffffffffffffffffffffffffffffffff16633fa1e0c885876040518363ffffffff1660e01b8152600401610c28929190611655565b60206040518083038186803b158015610c4057600080fd5b505afa158015610c54573d6000803e3d6000fd5b505050506040513d601f19601f82011682018060405250810190610c7891906113ff565b73ffffffffffffffffffffffffffffffffffffffff1614155b610cd0576040517f08c379a0000000000000000000000000000000000000000000000000000000008152600401610cc7906116f5565b60405180910390fd5b60008073ffffffffffffffffffffffffffffffffffffffff1660008054906101000a900473ffffffffffffffffffffffffffffffffffffffff1673ffffffffffffffffffffffffffffffffffffffff16633fa1e0c887876040518363ffffffff1660e01b8152600401610d44929190611655565b60206040518083038186803b158015610d5c57600080fd5b505afa158015610d70573d6000803e3d6000fd5b505050506040513d601f19601f82011682018060405250810190610d9491906113ff565b73ffffffffffffffffffffffffffffffffffffffff1614610e615760008054906101000a900473ffffffffffffffffffffffffffffffffffffffff1673ffffffffffffffffffffffffffffffffffffffff16633fa1e0c886866040518363ffffffff1660e01b8152600401610e0a929190611655565b60206040518083038186803b158015610e2257600080fd5b505afa158015610e36573d6000803e3d6000fd5b505050506040513d601f19601f82011682018060405250810190610e5a91906113ff565b9050610f33565b60008054906101000a900473ffffffffffffffffffffffffffffffffffffffff1673ffffffffffffffffffffffffffffffffffffffff16633fa1e0c885876040518363ffffffff1660e01b8152600401610ebc929190611655565b60206040518083038186803b158015610ed457600080fd5b505afa158015610ee8573d6000803e3d6000fd5b505050506040513d601f19601f82011682018060405250810190610f0c91906113ff565b90506000859050600085905080965081955060008590506000859050819550809650505050505b60008173ffffffffffffffffffffffffffffffffffffffff16639d7ce699846040518263ffffffff1660e01b8152600401610f6e9190611715565b60206040518083038186803b158015610f8657600080fd5b505afa158015610f9a573d6000803e3d6000fd5b505050506040513d601f19601f82011682018060405250810190610fbe919061153f565b905083811161115b578573ffffffffffffffffffffffffffffffffffffffff166323b872dd3384846040518463ffffffff1660e01b81526004016110049392919061167e565b602060405180830381600087803b15801561101e57600080fd5b505af1158015611032573d6000803e3d6000fd5b505050506040513d601f19601f820116820180604052508101906110569190611516565b508473ffffffffffffffffffffffffffffffffffffffff166323b872dd3384866040518463ffffffff1660e01b81526004016110949392919061167e565b602060405180830381600087803b1580156110ae57600080fd5b505af11580156110c2573d6000803e3d6000fd5b505050506040513d601f19601f820116820180604052508101906110e69190611516565b508173ffffffffffffffffffffffffffffffffffffffff1663778c3a748285336040518463ffffffff1660e01b815260040161112493929190611759565b600060405180830381600087803b15801561113e57600080fd5b505af1158015611152573d6000803e3d6000fd5b50505050611379565b60008273ffffffffffffffffffffffffffffffffffffffff1663bd13c1a6866040518263ffffffff1660e01b81526004016111969190611715565b60206040518083038186803b1580156111ae57600080fd5b505afa1580156111c2573d6000803e3d6000fd5b505050506040513d601f19601f820116820180604052508101906111e6919061153f565b90508673ffffffffffffffffffffffffffffffffffffffff166323b872dd3330886040518463ffffffff1660e01b81526004016112259392919061167e565b602060405180830381600087803b15801561123f57600080fd5b505af1158015611253573d6000803e3d6000fd5b505050506040513d601f19601f820116820180604052508101906112779190611516565b508573ffffffffffffffffffffffffffffffffffffffff166323b872dd3330846040518463ffffffff1660e01b81526004016112b59392919061167e565b602060405180830381600087803b1580156112cf57600080fd5b505af11580156112e3573d6000803e3d6000fd5b505050506040513d601f19601f820116820180604052508101906113079190611516565b508273ffffffffffffffffffffffffffffffffffffffff1663778c3a748683336040518463ffffffff1660e01b815260040161134593929190611759565b600060405180830381600087803b15801561135f57600080fd5b505af1158015611373573d6000803e3d6000fd5b50505050505b505050505050565b6000813590506113908161189a565b92915050565b6000815190506113a58161189a565b92915050565b6000815190506113ba816118b1565b92915050565b6000813590506113cf816118c8565b92915050565b6000815190506113e4816118c8565b92915050565b6000813590506113f9816118df565b92915050565b60006020828403121561141157600080fd5b600061141f84828501611396565b91505092915050565b6000806040838503121561143b57600080fd5b600061144985828601611381565b925050602061145a85828601611381565b9150509250929050565b6000806000806080858703121561147a57600080fd5b600061148887828801611381565b945050602061149987828801611381565b93505060406114aa878288016113c0565b92505060606114bb878288016113c0565b91505092959194509250565b6000806000606084860312156114dc57600080fd5b60006114ea86828701611381565b93505060206114fb86828701611381565b925050604061150c868287016113ea565b9150509250925092565b60006020828403121561152857600080fd5b6000611536848285016113ab565b91505092915050565b60006020828403121561155157600080fd5b600061155f848285016113d5565b91505092915050565b6000806040838503121561157b57600080fd5b6000611589858286016113d5565b925050602061159a858286016113d5565b9150509250929050565b6115ad816117ca565b82525050565b60006115c06018836117b9565b91506115cb8261181f565b602082019050919050565b60006115e3601f836117b9565b91506115ee82611848565b602082019050919050565b60006116066019836117b9565b915061161182611871565b602082019050919050565b61162581611808565b82525050565b61163481611812565b82525050565b600060208201905061164f60008301846115a4565b92915050565b600060408201905061166a60008301856115a4565b61167760208301846115a4565b9392505050565b600060608201905061169360008301866115a4565b6116a060208301856115a4565b6116ad604083018461161c565b949350505050565b600060208201905081810360008301526116ce816115b3565b9050919050565b600060208201905081810360008301526116ee816115d6565b9050919050565b6000602082019050818103600083015261170e816115f9565b9050919050565b600060208201905061172a600083018461161c565b92915050565b6000604082019050611745600083018561161c565b611752602083018461161c565b9392505050565b600060608201905061176e600083018661161c565b61177b602083018561161c565b61178860408301846115a4565b949350505050565b60006040820190506117a5600083018561162b565b6117b260208301846115a4565b9392505050565b600082825260208201905092915050565b60006117d5826117e8565b9050919050565b60008115159050919050565b600073ffffffffffffffffffffffffffffffffffffffff82169050919050565b6000819050919050565b600060ff82169050919050565b7f50757420736f6d6520616d6f756e7420746f207374616b650000000000000000600082015250565b7f50657263656e74206d75737420696e206265747765656e20312d313030212100600082015250565b7f53656c656374656420506f6f6c73206e6f742065786973742100000000000000600082015250565b6118a3816117ca565b81146118ae57600080fd5b50565b6118ba816117dc565b81146118c557600080fd5b50565b6118d181611808565b81146118dc57600080fd5b50565b6118e881611812565b81146118f357600080fd5b5056fea2646970667358221220579fc6f1ce9a33b06dbb62404fc79500362d98a3c8c2000d83133711f12b788e64736f6c63430008010033",
  "linkReferences": {},
  "deployedLinkReferences": {}
}