{
  "_format": "hh-sol-artifact-1",
  "contractName": "Stake",
  "sourceName": "contracts/Stake.sol",
  "abi": [
    {
      "inputs": [
        {
          "internalType": "address",
          "name": "_poolFactory",
          "type": "address"
        }
      ],
      "stateMutability": "nonpayable",
      "type": "constructor"
    },
    {
      "inputs": [
        {
          "internalType": "address",
          "name": "_token0",
          "type": "address"
        },
        {
          "internalType": "address",
          "name": "_token1",
          "type": "address"
        }
      ],
      "name": "getStakeAmount",
      "outputs": [
        {
          "internalType": "uint256",
          "name": "atoken0",
          "type": "uint256"
        },
        {
          "internalType": "uint256",
          "name": "atoken1",
          "type": "uint256"
        }
      ],
      "stateMutability": "view",
      "type": "function"
    },
    {
      "inputs": [
        {
          "internalType": "address",
          "name": "_token0",
          "type": "address"
        },
        {
          "internalType": "address",
          "name": "_token1",
          "type": "address"
        },
        {
          "internalType": "uint256",
          "name": "amountToken0",
          "type": "uint256"
        },
        {
          "internalType": "uint256",
          "name": "amountToken1",
          "type": "uint256"
        }
      ],
      "name": "stake",
      "outputs": [],
      "stateMutability": "nonpayable",
      "type": "function"
    },
    {
      "inputs": [
        {
          "internalType": "address",
          "name": "_token0",
          "type": "address"
        },
        {
          "internalType": "address",
          "name": "_token1",
          "type": "address"
        },
        {
          "internalType": "uint8",
          "name": "percent",
          "type": "uint8"
        }
      ],
      "name": "unstake",
      "outputs": [],
      "stateMutability": "nonpayable",
      "type": "function"
    }
  ],
  "bytecode": "0x60806040523480156200001157600080fd5b5060405162001a2738038062001a27833981810160405281019062000037919062000095565b806000806101000a81548173ffffffffffffffffffffffffffffffffffffffff021916908373ffffffffffffffffffffffffffffffffffffffff160217905550506200010f565b6000815190506200008f81620000f5565b92915050565b600060208284031215620000a857600080fd5b6000620000b8848285016200007e565b91505092915050565b6000620000ce82620000d5565b9050919050565b600073ffffffffffffffffffffffffffffffffffffffff82169050919050565b6200010081620000c1565b81146200010c57600080fd5b50565b611908806200011f6000396000f3fe608060405234801561001057600080fd5b50600436106100415760003560e01c8063e851b5fc14610046578063f8a75c6014610077578063fdeaab6d14610093575b600080fd5b610060600480360381019061005b9190611428565b6100af565b60405161006e929190611787565b60405180910390f35b610091600480360381019061008c91906114c7565b610581565b005b6100ad60048036038101906100a89190611464565b610a85565b005b600080600073ffffffffffffffffffffffffffffffffffffffff1660008054906101000a900473ffffffffffffffffffffffffffffffffffffffff1673ffffffffffffffffffffffffffffffffffffffff16633fa1e0c886866040518363ffffffff1660e01b81526004016101259291906116ac565b60206040518083038186803b15801561013d57600080fd5b505afa158015610151573d6000803e3d6000fd5b505050506040513d601f19601f8201168201806040525081019061017591906113ff565b73ffffffffffffffffffffffffffffffffffffffff1614158061026f5750600073ffffffffffffffffffffffffffffffffffffffff1660008054906101000a900473ffffffffffffffffffffffffffffffffffffffff1673ffffffffffffffffffffffffffffffffffffffff16633fa1e0c885876040518363ffffffff1660e01b81526004016102069291906116ac565b60206040518083038186803b15801561021e57600080fd5b505afa158015610232573d6000803e3d6000fd5b505050506040513d601f19601f8201168201806040525081019061025691906113ff565b73ffffffffffffffffffffffffffffffffffffffff1614155b6102ae576040517f08c379a00000000000000000000000000000000000000000000000000000000081526004016102a59061174c565b60405180910390fd5b60008073ffffffffffffffffffffffffffffffffffffffff1660008054906101000a900473ffffffffffffffffffffffffffffffffffffffff1673ffffffffffffffffffffffffffffffffffffffff16633fa1e0c887876040518363ffffffff1660e01b81526004016103229291906116ac565b60206040518083038186803b15801561033a57600080fd5b505afa15801561034e573d6000803e3d6000fd5b505050506040513d601f19601f8201168201806040525081019061037291906113ff565b73ffffffffffffffffffffffffffffffffffffffff161461043f5760008054906101000a900473ffffffffffffffffffffffffffffffffffffffff1673ffffffffffffffffffffffffffffffffffffffff16633fa1e0c886866040518363ffffffff1660e01b81526004016103e89291906116ac565b60206040518083038186803b15801561040057600080fd5b505afa158015610414573d6000803e3d6000fd5b505050506040513d601f19601f8201168201806040525081019061043891906113ff565b90506104ed565b60008054906101000a900473ffffffffffffffffffffffffffffffffffffffff1673ffffffffffffffffffffffffffffffffffffffff16633fa1e0c885876040518363ffffffff1660e01b815260040161049a9291906116ac565b60206040518083038186803b1580156104b257600080fd5b505afa1580156104c6573d6000803e3d6000fd5b505050506040513d601f19601f820116820180604052508101906104ea91906113ff565b90505b8073ffffffffffffffffffffffffffffffffffffffff16630c2eb403336040518263ffffffff1660e01b81526004016105269190611691565b604080518083038186803b15801561053d57600080fd5b505afa158015610551573d6000803e3d6000fd5b505050506040513d601f19601f820116820180604052508101906105759190611568565b92509250509250929050565b60008160ff16118015610598575060648160ff1611155b6105d7576040517f08c379a00000000000000000000000000000000000000000000000000000000081526004016105ce9061172c565b60405180910390fd5b600073ffffffffffffffffffffffffffffffffffffffff1660008054906101000a900473ffffffffffffffffffffffffffffffffffffffff1673ffffffffffffffffffffffffffffffffffffffff16633fa1e0c885856040518363ffffffff1660e01b815260040161064a9291906116ac565b60206040518083038186803b15801561066257600080fd5b505afa158015610676573d6000803e3d6000fd5b505050506040513d601f19601f8201168201806040525081019061069a91906113ff565b73ffffffffffffffffffffffffffffffffffffffff161415806107945750600073ffffffffffffffffffffffffffffffffffffffff1660008054906101000a900473ffffffffffffffffffffffffffffffffffffffff1673ffffffffffffffffffffffffffffffffffffffff16633fa1e0c884866040518363ffffffff1660e01b815260040161072b9291906116ac565b60206040518083038186803b15801561074357600080fd5b505afa158015610757573d6000803e3d6000fd5b505050506040513d601f19601f8201168201806040525081019061077b91906113ff565b73ffffffffffffffffffffffffffffffffffffffff1614155b6107d3576040517f08c379a00000000000000000000000000000000000000000000000000000000081526004016107ca9061174c565b60405180910390fd5b60008073ffffffffffffffffffffffffffffffffffffffff1660008054906101000a900473ffffffffffffffffffffffffffffffffffffffff1673ffffffffffffffffffffffffffffffffffffffff16633fa1e0c886866040518363ffffffff1660e01b81526004016108479291906116ac565b60206040518083038186803b15801561085f57600080fd5b505afa158015610873573d6000803e3d6000fd5b505050506040513d601f19601f8201168201806040525081019061089791906113ff565b73ffffffffffffffffffffffffffffffffffffffff16146109645760008054906101000a900473ffffffffffffffffffffffffffffffffffffffff1673ffffffffffffffffffffffffffffffffffffffff16633fa1e0c885856040518363ffffffff1660e01b815260040161090d9291906116ac565b60206040518083038186803b15801561092557600080fd5b505afa158015610939573d6000803e3d6000fd5b505050506040513d601f19601f8201168201806040525081019061095d91906113ff565b9050610a12565b60008054906101000a900473ffffffffffffffffffffffffffffffffffffffff1673ffffffffffffffffffffffffffffffffffffffff16633fa1e0c884866040518363ffffffff1660e01b81526004016109bf9291906116ac565b60206040518083038186803b1580156109d757600080fd5b505afa1580156109eb573d6000803e3d6000fd5b505050506040513d601f19601f82011682018060405250810190610a0f91906113ff565b90505b8073ffffffffffffffffffffffffffffffffffffffff16633f09748183336040518363ffffffff1660e01b8152600401610a4d9291906117e7565b600060405180830381600087803b158015610a6757600080fd5b505af1158015610a7b573d6000803e3d6000fd5b5050505050505050565b600082118015610a955750600081115b610ad4576040517f08c379a0000000000000000000000000000000000000000000000000000000008152600401610acb9061170c565b60405180910390fd5b600073ffffffffffffffffffffffffffffffffffffffff1660008054906101000a900473ffffffffffffffffffffffffffffffffffffffff1673ffffffffffffffffffffffffffffffffffffffff16633fa1e0c886866040518363ffffffff1660e01b8152600401610b479291906116ac565b60206040518083038186803b158015610b5f57600080fd5b505afa158015610b73573d6000803e3d6000fd5b505050506040513d601f19601f82011682018060405250810190610b9791906113ff565b73ffffffffffffffffffffffffffffffffffffffff16141580610c915750600073ffffffffffffffffffffffffffffffffffffffff1660008054906101000a900473ffffffffffffffffffffffffffffffffffffffff1673ffffffffffffffffffffffffffffffffffffffff16633fa1e0c885876040518363ffffffff1660e01b8152600401610c289291906116ac565b60206040518083038186803b158015610c4057600080fd5b505afa158015610c54573d6000803e3d6000fd5b505050506040513d601f19601f82011682018060405250810190610c7891906113ff565b73ffffffffffffffffffffffffffffffffffffffff1614155b610cd0576040517f08c379a0000000000000000000000000000000000000000000000000000000008152600401610cc79061174c565b60405180910390fd5b60008073ffffffffffffffffffffffffffffffffffffffff1660008054906101000a900473ffffffffffffffffffffffffffffffffffffffff1673ffffffffffffffffffffffffffffffffffffffff16633fa1e0c887876040518363ffffffff1660e01b8152600401610d449291906116ac565b60206040518083038186803b158015610d5c57600080fd5b505afa158015610d70573d6000803e3d6000fd5b505050506040513d601f19601f82011682018060405250810190610d9491906113ff565b73ffffffffffffffffffffffffffffffffffffffff1614610e615760008054906101000a900473ffffffffffffffffffffffffffffffffffffffff1673ffffffffffffffffffffffffffffffffffffffff16633fa1e0c886866040518363ffffffff1660e01b8152600401610e0a9291906116ac565b60206040518083038186803b158015610e2257600080fd5b505afa158015610e36573d6000803e3d6000fd5b505050506040513d601f19601f82011682018060405250810190610e5a91906113ff565b9050610f33565b60008054906101000a900473ffffffffffffffffffffffffffffffffffffffff1673ffffffffffffffffffffffffffffffffffffffff16633fa1e0c885876040518363ffffffff1660e01b8152600401610ebc9291906116ac565b60206040518083038186803b158015610ed457600080fd5b505afa158015610ee8573d6000803e3d6000fd5b505050506040513d601f19601f82011682018060405250810190610f0c91906113ff565b90506000859050600085905080965081955060008590506000859050819550809650505050505b60008173ffffffffffffffffffffffffffffffffffffffff16639d7ce699846040518263ffffffff1660e01b8152600401610f6e919061176c565b60206040518083038186803b158015610f8657600080fd5b505afa158015610f9a573d6000803e3d6000fd5b505050506040513d601f19601f82011682018060405250810190610fbe919061153f565b905083811161115b578573ffffffffffffffffffffffffffffffffffffffff166323b872dd3384846040518463ffffffff1660e01b8152600401611004939291906116d5565b602060405180830381600087803b15801561101e57600080fd5b505af1158015611032573d6000803e3d6000fd5b505050506040513d601f19601f820116820180604052508101906110569190611516565b508473ffffffffffffffffffffffffffffffffffffffff166323b872dd3384866040518463ffffffff1660e01b8152600401611094939291906116d5565b602060405180830381600087803b1580156110ae57600080fd5b505af11580156110c2573d6000803e3d6000fd5b505050506040513d601f19601f820116820180604052508101906110e69190611516565b508173ffffffffffffffffffffffffffffffffffffffff1663778c3a748285336040518463ffffffff1660e01b8152600401611124939291906117b0565b600060405180830381600087803b15801561113e57600080fd5b505af1158015611152573d6000803e3d6000fd5b50505050611379565b60008273ffffffffffffffffffffffffffffffffffffffff1663bd13c1a6866040518263ffffffff1660e01b8152600401611196919061176c565b60206040518083038186803b1580156111ae57600080fd5b505afa1580156111c2573d6000803e3d6000fd5b505050506040513d601f19601f820116820180604052508101906111e6919061153f565b90508673ffffffffffffffffffffffffffffffffffffffff166323b872dd3330886040518463ffffffff1660e01b8152600401611225939291906116d5565b602060405180830381600087803b15801561123f57600080fd5b505af1158015611253573d6000803e3d6000fd5b505050506040513d601f19601f820116820180604052508101906112779190611516565b508573ffffffffffffffffffffffffffffffffffffffff166323b872dd3330846040518463ffffffff1660e01b81526004016112b5939291906116d5565b602060405180830381600087803b1580156112cf57600080fd5b505af11580156112e3573d6000803e3d6000fd5b505050506040513d601f19601f820116820180604052508101906113079190611516565b508273ffffffffffffffffffffffffffffffffffffffff1663778c3a748683336040518463ffffffff1660e01b8152600401611345939291906117b0565b600060405180830381600087803b15801561135f57600080fd5b505af1158015611373573d6000803e3d6000fd5b50505050505b505050505050565b60008135905061139081611876565b92915050565b6000815190506113a581611876565b92915050565b6000815190506113ba8161188d565b92915050565b6000813590506113cf816118a4565b92915050565b6000815190506113e4816118a4565b92915050565b6000813590506113f9816118bb565b92915050565b60006020828403121561141157600080fd5b600061141f84828501611396565b91505092915050565b6000806040838503121561143b57600080fd5b600061144985828601611381565b925050602061145a85828601611381565b9150509250929050565b6000806000806080858703121561147a57600080fd5b600061148887828801611381565b945050602061149987828801611381565b93505060406114aa878288016113c0565b92505060606114bb878288016113c0565b91505092959194509250565b6000806000606084860312156114dc57600080fd5b60006114ea86828701611381565b93505060206114fb86828701611381565b925050604061150c868287016113ea565b9150509250925092565b60006020828403121561152857600080fd5b6000611536848285016113ab565b91505092915050565b60006020828403121561155157600080fd5b600061155f848285016113d5565b91505092915050565b6000806040838503121561157b57600080fd5b6000611589858286016113d5565b925050602061159a858286016113d5565b9150509250929050565b6115ad81611821565b82525050565b60006115c0601883611810565b91507f50757420736f6d6520616d6f756e7420746f207374616b6500000000000000006000830152602082019050919050565b6000611600601f83611810565b91507f50657263656e74206d75737420696e206265747765656e20312d3130302121006000830152602082019050919050565b6000611640601983611810565b91507f53656c656374656420506f6f6c73206e6f7420657869737421000000000000006000830152602082019050919050565b61167c8161185f565b82525050565b61168b81611869565b82525050565b60006020820190506116a660008301846115a4565b92915050565b60006040820190506116c160008301856115a4565b6116ce60208301846115a4565b9392505050565b60006060820190506116ea60008301866115a4565b6116f760208301856115a4565b6117046040830184611673565b949350505050565b60006020820190508181036000830152611725816115b3565b9050919050565b60006020820190508181036000830152611745816115f3565b9050919050565b6000602082019050818103600083015261176581611633565b9050919050565b60006020820190506117816000830184611673565b92915050565b600060408201905061179c6000830185611673565b6117a96020830184611673565b9392505050565b60006060820190506117c56000830186611673565b6117d26020830185611673565b6117df60408301846115a4565b949350505050565b60006040820190506117fc6000830185611682565b61180960208301846115a4565b9392505050565b600082825260208201905092915050565b600061182c8261183f565b9050919050565b60008115159050919050565b600073ffffffffffffffffffffffffffffffffffffffff82169050919050565b6000819050919050565b600060ff82169050919050565b61187f81611821565b811461188a57600080fd5b50565b61189681611833565b81146118a157600080fd5b50565b6118ad8161185f565b81146118b857600080fd5b50565b6118c481611869565b81146118cf57600080fd5b5056fea2646970667358221220dd26d5981f2ab002b95ff9eb66d68150530b04801a64517f3681d6c91acc26af64736f6c63430008000033",
  "linkReferences": {},
  "deployedLinkReferences": {}
}