{
  "_format": "hh-sol-artifact-1",
  "contractName": "Swap",
  "sourceName": "contracts/Swap.sol",
  "abi": [
    {
      "inputs": [
        {
          "internalType": "address",
          "name": "_poolFactory",
          "type": "address"
        },
        {
          "internalType": "address",
          "name": "_MONEYBALL",
          "type": "address"
        }
      ],
      "stateMutability": "nonpayable",
      "type": "constructor"
    },
    {
      "inputs": [
        {
          "internalType": "address",
          "name": "_token0",
          "type": "address"
        },
        {
          "internalType": "address",
          "name": "_token1",
          "type": "address"
        },
        {
          "internalType": "uint256",
          "name": "_amountToken0",
          "type": "uint256"
        }
      ],
      "name": "getTokenOdds",
      "outputs": [
        {
          "internalType": "uint256",
          "name": "odds",
          "type": "uint256"
        }
      ],
      "stateMutability": "view",
      "type": "function"
    },
    {
      "inputs": [
        {
          "internalType": "address",
          "name": "_token0",
          "type": "address"
        },
        {
          "internalType": "address",
          "name": "_token1",
          "type": "address"
        },
        {
          "internalType": "uint256",
          "name": "_amountToken0",
          "type": "uint256"
        }
      ],
      "name": "swap",
      "outputs": [],
      "stateMutability": "nonpayable",
      "type": "function"
    }
  ],
  "bytecode": "0x60806040523480156200001157600080fd5b5060405162001248380380620012488339818101604052810190620000379190620000d7565b816000806101000a81548173ffffffffffffffffffffffffffffffffffffffff021916908373ffffffffffffffffffffffffffffffffffffffff16021790555080600160006101000a81548173ffffffffffffffffffffffffffffffffffffffff021916908373ffffffffffffffffffffffffffffffffffffffff160217905550505062000166565b600081519050620000d1816200014c565b92915050565b60008060408385031215620000eb57600080fd5b6000620000fb85828601620000c0565b92505060206200010e85828601620000c0565b9150509250929050565b600062000125826200012c565b9050919050565b600073ffffffffffffffffffffffffffffffffffffffff82169050919050565b620001578162000118565b81146200016357600080fd5b50565b6110d280620001766000396000f3fe608060405234801561001057600080fd5b50600436106100365760003560e01c80637003ea691461003b578063df791e501461006b575b600080fd5b61005560048036038101906100509190610cc8565b610087565b6040516100629190610e47565b60405180910390f35b61008560048036038101906100809190610cc8565b610708565b005b60008073ffffffffffffffffffffffffffffffffffffffff1660008054906101000a900473ffffffffffffffffffffffffffffffffffffffff1673ffffffffffffffffffffffffffffffffffffffff16633fa1e0c886866040518363ffffffff1660e01b81526004016100fb929190610dc7565b60206040518083038186803b15801561011357600080fd5b505afa158015610127573d6000803e3d6000fd5b505050506040513d601f19601f8201168201806040525081019061014b9190610c9f565b73ffffffffffffffffffffffffffffffffffffffff161415806102455750600073ffffffffffffffffffffffffffffffffffffffff1660008054906101000a900473ffffffffffffffffffffffffffffffffffffffff1673ffffffffffffffffffffffffffffffffffffffff16633fa1e0c885876040518363ffffffff1660e01b81526004016101dc929190610dc7565b60206040518083038186803b1580156101f457600080fd5b505afa158015610208573d6000803e3d6000fd5b505050506040513d601f19601f8201168201806040525081019061022c9190610c9f565b73ffffffffffffffffffffffffffffffffffffffff1614155b610284576040517f08c379a000000000000000000000000000000000000000000000000000000000815260040161027b90610e27565b60405180910390fd5b60008073ffffffffffffffffffffffffffffffffffffffff1660008054906101000a900473ffffffffffffffffffffffffffffffffffffffff1673ffffffffffffffffffffffffffffffffffffffff16633fa1e0c887876040518363ffffffff1660e01b81526004016102f8929190610dc7565b60206040518083038186803b15801561031057600080fd5b505afa158015610324573d6000803e3d6000fd5b505050506040513d601f19601f820116820180604052508101906103489190610c9f565b73ffffffffffffffffffffffffffffffffffffffff16146105345760008054906101000a900473ffffffffffffffffffffffffffffffffffffffff1673ffffffffffffffffffffffffffffffffffffffff16633fa1e0c886866040518363ffffffff1660e01b81526004016103be929190610dc7565b60206040518083038186803b1580156103d657600080fd5b505afa1580156103ea573d6000803e3d6000fd5b505050506040513d601f19601f8201168201806040525081019061040e9190610c9f565b905082838273ffffffffffffffffffffffffffffffffffffffff166313f5ecee6040518163ffffffff1660e01b815260040160206040518083038186803b15801561045857600080fd5b505afa15801561046c573d6000803e3d6000fd5b505050506040513d601f19601f820116820180604052508101906104909190610d40565b61049a9190610e9c565b8273ffffffffffffffffffffffffffffffffffffffff1663368e89e76040518163ffffffff1660e01b815260040160206040518083038186803b1580156104e057600080fd5b505afa1580156104f4573d6000803e3d6000fd5b505050506040513d601f19601f820116820180604052508101906105189190610d40565b6105229190610ef2565b61052c9190610f23565b915050610701565b60008054906101000a900473ffffffffffffffffffffffffffffffffffffffff1673ffffffffffffffffffffffffffffffffffffffff16633fa1e0c885876040518363ffffffff1660e01b815260040161058f929190610dc7565b60206040518083038186803b1580156105a757600080fd5b505afa1580156105bb573d6000803e3d6000fd5b505050506040513d601f19601f820116820180604052508101906105df9190610c9f565b905082838273ffffffffffffffffffffffffffffffffffffffff1663368e89e76040518163ffffffff1660e01b815260040160206040518083038186803b15801561062957600080fd5b505afa15801561063d573d6000803e3d6000fd5b505050506040513d601f19601f820116820180604052508101906106619190610d40565b61066b9190610e9c565b8273ffffffffffffffffffffffffffffffffffffffff166313f5ecee6040518163ffffffff1660e01b815260040160206040518083038186803b1580156106b157600080fd5b505afa1580156106c5573d6000803e3d6000fd5b505050506040513d601f19601f820116820180604052508101906106e99190610d40565b6106f39190610ef2565b6106fd9190610f23565b9150505b9392505050565b60006103e860038361071a9190610f23565b6107249190610ef2565b90508373ffffffffffffffffffffffffffffffffffffffff166323b872dd33600160009054906101000a900473ffffffffffffffffffffffffffffffffffffffff16846040518463ffffffff1660e01b815260040161078593929190610df0565b602060405180830381600087803b15801561079f57600080fd5b505af11580156107b3573d6000803e3d6000fd5b505050506040513d601f19601f820116820180604052508101906107d79190610d17565b5080826107e49190610f7d565b915060006107f3858585610087565b905060008073ffffffffffffffffffffffffffffffffffffffff1660008054906101000a900473ffffffffffffffffffffffffffffffffffffffff1673ffffffffffffffffffffffffffffffffffffffff16633fa1e0c888886040518363ffffffff1660e01b8152600401610869929190610dc7565b60206040518083038186803b15801561088157600080fd5b505afa158015610895573d6000803e3d6000fd5b505050506040513d601f19601f820116820180604052508101906108b99190610c9f565b73ffffffffffffffffffffffffffffffffffffffff1614610a835760008054906101000a900473ffffffffffffffffffffffffffffffffffffffff1673ffffffffffffffffffffffffffffffffffffffff16633fa1e0c887876040518363ffffffff1660e01b815260040161092f929190610dc7565b60206040518083038186803b15801561094757600080fd5b505afa15801561095b573d6000803e3d6000fd5b505050506040513d601f19601f8201168201806040525081019061097f9190610c9f565b90508573ffffffffffffffffffffffffffffffffffffffff166323b872dd3383876040518463ffffffff1660e01b81526004016109be93929190610df0565b602060405180830381600087803b1580156109d857600080fd5b505af11580156109ec573d6000803e3d6000fd5b505050506040513d601f19601f82011682018060405250810190610a109190610d17565b508073ffffffffffffffffffffffffffffffffffffffff1663ec0df79a85846040518363ffffffff1660e01b8152600401610a4c929190610e62565b600060405180830381600087803b158015610a6657600080fd5b505af1158015610a7a573d6000803e3d6000fd5b50505050610c2e565b60008054906101000a900473ffffffffffffffffffffffffffffffffffffffff1673ffffffffffffffffffffffffffffffffffffffff16633fa1e0c886886040518363ffffffff1660e01b8152600401610ade929190610dc7565b60206040518083038186803b158015610af657600080fd5b505afa158015610b0a573d6000803e3d6000fd5b505050506040513d601f19601f82011682018060405250810190610b2e9190610c9f565b90508573ffffffffffffffffffffffffffffffffffffffff166323b872dd3383876040518463ffffffff1660e01b8152600401610b6d93929190610df0565b602060405180830381600087803b158015610b8757600080fd5b505af1158015610b9b573d6000803e3d6000fd5b505050506040513d601f19601f82011682018060405250810190610bbf9190610d17565b508073ffffffffffffffffffffffffffffffffffffffff1663c4c7936185846040518363ffffffff1660e01b8152600401610bfb929190610e62565b600060405180830381600087803b158015610c1557600080fd5b505af1158015610c29573d6000803e3d6000fd5b505050505b505050505050565b600081359050610c4581611057565b92915050565b600081519050610c5a81611057565b92915050565b600081519050610c6f8161106e565b92915050565b600081359050610c8481611085565b92915050565b600081519050610c9981611085565b92915050565b600060208284031215610cb157600080fd5b6000610cbf84828501610c4b565b91505092915050565b600080600060608486031215610cdd57600080fd5b6000610ceb86828701610c36565b9350506020610cfc86828701610c36565b9250506040610d0d86828701610c75565b9150509250925092565b600060208284031215610d2957600080fd5b6000610d3784828501610c60565b91505092915050565b600060208284031215610d5257600080fd5b6000610d6084828501610c8a565b91505092915050565b610d7281610fb1565b82525050565b6000610d85601983610e8b565b91507f53656c656374656420506f6f6c73206e6f7420657869737421000000000000006000830152602082019050919050565b610dc181610fef565b82525050565b6000604082019050610ddc6000830185610d69565b610de96020830184610d69565b9392505050565b6000606082019050610e056000830186610d69565b610e126020830185610d69565b610e1f6040830184610db8565b949350505050565b60006020820190508181036000830152610e4081610d78565b9050919050565b6000602082019050610e5c6000830184610db8565b92915050565b6000604082019050610e776000830185610db8565b610e846020830184610db8565b9392505050565b600082825260208201905092915050565b6000610ea782610fef565b9150610eb283610fef565b9250827fffffffffffffffffffffffffffffffffffffffffffffffffffffffffffffffff03821115610ee757610ee6610ff9565b5b828201905092915050565b6000610efd82610fef565b9150610f0883610fef565b925082610f1857610f17611028565b5b828204905092915050565b6000610f2e82610fef565b9150610f3983610fef565b9250817fffffffffffffffffffffffffffffffffffffffffffffffffffffffffffffffff0483118215151615610f7257610f71610ff9565b5b828202905092915050565b6000610f8882610fef565b9150610f9383610fef565b925082821015610fa657610fa5610ff9565b5b828203905092915050565b6000610fbc82610fcf565b9050919050565b60008115159050919050565b600073ffffffffffffffffffffffffffffffffffffffff82169050919050565b6000819050919050565b7f4e487b7100000000000000000000000000000000000000000000000000000000600052601160045260246000fd5b7f4e487b7100000000000000000000000000000000000000000000000000000000600052601260045260246000fd5b61106081610fb1565b811461106b57600080fd5b50565b61107781610fc3565b811461108257600080fd5b50565b61108e81610fef565b811461109957600080fd5b5056fea2646970667358221220a63a2f15d7f06cba50091545fb9e7bf525bce2161f6206270a3c44e1e987768364736f6c63430008000033",
  "linkReferences": {},
  "deployedLinkReferences": {}
}