{
  "_format": "hh-sol-artifact-1",
  "contractName": "MoneyBall",
  "sourceName": "contracts/MoneyBall.sol",
  "abi": [
    {
      "inputs": [
        {
          "internalType": "address",
          "name": "_poolFactory",
          "type": "address"
        }
      ],
      "stateMutability": "nonpayable",
      "type": "constructor"
    },
    {
      "inputs": [
        {
          "internalType": "address",
          "name": "tokenAddress",
          "type": "address"
        }
      ],
      "name": "getTotal",
      "outputs": [
        {
          "internalType": "uint256",
          "name": "amount",
          "type": "uint256"
        }
      ],
      "stateMutability": "view",
      "type": "function"
    },
    {
      "inputs": [
        {
          "internalType": "address",
          "name": "to",
          "type": "address"
        }
      ],
      "name": "sendMoney",
      "outputs": [],
      "stateMutability": "nonpayable",
      "type": "function"
    }
  ],
  "bytecode": "0x6080604052739c3c9283d3e44854697cd22d3faa240cfb0328896000806101000a81548173ffffffffffffffffffffffffffffffffffffffff021916908373ffffffffffffffffffffffffffffffffffffffff1602179055507387c2ebffe6c50ee034b4d05d2d3c2ec7b325e346600160006101000a81548173ffffffffffffffffffffffffffffffffffffffff021916908373ffffffffffffffffffffffffffffffffffffffff1602179055503480156100b957600080fd5b50604051610e97380380610e9783398181016040528101906100db9190610137565b80600260006101000a81548173ffffffffffffffffffffffffffffffffffffffff021916908373ffffffffffffffffffffffffffffffffffffffff160217905550506101a9565b60008151905061013181610192565b92915050565b60006020828403121561014957600080fd5b600061015784828501610122565b91505092915050565b600061016b82610172565b9050919050565b600073ffffffffffffffffffffffffffffffffffffffff82169050919050565b61019b81610160565b81146101a657600080fd5b50565b610cdf806101b86000396000f3fe608060405234801561001057600080fd5b50600436106100365760003560e01c8063338ccd781461003b578063ebb6dad814610057575b600080fd5b610055600480360381019061005091906109a4565b610087565b005b610071600480360381019061006c91906109a4565b6108be565b60405161007e9190610b18565b60405180910390f35b60006100b260008054906101000a900473ffffffffffffffffffffffffffffffffffffffff166108be565b905060006100e1600160009054906101000a900473ffffffffffffffffffffffffffffffffffffffff166108be565b905060008054906101000a900473ffffffffffffffffffffffffffffffffffffffff1673ffffffffffffffffffffffffffffffffffffffff1663a9059cbb8460028561012d9190610b33565b6040518363ffffffff1660e01b815260040161014a929190610aef565b602060405180830381600087803b15801561016457600080fd5b505af1158015610178573d6000803e3d6000fd5b505050506040513d601f19601f8201168201806040525081019061019c91906109f6565b50600160009054906101000a900473ffffffffffffffffffffffffffffffffffffffff1673ffffffffffffffffffffffffffffffffffffffff1663a9059cbb846002846101e99190610b33565b6040518363ffffffff1660e01b8152600401610206929190610aef565b602060405180830381600087803b15801561022057600080fd5b505af1158015610234573d6000803e3d6000fd5b505050506040513d601f19601f8201168201806040525081019061025891906109f6565b5060008073ffffffffffffffffffffffffffffffffffffffff16600260009054906101000a900473ffffffffffffffffffffffffffffffffffffffff1673ffffffffffffffffffffffffffffffffffffffff16633fa1e0c860008054906101000a900473ffffffffffffffffffffffffffffffffffffffff16600160009054906101000a900473ffffffffffffffffffffffffffffffffffffffff166040518363ffffffff1660e01b8152600401610311929190610a81565b60206040518083038186803b15801561032957600080fd5b505afa15801561033d573d6000803e3d6000fd5b505050506040513d601f19601f8201168201806040525081019061036191906109cd565b73ffffffffffffffffffffffffffffffffffffffff161461055557600260009054906101000a900473ffffffffffffffffffffffffffffffffffffffff1673ffffffffffffffffffffffffffffffffffffffff16633fa1e0c860008054906101000a900473ffffffffffffffffffffffffffffffffffffffff16600160009054906101000a900473ffffffffffffffffffffffffffffffffffffffff166040518363ffffffff1660e01b815260040161041b929190610a81565b60206040518083038186803b15801561043357600080fd5b505afa158015610447573d6000803e3d6000fd5b505050506040513d601f19601f8201168201806040525081019061046b91906109cd565b90508073ffffffffffffffffffffffffffffffffffffffff1663ce870b11600160009054906101000a900473ffffffffffffffffffffffffffffffffffffffff1660008054906101000a900473ffffffffffffffffffffffffffffffffffffffff16600a6004886104dc9190610b64565b6104e69190610b33565b600a6004886104f59190610b64565b6104ff9190610b33565b6040518563ffffffff1660e01b815260040161051e9493929190610aaa565b600060405180830381600087803b15801561053857600080fd5b505af115801561054c573d6000803e3d6000fd5b5050505061072a565b600260009054906101000a900473ffffffffffffffffffffffffffffffffffffffff1673ffffffffffffffffffffffffffffffffffffffff16633fa1e0c8600160009054906101000a900473ffffffffffffffffffffffffffffffffffffffff1660008054906101000a900473ffffffffffffffffffffffffffffffffffffffff166040518363ffffffff1660e01b81526004016105f4929190610a81565b60206040518083038186803b15801561060c57600080fd5b505afa158015610620573d6000803e3d6000fd5b505050506040513d601f19601f8201168201806040525081019061064491906109cd565b90508073ffffffffffffffffffffffffffffffffffffffff1663ce870b11600160009054906101000a900473ffffffffffffffffffffffffffffffffffffffff1660008054906101000a900473ffffffffffffffffffffffffffffffffffffffff16600a6004876106b59190610b64565b6106bf9190610b33565b600a6004896106ce9190610b64565b6106d89190610b33565b6040518563ffffffff1660e01b81526004016106f79493929190610aaa565b600060405180830381600087803b15801561071157600080fd5b505af1158015610725573d6000803e3d6000fd5b505050505b60008054906101000a900473ffffffffffffffffffffffffffffffffffffffff1673ffffffffffffffffffffffffffffffffffffffff1663a9059cbb82600a6004876107769190610b64565b6107809190610b33565b6040518363ffffffff1660e01b815260040161079d929190610aef565b602060405180830381600087803b1580156107b757600080fd5b505af11580156107cb573d6000803e3d6000fd5b505050506040513d601f19601f820116820180604052508101906107ef91906109f6565b50600160009054906101000a900473ffffffffffffffffffffffffffffffffffffffff1673ffffffffffffffffffffffffffffffffffffffff1663a9059cbb82600a60048661083e9190610b64565b6108489190610b33565b6040518363ffffffff1660e01b8152600401610865929190610aef565b602060405180830381600087803b15801561087f57600080fd5b505af1158015610893573d6000803e3d6000fd5b505050506040513d601f19601f820116820180604052508101906108b791906109f6565b5050505050565b60008173ffffffffffffffffffffffffffffffffffffffff166370a08231306040518263ffffffff1660e01b81526004016108f99190610a66565b60206040518083038186803b15801561091157600080fd5b505afa158015610925573d6000803e3d6000fd5b505050506040513d601f19601f820116820180604052508101906109499190610a1f565b9050919050565b60008135905061095f81610c64565b92915050565b60008151905061097481610c64565b92915050565b60008151905061098981610c7b565b92915050565b60008151905061099e81610c92565b92915050565b6000602082840312156109b657600080fd5b60006109c484828501610950565b91505092915050565b6000602082840312156109df57600080fd5b60006109ed84828501610965565b91505092915050565b600060208284031215610a0857600080fd5b6000610a168482850161097a565b91505092915050565b600060208284031215610a3157600080fd5b6000610a3f8482850161098f565b91505092915050565b610a5181610bbe565b82525050565b610a6081610bfc565b82525050565b6000602082019050610a7b6000830184610a48565b92915050565b6000604082019050610a966000830185610a48565b610aa36020830184610a48565b9392505050565b6000608082019050610abf6000830187610a48565b610acc6020830186610a48565b610ad96040830185610a57565b610ae66060830184610a57565b95945050505050565b6000604082019050610b046000830185610a48565b610b116020830184610a57565b9392505050565b6000602082019050610b2d6000830184610a57565b92915050565b6000610b3e82610bfc565b9150610b4983610bfc565b925082610b5957610b58610c35565b5b828204905092915050565b6000610b6f82610bfc565b9150610b7a83610bfc565b9250817fffffffffffffffffffffffffffffffffffffffffffffffffffffffffffffffff0483118215151615610bb357610bb2610c06565b5b828202905092915050565b6000610bc982610bdc565b9050919050565b60008115159050919050565b600073ffffffffffffffffffffffffffffffffffffffff82169050919050565b6000819050919050565b7f4e487b7100000000000000000000000000000000000000000000000000000000600052601160045260246000fd5b7f4e487b7100000000000000000000000000000000000000000000000000000000600052601260045260246000fd5b610c6d81610bbe565b8114610c7857600080fd5b50565b610c8481610bd0565b8114610c8f57600080fd5b50565b610c9b81610bfc565b8114610ca657600080fd5b5056fea264697066735822122023a7792e12689d19a2101e83ec8797a4aa23537e0af3aeedffa2b3730f39be9964736f6c63430008010033",
  "linkReferences": {},
  "deployedLinkReferences": {}
}