{
  "_format": "hh-sol-artifact-1",
  "contractName": "VoteSession",
  "sourceName": "contracts/vote/VoteSession.sol",
  "abi": [
    {
      "inputs": [
        {
          "internalType": "uint256",
          "name": "_voteId",
          "type": "uint256"
        },
        {
          "internalType": "address",
          "name": "_voteExchangeAddress",
          "type": "address"
        },
        {
          "internalType": "address",
          "name": "_coordinator",
          "type": "address"
        },
        {
          "internalType": "address",
          "name": "_link",
          "type": "address"
        },
        {
          "internalType": "bytes32",
          "name": "_hash",
          "type": "bytes32"
        },
        {
          "internalType": "uint256",
          "name": "_fee",
          "type": "uint256"
        }
      ],
      "stateMutability": "nonpayable",
      "type": "constructor"
    },
    {
      "inputs": [],
      "name": "award",
      "outputs": [
        {
          "internalType": "address",
          "name": "",
          "type": "address"
        }
      ],
      "stateMutability": "view",
      "type": "function"
    },
    {
      "inputs": [
        {
          "internalType": "string",
          "name": "",
          "type": "string"
        }
      ],
      "name": "candidate",
      "outputs": [
        {
          "internalType": "uint256",
          "name": "",
          "type": "uint256"
        }
      ],
      "stateMutability": "view",
      "type": "function"
    },
    {
      "inputs": [
        {
          "internalType": "uint256",
          "name": "",
          "type": "uint256"
        }
      ],
      "name": "candidateName",
      "outputs": [
        {
          "internalType": "string",
          "name": "",
          "type": "string"
        }
      ],
      "stateMutability": "view",
      "type": "function"
    },
    {
      "inputs": [],
      "name": "endVote",
      "outputs": [],
      "stateMutability": "nonpayable",
      "type": "function"
    },
    {
      "inputs": [],
      "name": "fee",
      "outputs": [
        {
          "internalType": "uint256",
          "name": "",
          "type": "uint256"
        }
      ],
      "stateMutability": "view",
      "type": "function"
    },
    {
      "inputs": [],
      "name": "getCandidateName",
      "outputs": [
        {
          "internalType": "string[]",
          "name": "",
          "type": "string[]"
        }
      ],
      "stateMutability": "view",
      "type": "function"
    },
    {
      "inputs": [],
      "name": "keyhash",
      "outputs": [
        {
          "internalType": "bytes32",
          "name": "",
          "type": "bytes32"
        }
      ],
      "stateMutability": "view",
      "type": "function"
    },
    {
      "inputs": [],
      "name": "owner",
      "outputs": [
        {
          "internalType": "address",
          "name": "",
          "type": "address"
        }
      ],
      "stateMutability": "view",
      "type": "function"
    },
    {
      "inputs": [
        {
          "internalType": "bytes32",
          "name": "requestId",
          "type": "bytes32"
        },
        {
          "internalType": "uint256",
          "name": "randomness",
          "type": "uint256"
        }
      ],
      "name": "rawFulfillRandomness",
      "outputs": [],
      "stateMutability": "nonpayable",
      "type": "function"
    },
    {
      "inputs": [
        {
          "internalType": "address",
          "name": "_voter",
          "type": "address"
        }
      ],
      "name": "remainingVote",
      "outputs": [
        {
          "internalType": "uint256",
          "name": "",
          "type": "uint256"
        }
      ],
      "stateMutability": "view",
      "type": "function"
    },
    {
      "inputs": [],
      "name": "status",
      "outputs": [
        {
          "internalType": "enum VoteSession.voteState",
          "name": "",
          "type": "uint8"
        }
      ],
      "stateMutability": "view",
      "type": "function"
    },
    {
      "inputs": [
        {
          "internalType": "uint256",
          "name": "_amount",
          "type": "uint256"
        },
        {
          "internalType": "string",
          "name": "_twitterId",
          "type": "string"
        }
      ],
      "name": "vote",
      "outputs": [],
      "stateMutability": "nonpayable",
      "type": "function"
    },
    {
      "inputs": [],
      "name": "voteExchange",
      "outputs": [
        {
          "internalType": "contract VoteExchange",
          "name": "",
          "type": "address"
        }
      ],
      "stateMutability": "view",
      "type": "function"
    },
    {
      "inputs": [],
      "name": "voteId",
      "outputs": [
        {
          "internalType": "uint256",
          "name": "",
          "type": "uint256"
        }
      ],
      "stateMutability": "view",
      "type": "function"
    },
    {
      "inputs": [
        {
          "internalType": "address",
          "name": "",
          "type": "address"
        }
      ],
      "name": "voteMap",
      "outputs": [
        {
          "internalType": "uint256",
          "name": "",
          "type": "uint256"
        }
      ],
      "stateMutability": "view",
      "type": "function"
    },
    {
      "inputs": [
        {
          "internalType": "uint256",
          "name": "",
          "type": "uint256"
        }
      ],
      "name": "votePool",
      "outputs": [
        {
          "internalType": "address",
          "name": "",
          "type": "address"
        }
      ],
      "stateMutability": "view",
      "type": "function"
    },
    {
      "inputs": [],
      "name": "winner",
      "outputs": [
        {
          "internalType": "string",
          "name": "",
          "type": "string"
        }
      ],
      "stateMutability": "view",
      "type": "function"
    }
  ],
  "bytecode": "0x60c06040523480156200001157600080fd5b506040516200246738038062002467833981810160405281019062000037919062000275565b83838173ffffffffffffffffffffffffffffffffffffffff1660a08173ffffffffffffffffffffffffffffffffffffffff1660601b815250508073ffffffffffffffffffffffffffffffffffffffff1660808173ffffffffffffffffffffffffffffffffffffffff1660601b815250505050816009819055508060088190555032600660006101000a81548173ffffffffffffffffffffffffffffffffffffffff021916908373ffffffffffffffffffffffffffffffffffffffff160217905550856001819055506000600b60146101000a81548160ff021916908360018111156200014c577f4e487b7100000000000000000000000000000000000000000000000000000000600052602160045260246000fd5b021790555084600560006101000a81548173ffffffffffffffffffffffffffffffffffffffff021916908373ffffffffffffffffffffffffffffffffffffffff160217905550600560009054906101000a900473ffffffffffffffffffffffffffffffffffffffff1673ffffffffffffffffffffffffffffffffffffffff16630494963d6040518163ffffffff1660e01b8152600401600060405180830381600087803b158015620001fd57600080fd5b505af115801562000212573d6000803e3d6000fd5b505050508060088190555081600981905550505050505050620003a1565b600081519050620002418162000353565b92915050565b60008151905062000258816200036d565b92915050565b6000815190506200026f8162000387565b92915050565b60008060008060008060c087890312156200028f57600080fd5b60006200029f89828a016200025e565b9650506020620002b289828a0162000230565b9550506040620002c589828a0162000230565b9450506060620002d889828a0162000230565b9350506080620002eb89828a0162000247565b92505060a0620002fe89828a016200025e565b9150509295509295509295565b6000620003188262000329565b9050919050565b6000819050919050565b600073ffffffffffffffffffffffffffffffffffffffff82169050919050565b6000819050919050565b6200035e816200030b565b81146200036a57600080fd5b50565b62000378816200031f565b81146200038457600080fd5b50565b620003928162000349565b81146200039e57600080fd5b50565b60805160601c60a05160601c612093620003d46000396000818161094c01526110d60152600061109a01526120936000f3fe608060405234801561001057600080fd5b506004361061010b5760003560e01c806394985ddd116100a2578063dfbf53ae11610071578063dfbf53ae14610296578063e9fc4856146102b4578063ec79f04c146102e4578063f54769d014610302578063fbb39651146103325761010b565b806394985ddd14610222578063965844a61461023e578063b92239461461026e578063ddca3f43146102785761010b565b806341a494c5116100de57806341a494c5146101aa57806369ebe78e146101c857806384e6c0a7146101e65780638da5cb5b146102045761010b565b8063200d2ed214610110578063241084751461012e578063300062811461014a57806337509f4c1461017a575b600080fd5b610118610350565b6040516101259190611a73565b60405180910390f35b610148600480360381019061014391906114f9565b610363565b005b610164600480360381019061015f91906114a7565b610734565b6040516101719190611a8e565b60405180910390f35b610194600480360381019061018f91906114a7565b6107e0565b6040516101a19190611954565b60405180910390f35b6101b261081f565b6040516101bf9190611954565b60405180910390f35b6101d0610845565b6040516101dd91906119cf565b60405180910390f35b6101ee61084b565b6040516101fb91906119ad565b60405180910390f35b61020c610924565b6040516102199190611954565b60405180910390f35b61023c6004803603810190610237919061142a565b61094a565b005b610258600480360381019061025391906113d8565b6109e6565b6040516102659190611b90565b60405180910390f35b6102766109fe565b005b610280610cd4565b60405161028d9190611b90565b60405180910390f35b61029e610cda565b6040516102ab9190611a8e565b60405180910390f35b6102ce60048036038101906102c991906113d8565b610d68565b6040516102db9190611b90565b60405180910390f35b6102ec610e79565b6040516102f99190611a58565b60405180910390f35b61031c60048036038101906103179190611466565b610e9f565b6040516103299190611b90565b60405180910390f35b61033a610ecd565b6040516103479190611b90565b60405180910390f35b600b60149054906101000a900460ff1681565b6000600181111561039d577f4e487b7100000000000000000000000000000000000000000000000000000000600052602160045260246000fd5b600b60149054906101000a900460ff1660018111156103e5577f4e487b7100000000000000000000000000000000000000000000000000000000600052602160045260246000fd5b14610425576040517f08c379a000000000000000000000000000000000000000000000000000000000815260040161041c90611ad0565b60405180910390fd5b600082118015610436575060648211155b610475576040517f08c379a000000000000000000000000000000000000000000000000000000000815260040161046c90611ab0565b60405180910390fd5b600260003373ffffffffffffffffffffffffffffffffffffffff1673ffffffffffffffffffffffffffffffffffffffff16815260200190815260200160002054826104c09190611c99565b670de0b6b3a7640000600560009054906101000a900473ffffffffffffffffffffffffffffffffffffffff1673ffffffffffffffffffffffffffffffffffffffff166395f226e4336040518263ffffffff1660e01b81526004016105249190611954565b60206040518083038186803b15801561053c57600080fd5b505afa158015610550573d6000803e3d6000fd5b505050506040513d601f19601f8201168201806040525081019061057491906114d0565b61057e9190611cef565b10156105bf576040517f08c379a00000000000000000000000000000000000000000000000000000000081526004016105b690611b10565b60405180910390fd5b60006003826040516105d1919061193d565b908152602001604051809103902054141561062357600481908060018154018082558091505060019003906000526020600020016000909190919091509080519060200190610621929190611264565b505b81600382604051610634919061193d565b908152602001604051809103902060008282546106519190611c99565b9250508190555081600260003373ffffffffffffffffffffffffffffffffffffffff1673ffffffffffffffffffffffffffffffffffffffff16815260200190815260200160002060008282546106a79190611c99565b9250508190555060005b8281101561072f576007339080600181540180825580915050600190039060005260206000200160009091909190916101000a81548173ffffffffffffffffffffffffffffffffffffffff021916908373ffffffffffffffffffffffffffffffffffffffff160217905550808061072790611e63565b9150506106b1565b505050565b6004818154811061074457600080fd5b90600052602060002001600091509050805461075f90611e31565b80601f016020809104026020016040519081016040528092919081815260200182805461078b90611e31565b80156107d85780601f106107ad576101008083540402835291602001916107d8565b820191906000526020600020905b8154815290600101906020018083116107bb57829003601f168201915b505050505081565b600781815481106107f057600080fd5b906000526020600020016000915054906101000a900473ffffffffffffffffffffffffffffffffffffffff1681565b600b60009054906101000a900473ffffffffffffffffffffffffffffffffffffffff1681565b60095481565b60606004805480602002602001604051908101604052809291908181526020016000905b8282101561091b57838290600052602060002001805461088e90611e31565b80601f01602080910402602001604051908101604052809291908181526020018280546108ba90611e31565b80156109075780601f106108dc57610100808354040283529160200191610907565b820191906000526020600020905b8154815290600101906020018083116108ea57829003601f168201915b50505050508152602001906001019061086f565b50505050905090565b600660009054906101000a900473ffffffffffffffffffffffffffffffffffffffff1681565b7f000000000000000000000000000000000000000000000000000000000000000073ffffffffffffffffffffffffffffffffffffffff163373ffffffffffffffffffffffffffffffffffffffff16146109d8576040517f08c379a00000000000000000000000000000000000000000000000000000000081526004016109cf90611b30565b60405180910390fd5b6109e28282610ed3565b5050565b60026020528060005260406000206000915090505481565b600660009054906101000a900473ffffffffffffffffffffffffffffffffffffffff1673ffffffffffffffffffffffffffffffffffffffff163273ffffffffffffffffffffffffffffffffffffffff1614610a8e576040517f08c379a0000000000000000000000000000000000000000000000000000000008152600401610a8590611b50565b60405180910390fd5b6001600b60146101000a81548160ff02191690836001811115610ada577f4e487b7100000000000000000000000000000000000000000000000000000000600052602160045260246000fd5b02179055506000610aef600954600854611096565b9050600560009054906101000a900473ffffffffffffffffffffffffffffffffffffffff1673ffffffffffffffffffffffffffffffffffffffff1663ddd1b0c86040518163ffffffff1660e01b8152600401600060405180830381600087803b158015610b5b57600080fd5b505af1158015610b6f573d6000803e3d6000fd5b505050506000606060005b600480549050811015610cb757600060048281548110610bc3577f4e487b7100000000000000000000000000000000000000000000000000000000600052603260045260246000fd5b906000526020600020018054610bd890611e31565b80601f0160208091040260200160405190810160405280929190818152602001828054610c0490611e31565b8015610c515780601f10610c2657610100808354040283529160200191610c51565b820191906000526020600020905b815481529060010190602001808311610c3457829003601f168201915b50505050509050600381604051610c68919061193d565b908152602001604051809103902054841015610ca357600381604051610c8e919061193d565b90815260200160405180910390205493508092505b508080610caf90611e63565b915050610b7a565b5080600a9080519060200190610cce929190611264565b50505050565b60085481565b600a8054610ce790611e31565b80601f0160208091040260200160405190810160405280929190818152602001828054610d1390611e31565b8015610d605780601f10610d3557610100808354040283529160200191610d60565b820191906000526020600020905b815481529060010190602001808311610d4357829003601f168201915b505050505081565b6000600260008373ffffffffffffffffffffffffffffffffffffffff1673ffffffffffffffffffffffffffffffffffffffff16815260200190815260200160002054670de0b6b3a7640000600560009054906101000a900473ffffffffffffffffffffffffffffffffffffffff1673ffffffffffffffffffffffffffffffffffffffff166395f226e4856040518263ffffffff1660e01b8152600401610e0e9190611954565b60206040518083038186803b158015610e2657600080fd5b505afa158015610e3a573d6000803e3d6000fd5b505050506040513d601f19601f82011682018060405250810190610e5e91906114d0565b610e689190611cef565b610e729190611d20565b9050919050565b600560009054906101000a900473ffffffffffffffffffffffffffffffffffffffff1681565b6003818051602081018201805184825260208301602085012081835280955050505050506000915090505481565b60015481565b600180811115610f0c577f4e487b7100000000000000000000000000000000000000000000000000000000600052602160045260246000fd5b600b60149054906101000a900460ff166001811115610f54577f4e487b7100000000000000000000000000000000000000000000000000000000600052602160045260246000fd5b14610f94576040517f08c379a0000000000000000000000000000000000000000000000000000000008152600401610f8b90611b70565b60405180910390fd5b60008111610fd7576040517f08c379a0000000000000000000000000000000000000000000000000000000008152600401610fce90611af0565b60405180910390fd5b600060078054905082610fea9190611ec0565b905060078181548110611026577f4e487b7100000000000000000000000000000000000000000000000000000000600052603260045260246000fd5b9060005260206000200160009054906101000a900473ffffffffffffffffffffffffffffffffffffffff16600b60006101000a81548173ffffffffffffffffffffffffffffffffffffffff021916908373ffffffffffffffffffffffffffffffffffffffff160217905550505050565b60007f000000000000000000000000000000000000000000000000000000000000000073ffffffffffffffffffffffffffffffffffffffff16634000aea07f00000000000000000000000000000000000000000000000000000000000000008486600060405160200161110a9291906119ea565b6040516020818303038152906040526040518463ffffffff1660e01b81526004016111379392919061196f565b602060405180830381600087803b15801561115157600080fd5b505af1158015611165573d6000803e3d6000fd5b505050506040513d601f19601f820116820180604052508101906111899190611401565b5060006111ab84600030600080898152602001908152602001600020546111f5565b90506001600080868152602001908152602001600020546111cc9190611c99565b600080868152602001908152602001600020819055506111ec8482611231565b91505092915050565b60008484848460405160200161120e9493929190611a13565b6040516020818303038152906040528051906020012060001c9050949350505050565b60008282604051602001611246929190611911565b60405160208183030381529060405280519060200120905092915050565b82805461127090611e31565b90600052602060002090601f01602090048101928261129257600085556112d9565b82601f106112ab57805160ff19168380011785556112d9565b828001600101855582156112d9579182015b828111156112d85782518255916020019190600101906112bd565b5b5090506112e691906112ea565b5090565b5b808211156113035760008160009055506001016112eb565b5090565b600061131a61131584611bdc565b611bab565b90508281526020810184848401111561133257600080fd5b61133d848285611def565b509392505050565b60008135905061135481612001565b92915050565b60008151905061136981612018565b92915050565b60008135905061137e8161202f565b92915050565b600082601f83011261139557600080fd5b81356113a5848260208601611307565b91505092915050565b6000813590506113bd81612046565b92915050565b6000815190506113d281612046565b92915050565b6000602082840312156113ea57600080fd5b60006113f884828501611345565b91505092915050565b60006020828403121561141357600080fd5b60006114218482850161135a565b91505092915050565b6000806040838503121561143d57600080fd5b600061144b8582860161136f565b925050602061145c858286016113ae565b9150509250929050565b60006020828403121561147857600080fd5b600082013567ffffffffffffffff81111561149257600080fd5b61149e84828501611384565b91505092915050565b6000602082840312156114b957600080fd5b60006114c7848285016113ae565b91505092915050565b6000602082840312156114e257600080fd5b60006114f0848285016113c3565b91505092915050565b6000806040838503121561150c57600080fd5b600061151a858286016113ae565b925050602083013567ffffffffffffffff81111561153757600080fd5b61154385828601611384565b9150509250929050565b60006115598383611662565b905092915050565b61156a81611d54565b82525050565b600061157b82611c1c565b6115858185611c4a565b93508360208202850161159785611c0c565b8060005b858110156115d357848403895281516115b4858261154d565b94506115bf83611c3d565b925060208a0199505060018101905061159b565b50829750879550505050505092915050565b6115ee81611d72565b82525050565b61160561160082611d72565b611eac565b82525050565b600061161682611c27565b6116208185611c5b565b9350611630818560208601611dfe565b61163981611fdc565b840191505092915050565b61164d81611db9565b82525050565b61165c81611ddd565b82525050565b600061166d82611c32565b6116778185611c6c565b9350611687818560208601611dfe565b61169081611fdc565b840191505092915050565b60006116a682611c32565b6116b08185611c7d565b93506116c0818560208601611dfe565b6116c981611fdc565b840191505092915050565b60006116df82611c32565b6116e98185611c8e565b93506116f9818560208601611dfe565b80840191505092915050565b6000611712602783611c7d565b91507f566f7465206d757374206265206174206c65617374203120616e64206174206d60008301527f6f737420313030000000000000000000000000000000000000000000000000006020830152604082019050919050565b6000611778601a83611c7d565b91507f566f74652073657373696f6e20616c726561647920656e6465640000000000006000830152602082019050919050565b60006117b8600983611c7d565b91507f6e6f7420666f756e6400000000000000000000000000000000000000000000006000830152602082019050919050565b60006117f8601483611c7d565b91507f4e6f74206861766520656e6f75676820766f74650000000000000000000000006000830152602082019050919050565b6000611838601f83611c7d565b91507f4f6e6c7920565246436f6f7264696e61746f722063616e2066756c66696c6c006000830152602082019050919050565b6000611878600983611c7d565b91507f4e6f74206f776e657200000000000000000000000000000000000000000000006000830152602082019050919050565b60006118b8601283611c7d565b91507f766f7465206e6f7420656e6420796574212100000000000000000000000000006000830152602082019050919050565b6118f481611daf565b82525050565b61190b61190682611daf565b611eb6565b82525050565b600061191d82856115f4565b60208201915061192d82846118fa565b6020820191508190509392505050565b600061194982846116d4565b915081905092915050565b60006020820190506119696000830184611561565b92915050565b60006060820190506119846000830186611561565b61199160208301856118eb565b81810360408301526119a3818461160b565b9050949350505050565b600060208201905081810360008301526119c78184611570565b905092915050565b60006020820190506119e460008301846115e5565b92915050565b60006040820190506119ff60008301856115e5565b611a0c60208301846118eb565b9392505050565b6000608082019050611a2860008301876115e5565b611a3560208301866118eb565b611a426040830185611561565b611a4f60608301846118eb565b95945050505050565b6000602082019050611a6d6000830184611644565b92915050565b6000602082019050611a886000830184611653565b92915050565b60006020820190508181036000830152611aa8818461169b565b905092915050565b60006020820190508181036000830152611ac981611705565b9050919050565b60006020820190508181036000830152611ae98161176b565b9050919050565b60006020820190508181036000830152611b09816117ab565b9050919050565b60006020820190508181036000830152611b29816117eb565b9050919050565b60006020820190508181036000830152611b498161182b565b9050919050565b60006020820190508181036000830152611b698161186b565b9050919050565b60006020820190508181036000830152611b89816118ab565b9050919050565b6000602082019050611ba560008301846118eb565b92915050565b6000604051905081810181811067ffffffffffffffff82111715611bd257611bd1611fad565b5b8060405250919050565b600067ffffffffffffffff821115611bf757611bf6611fad565b5b601f19601f8301169050602081019050919050565b6000819050602082019050919050565b600081519050919050565b600081519050919050565b600081519050919050565b6000602082019050919050565b600082825260208201905092915050565b600082825260208201905092915050565b600082825260208201905092915050565b600082825260208201905092915050565b600081905092915050565b6000611ca482611daf565b9150611caf83611daf565b9250827fffffffffffffffffffffffffffffffffffffffffffffffffffffffffffffffff03821115611ce457611ce3611ef1565b5b828201905092915050565b6000611cfa82611daf565b9150611d0583611daf565b925082611d1557611d14611f20565b5b828204905092915050565b6000611d2b82611daf565b9150611d3683611daf565b925082821015611d4957611d48611ef1565b5b828203905092915050565b6000611d5f82611d8f565b9050919050565b60008115159050919050565b6000819050919050565b6000819050611d8a82611fed565b919050565b600073ffffffffffffffffffffffffffffffffffffffff82169050919050565b6000819050919050565b6000611dc482611dcb565b9050919050565b6000611dd682611d8f565b9050919050565b6000611de882611d7c565b9050919050565b82818337600083830152505050565b60005b83811015611e1c578082015181840152602081019050611e01565b83811115611e2b576000848401525b50505050565b60006002820490506001821680611e4957607f821691505b60208210811415611e5d57611e5c611f7e565b5b50919050565b6000611e6e82611daf565b91507fffffffffffffffffffffffffffffffffffffffffffffffffffffffffffffffff821415611ea157611ea0611ef1565b5b600182019050919050565b6000819050919050565b6000819050919050565b6000611ecb82611daf565b9150611ed683611daf565b925082611ee657611ee5611f20565b5b828206905092915050565b7f4e487b7100000000000000000000000000000000000000000000000000000000600052601160045260246000fd5b7f4e487b7100000000000000000000000000000000000000000000000000000000600052601260045260246000fd5b7f4e487b7100000000000000000000000000000000000000000000000000000000600052602160045260246000fd5b7f4e487b7100000000000000000000000000000000000000000000000000000000600052602260045260246000fd5b7f4e487b7100000000000000000000000000000000000000000000000000000000600052604160045260246000fd5b6000601f19601f8301169050919050565b60028110611ffe57611ffd611f4f565b5b50565b61200a81611d54565b811461201557600080fd5b50565b61202181611d66565b811461202c57600080fd5b50565b61203881611d72565b811461204357600080fd5b50565b61204f81611daf565b811461205a57600080fd5b5056fea26469706673582212209f1117dc7be35149b3d0b7a72d7dd828f27d613260e2942c1c8b813fe680647764736f6c63430008000033",
  "linkReferences": {},
  "deployedLinkReferences": {}
}