{
  "_format": "hh-sol-artifact-1",
  "contractName": "VoteSession",
  "sourceName": "contracts/vote/VoteSession.sol",
  "abi": [
    {
      "inputs": [
        {
          "internalType": "uint256",
          "name": "_voteId",
          "type": "uint256"
        },
        {
          "internalType": "address",
          "name": "_voteExchangeAddress",
          "type": "address"
        },
        {
          "internalType": "address",
          "name": "_coordinator",
          "type": "address"
        },
        {
          "internalType": "address",
          "name": "_link",
          "type": "address"
        },
        {
          "internalType": "bytes32",
          "name": "_hash",
          "type": "bytes32"
        },
        {
          "internalType": "uint256",
          "name": "_fee",
          "type": "uint256"
        },
        {
          "internalType": "address",
          "name": "_nftAddress",
          "type": "address"
        }
      ],
      "stateMutability": "nonpayable",
      "type": "constructor"
    },
    {
      "inputs": [],
      "name": "award",
      "outputs": [
        {
          "internalType": "address",
          "name": "",
          "type": "address"
        }
      ],
      "stateMutability": "view",
      "type": "function"
    },
    {
      "inputs": [
        {
          "internalType": "string",
          "name": "",
          "type": "string"
        }
      ],
      "name": "candidate",
      "outputs": [
        {
          "internalType": "uint256",
          "name": "",
          "type": "uint256"
        }
      ],
      "stateMutability": "view",
      "type": "function"
    },
    {
      "inputs": [
        {
          "internalType": "uint256",
          "name": "",
          "type": "uint256"
        }
      ],
      "name": "candidateName",
      "outputs": [
        {
          "internalType": "string",
          "name": "",
          "type": "string"
        }
      ],
      "stateMutability": "view",
      "type": "function"
    },
    {
      "inputs": [],
      "name": "endVote",
      "outputs": [],
      "stateMutability": "nonpayable",
      "type": "function"
    },
    {
      "inputs": [],
      "name": "fee",
      "outputs": [
        {
          "internalType": "uint256",
          "name": "",
          "type": "uint256"
        }
      ],
      "stateMutability": "view",
      "type": "function"
    },
    {
      "inputs": [],
      "name": "getCandidateName",
      "outputs": [
        {
          "internalType": "string[]",
          "name": "",
          "type": "string[]"
        }
      ],
      "stateMutability": "view",
      "type": "function"
    },
    {
      "inputs": [],
      "name": "keyhash",
      "outputs": [
        {
          "internalType": "bytes32",
          "name": "",
          "type": "bytes32"
        }
      ],
      "stateMutability": "view",
      "type": "function"
    },
    {
      "inputs": [],
      "name": "nftContract",
      "outputs": [
        {
          "internalType": "contract RiceNFT",
          "name": "",
          "type": "address"
        }
      ],
      "stateMutability": "view",
      "type": "function"
    },
    {
      "inputs": [],
      "name": "owner",
      "outputs": [
        {
          "internalType": "address",
          "name": "",
          "type": "address"
        }
      ],
      "stateMutability": "view",
      "type": "function"
    },
    {
      "inputs": [
        {
          "internalType": "bytes32",
          "name": "requestId",
          "type": "bytes32"
        },
        {
          "internalType": "uint256",
          "name": "randomness",
          "type": "uint256"
        }
      ],
      "name": "rawFulfillRandomness",
      "outputs": [],
      "stateMutability": "nonpayable",
      "type": "function"
    },
    {
      "inputs": [
        {
          "internalType": "address",
          "name": "_voter",
          "type": "address"
        }
      ],
      "name": "remainingVote",
      "outputs": [
        {
          "internalType": "uint256",
          "name": "",
          "type": "uint256"
        }
      ],
      "stateMutability": "view",
      "type": "function"
    },
    {
      "inputs": [],
      "name": "status",
      "outputs": [
        {
          "internalType": "enum VoteSession.voteState",
          "name": "",
          "type": "uint8"
        }
      ],
      "stateMutability": "view",
      "type": "function"
    },
    {
      "inputs": [
        {
          "internalType": "uint256",
          "name": "_amount",
          "type": "uint256"
        },
        {
          "internalType": "string",
          "name": "_twitterId",
          "type": "string"
        }
      ],
      "name": "vote",
      "outputs": [],
      "stateMutability": "nonpayable",
      "type": "function"
    },
    {
      "inputs": [],
      "name": "voteExchange",
      "outputs": [
        {
          "internalType": "contract VoteExchange",
          "name": "",
          "type": "address"
        }
      ],
      "stateMutability": "view",
      "type": "function"
    },
    {
      "inputs": [],
      "name": "voteId",
      "outputs": [
        {
          "internalType": "uint256",
          "name": "",
          "type": "uint256"
        }
      ],
      "stateMutability": "view",
      "type": "function"
    },
    {
      "inputs": [
        {
          "internalType": "address",
          "name": "",
          "type": "address"
        }
      ],
      "name": "voteMap",
      "outputs": [
        {
          "internalType": "uint256",
          "name": "",
          "type": "uint256"
        }
      ],
      "stateMutability": "view",
      "type": "function"
    },
    {
      "inputs": [
        {
          "internalType": "uint256",
          "name": "",
          "type": "uint256"
        }
      ],
      "name": "votePool",
      "outputs": [
        {
          "internalType": "address",
          "name": "",
          "type": "address"
        }
      ],
      "stateMutability": "view",
      "type": "function"
    },
    {
      "inputs": [],
      "name": "winner",
      "outputs": [
        {
          "internalType": "string",
          "name": "",
          "type": "string"
        }
      ],
      "stateMutability": "view",
      "type": "function"
    }
  ],
  "bytecode": "0x60c06040523480156200001157600080fd5b5060405162002708380380620027088339818101604052810190620000379190620002b7565b84848173ffffffffffffffffffffffffffffffffffffffff1660a08173ffffffffffffffffffffffffffffffffffffffff1660601b815250508073ffffffffffffffffffffffffffffffffffffffff1660808173ffffffffffffffffffffffffffffffffffffffff1660601b815250505050826009819055508160088190555032600660006101000a81548173ffffffffffffffffffffffffffffffffffffffff021916908373ffffffffffffffffffffffffffffffffffffffff160217905550866001819055506000600c60146101000a81548160ff021916908360018111156200014c577f4e487b7100000000000000000000000000000000000000000000000000000000600052602160045260246000fd5b021790555085600560006101000a81548173ffffffffffffffffffffffffffffffffffffffff021916908373ffffffffffffffffffffffffffffffffffffffff160217905550600560009054906101000a900473ffffffffffffffffffffffffffffffffffffffff1673ffffffffffffffffffffffffffffffffffffffff16630494963d6040518163ffffffff1660e01b8152600401600060405180830381600087803b158015620001fd57600080fd5b505af115801562000212573d6000803e3d6000fd5b50505050816008819055508260098190555080600c60006101000a81548173ffffffffffffffffffffffffffffffffffffffff021916908373ffffffffffffffffffffffffffffffffffffffff16021790555050505050505050620003fa565b6000815190506200028381620003ac565b92915050565b6000815190506200029a81620003c6565b92915050565b600081519050620002b181620003e0565b92915050565b600080600080600080600060e0888a031215620002d357600080fd5b6000620002e38a828b01620002a0565b9750506020620002f68a828b0162000272565b9650506040620003098a828b0162000272565b95505060606200031c8a828b0162000272565b94505060806200032f8a828b0162000289565b93505060a0620003428a828b01620002a0565b92505060c0620003558a828b0162000272565b91505092959891949750929550565b6000620003718262000382565b9050919050565b6000819050919050565b600073ffffffffffffffffffffffffffffffffffffffff82169050919050565b6000819050919050565b620003b78162000364565b8114620003c357600080fd5b50565b620003d18162000378565b8114620003dd57600080fd5b50565b620003eb81620003a2565b8114620003f757600080fd5b50565b60805160601c60a05160601c6122db6200042d6000396000818161097501526112560152600061121a01526122db6000f3fe608060405234801561001057600080fd5b50600436106101165760003560e01c8063965844a6116100a2578063dfbf53ae11610071578063dfbf53ae146102bf578063e9fc4856146102dd578063ec79f04c1461030d578063f54769d01461032b578063fbb396511461035b57610116565b8063965844a614610249578063b922394614610279578063d56d229d14610283578063ddca3f43146102a157610116565b806341a494c5116100e957806341a494c5146101b557806369ebe78e146101d357806384e6c0a7146101f15780638da5cb5b1461020f57806394985ddd1461022d57610116565b8063200d2ed21461011b5780632410847514610139578063300062811461015557806337509f4c14610185575b600080fd5b610123610379565b6040516101309190611b2c565b60405180910390f35b610153600480360381019061014e9190611679565b61038c565b005b61016f600480360381019061016a9190611627565b61075d565b60405161017c9190611b47565b60405180910390f35b61019f600480360381019061019a9190611627565b610809565b6040516101ac91906119f2565b60405180910390f35b6101bd610848565b6040516101ca91906119f2565b60405180910390f35b6101db61086e565b6040516101e89190611a6d565b60405180910390f35b6101f9610874565b6040516102069190611a4b565b60405180910390f35b61021761094d565b60405161022491906119f2565b60405180910390f35b610247600480360381019061024291906115aa565b610973565b005b610263600480360381019061025e9190611558565b610a0f565b6040516102709190611c49565b60405180910390f35b610281610a27565b005b61028b610cfd565b6040516102989190611af6565b60405180910390f35b6102a9610d23565b6040516102b69190611c49565b60405180910390f35b6102c7610d29565b6040516102d49190611b47565b60405180910390f35b6102f760048036038101906102f29190611558565b610db7565b6040516103049190611c49565b60405180910390f35b610315610ec8565b6040516103229190611b11565b60405180910390f35b610345600480360381019061034091906115e6565b610eee565b6040516103529190611c49565b60405180910390f35b610363610f1c565b6040516103709190611c49565b60405180910390f35b600c60149054906101000a900460ff1681565b600060018111156103c6577f4e487b7100000000000000000000000000000000000000000000000000000000600052602160045260246000fd5b600c60149054906101000a900460ff16600181111561040e577f4e487b7100000000000000000000000000000000000000000000000000000000600052602160045260246000fd5b1461044e576040517f08c379a000000000000000000000000000000000000000000000000000000000815260040161044590611b89565b60405180910390fd5b60008211801561045f575060648211155b61049e576040517f08c379a000000000000000000000000000000000000000000000000000000000815260040161049590611b69565b60405180910390fd5b600260003373ffffffffffffffffffffffffffffffffffffffff1673ffffffffffffffffffffffffffffffffffffffff16815260200190815260200160002054826104e99190611d47565b670de0b6b3a7640000600560009054906101000a900473ffffffffffffffffffffffffffffffffffffffff1673ffffffffffffffffffffffffffffffffffffffff166395f226e4336040518263ffffffff1660e01b815260040161054d91906119f2565b60206040518083038186803b15801561056557600080fd5b505afa158015610579573d6000803e3d6000fd5b505050506040513d601f19601f8201168201806040525081019061059d9190611650565b6105a79190611d9d565b10156105e8576040517f08c379a00000000000000000000000000000000000000000000000000000000081526004016105df90611bc9565b60405180910390fd5b60006003826040516105fa91906119db565b908152602001604051809103902054141561064c5760048190806001815401808255809150506001900390600052602060002001600090919091909150908051906020019061064a9291906113e4565b505b8160038260405161065d91906119db565b9081526020016040518091039020600082825461067a9190611d47565b9250508190555081600260003373ffffffffffffffffffffffffffffffffffffffff1673ffffffffffffffffffffffffffffffffffffffff16815260200190815260200160002060008282546106d09190611d47565b9250508190555060005b82811015610758576007339080600181540180825580915050600190039060005260206000200160009091909190916101000a81548173ffffffffffffffffffffffffffffffffffffffff021916908373ffffffffffffffffffffffffffffffffffffffff160217905550808061075090611f66565b9150506106da565b505050565b6004818154811061076d57600080fd5b90600052602060002001600091509050805461078890611f03565b80601f01602080910402602001604051908101604052809291908181526020018280546107b490611f03565b80156108015780601f106107d657610100808354040283529160200191610801565b820191906000526020600020905b8154815290600101906020018083116107e457829003601f168201915b505050505081565b6007818154811061081957600080fd5b906000526020600020016000915054906101000a900473ffffffffffffffffffffffffffffffffffffffff1681565b600b60009054906101000a900473ffffffffffffffffffffffffffffffffffffffff1681565b60095481565b60606004805480602002602001604051908101604052809291908181526020016000905b828210156109445783829060005260206000200180546108b790611f03565b80601f01602080910402602001604051908101604052809291908181526020018280546108e390611f03565b80156109305780601f1061090557610100808354040283529160200191610930565b820191906000526020600020905b81548152906001019060200180831161091357829003601f168201915b505050505081526020019060010190610898565b50505050905090565b600660009054906101000a900473ffffffffffffffffffffffffffffffffffffffff1681565b7f000000000000000000000000000000000000000000000000000000000000000073ffffffffffffffffffffffffffffffffffffffff163373ffffffffffffffffffffffffffffffffffffffff1614610a01576040517f08c379a00000000000000000000000000000000000000000000000000000000081526004016109f890611be9565b60405180910390fd5b610a0b8282610f22565b5050565b60026020528060005260406000206000915090505481565b600660009054906101000a900473ffffffffffffffffffffffffffffffffffffffff1673ffffffffffffffffffffffffffffffffffffffff163273ffffffffffffffffffffffffffffffffffffffff1614610ab7576040517f08c379a0000000000000000000000000000000000000000000000000000000008152600401610aae90611c09565b60405180910390fd5b6001600c60146101000a81548160ff02191690836001811115610b03577f4e487b7100000000000000000000000000000000000000000000000000000000600052602160045260246000fd5b02179055506000610b18600954600854611216565b9050600560009054906101000a900473ffffffffffffffffffffffffffffffffffffffff1673ffffffffffffffffffffffffffffffffffffffff1663ddd1b0c86040518163ffffffff1660e01b8152600401600060405180830381600087803b158015610b8457600080fd5b505af1158015610b98573d6000803e3d6000fd5b505050506000606060005b600480549050811015610ce057600060048281548110610bec577f4e487b7100000000000000000000000000000000000000000000000000000000600052603260045260246000fd5b906000526020600020018054610c0190611f03565b80601f0160208091040260200160405190810160405280929190818152602001828054610c2d90611f03565b8015610c7a5780601f10610c4f57610100808354040283529160200191610c7a565b820191906000526020600020905b815481529060010190602001808311610c5d57829003601f168201915b50505050509050600381604051610c9191906119db565b908152602001604051809103902054841015610ccc57600381604051610cb791906119db565b90815260200160405180910390205493508092505b508080610cd890611f66565b915050610ba3565b5080600a9080519060200190610cf79291906113e4565b50505050565b600c60009054906101000a900473ffffffffffffffffffffffffffffffffffffffff1681565b60085481565b600a8054610d3690611f03565b80601f0160208091040260200160405190810160405280929190818152602001828054610d6290611f03565b8015610daf5780601f10610d8457610100808354040283529160200191610daf565b820191906000526020600020905b815481529060010190602001808311610d9257829003601f168201915b505050505081565b6000600260008373ffffffffffffffffffffffffffffffffffffffff1673ffffffffffffffffffffffffffffffffffffffff16815260200190815260200160002054670de0b6b3a7640000600560009054906101000a900473ffffffffffffffffffffffffffffffffffffffff1673ffffffffffffffffffffffffffffffffffffffff166395f226e4856040518263ffffffff1660e01b8152600401610e5d91906119f2565b60206040518083038186803b158015610e7557600080fd5b505afa158015610e89573d6000803e3d6000fd5b505050506040513d601f19601f82011682018060405250810190610ead9190611650565b610eb79190611d9d565b610ec19190611dce565b9050919050565b600560009054906101000a900473ffffffffffffffffffffffffffffffffffffffff1681565b6003818051602081018201805184825260208301602085012081835280955050505050506000915090505481565b60015481565b600180811115610f5b577f4e487b7100000000000000000000000000000000000000000000000000000000600052602160045260246000fd5b600c60149054906101000a900460ff166001811115610fa3577f4e487b7100000000000000000000000000000000000000000000000000000000600052602160045260246000fd5b14610fe3576040517f08c379a0000000000000000000000000000000000000000000000000000000008152600401610fda90611c29565b60405180910390fd5b60008111611026576040517f08c379a000000000000000000000000000000000000000000000000000000000815260040161101d90611ba9565b60405180910390fd5b6000600780549050826110399190611fc3565b905060078181548110611075577f4e487b7100000000000000000000000000000000000000000000000000000000600052603260045260246000fd5b9060005260206000200160009054906101000a900473ffffffffffffffffffffffffffffffffffffffff16600b60006101000a81548173ffffffffffffffffffffffffffffffffffffffff021916908373ffffffffffffffffffffffffffffffffffffffff160217905550600c60009054906101000a900473ffffffffffffffffffffffffffffffffffffffff1673ffffffffffffffffffffffffffffffffffffffff1663a6b332ba600b60009054906101000a900473ffffffffffffffffffffffffffffffffffffffff166040518263ffffffff1660e01b815260040161115d91906119f2565b600060405180830381600087803b15801561117757600080fd5b505af115801561118b573d6000803e3d6000fd5b50505050600c60009054906101000a900473ffffffffffffffffffffffffffffffffffffffff1673ffffffffffffffffffffffffffffffffffffffff1663a7e0c5786040518163ffffffff1660e01b8152600401600060405180830381600087803b1580156111f957600080fd5b505af115801561120d573d6000803e3d6000fd5b50505050505050565b60007f000000000000000000000000000000000000000000000000000000000000000073ffffffffffffffffffffffffffffffffffffffff16634000aea07f00000000000000000000000000000000000000000000000000000000000000008486600060405160200161128a929190611a88565b6040516020818303038152906040526040518463ffffffff1660e01b81526004016112b793929190611a0d565b602060405180830381600087803b1580156112d157600080fd5b505af11580156112e5573d6000803e3d6000fd5b505050506040513d601f19601f820116820180604052508101906113099190611581565b50600061132b8460003060008089815260200190815260200160002054611375565b905060016000808681526020019081526020016000205461134c9190611d47565b6000808681526020019081526020016000208190555061136c84826113b1565b91505092915050565b60008484848460405160200161138e9493929190611ab1565b6040516020818303038152906040528051906020012060001c9050949350505050565b600082826040516020016113c69291906119af565b60405160208183030381529060405280519060200120905092915050565b8280546113f090611f03565b90600052602060002090601f0160209004810192826114125760008555611459565b82601f1061142b57805160ff1916838001178555611459565b82800160010185558215611459579182015b8281111561145857825182559160200191906001019061143d565b5b509050611466919061146a565b5090565b5b8082111561148357600081600090555060010161146b565b5090565b600061149a61149584611c89565b611c64565b9050828152602081018484840111156114b257600080fd5b6114bd848285611ec1565b509392505050565b6000813590506114d481612249565b92915050565b6000815190506114e981612260565b92915050565b6000813590506114fe81612277565b92915050565b600082601f83011261151557600080fd5b8135611525848260208601611487565b91505092915050565b60008135905061153d8161228e565b92915050565b6000815190506115528161228e565b92915050565b60006020828403121561156a57600080fd5b6000611578848285016114c5565b91505092915050565b60006020828403121561159357600080fd5b60006115a1848285016114da565b91505092915050565b600080604083850312156115bd57600080fd5b60006115cb858286016114ef565b92505060206115dc8582860161152e565b9150509250929050565b6000602082840312156115f857600080fd5b600082013567ffffffffffffffff81111561161257600080fd5b61161e84828501611504565b91505092915050565b60006020828403121561163957600080fd5b60006116478482850161152e565b91505092915050565b60006020828403121561166257600080fd5b600061167084828501611543565b91505092915050565b6000806040838503121561168c57600080fd5b600061169a8582860161152e565b925050602083013567ffffffffffffffff8111156116b757600080fd5b6116c385828601611504565b9150509250929050565b60006116d983836117f1565b905092915050565b6116ea81611e02565b82525050565b60006116fb82611cca565b6117058185611cf8565b93508360208202850161171785611cba565b8060005b85811015611753578484038952815161173485826116cd565b945061173f83611ceb565b925060208a0199505060018101905061171b565b50829750879550505050505092915050565b61176e81611e20565b82525050565b61178561178082611e20565b611faf565b82525050565b600061179682611cd5565b6117a08185611d09565b93506117b0818560208601611ed0565b6117b9816120df565b840191505092915050565b6117cd81611e67565b82525050565b6117dc81611e8b565b82525050565b6117eb81611eaf565b82525050565b60006117fc82611ce0565b6118068185611d1a565b9350611816818560208601611ed0565b61181f816120df565b840191505092915050565b600061183582611ce0565b61183f8185611d2b565b935061184f818560208601611ed0565b611858816120df565b840191505092915050565b600061186e82611ce0565b6118788185611d3c565b9350611888818560208601611ed0565b80840191505092915050565b60006118a1602783611d2b565b91506118ac826120f0565b604082019050919050565b60006118c4601a83611d2b565b91506118cf8261213f565b602082019050919050565b60006118e7600983611d2b565b91506118f282612168565b602082019050919050565b600061190a601483611d2b565b915061191582612191565b602082019050919050565b600061192d601f83611d2b565b9150611938826121ba565b602082019050919050565b6000611950600983611d2b565b915061195b826121e3565b602082019050919050565b6000611973601283611d2b565b915061197e8261220c565b602082019050919050565b61199281611e5d565b82525050565b6119a96119a482611e5d565b611fb9565b82525050565b60006119bb8285611774565b6020820191506119cb8284611998565b6020820191508190509392505050565b60006119e78284611863565b915081905092915050565b6000602082019050611a0760008301846116e1565b92915050565b6000606082019050611a2260008301866116e1565b611a2f6020830185611989565b8181036040830152611a41818461178b565b9050949350505050565b60006020820190508181036000830152611a6581846116f0565b905092915050565b6000602082019050611a826000830184611765565b92915050565b6000604082019050611a9d6000830185611765565b611aaa6020830184611989565b9392505050565b6000608082019050611ac66000830187611765565b611ad36020830186611989565b611ae060408301856116e1565b611aed6060830184611989565b95945050505050565b6000602082019050611b0b60008301846117c4565b92915050565b6000602082019050611b2660008301846117d3565b92915050565b6000602082019050611b4160008301846117e2565b92915050565b60006020820190508181036000830152611b61818461182a565b905092915050565b60006020820190508181036000830152611b8281611894565b9050919050565b60006020820190508181036000830152611ba2816118b7565b9050919050565b60006020820190508181036000830152611bc2816118da565b9050919050565b60006020820190508181036000830152611be2816118fd565b9050919050565b60006020820190508181036000830152611c0281611920565b9050919050565b60006020820190508181036000830152611c2281611943565b9050919050565b60006020820190508181036000830152611c4281611966565b9050919050565b6000602082019050611c5e6000830184611989565b92915050565b6000611c6e611c7f565b9050611c7a8282611f35565b919050565b6000604051905090565b600067ffffffffffffffff821115611ca457611ca36120b0565b5b611cad826120df565b9050602081019050919050565b6000819050602082019050919050565b600081519050919050565b600081519050919050565b600081519050919050565b6000602082019050919050565b600082825260208201905092915050565b600082825260208201905092915050565b600082825260208201905092915050565b600082825260208201905092915050565b600081905092915050565b6000611d5282611e5d565b9150611d5d83611e5d565b9250827fffffffffffffffffffffffffffffffffffffffffffffffffffffffffffffffff03821115611d9257611d91611ff4565b5b828201905092915050565b6000611da882611e5d565b9150611db383611e5d565b925082611dc357611dc2612023565b5b828204905092915050565b6000611dd982611e5d565b9150611de483611e5d565b925082821015611df757611df6611ff4565b5b828203905092915050565b6000611e0d82611e3d565b9050919050565b60008115159050919050565b6000819050919050565b6000819050611e3882612235565b919050565b600073ffffffffffffffffffffffffffffffffffffffff82169050919050565b6000819050919050565b6000611e7282611e79565b9050919050565b6000611e8482611e3d565b9050919050565b6000611e9682611e9d565b9050919050565b6000611ea882611e3d565b9050919050565b6000611eba82611e2a565b9050919050565b82818337600083830152505050565b60005b83811015611eee578082015181840152602081019050611ed3565b83811115611efd576000848401525b50505050565b60006002820490506001821680611f1b57607f821691505b60208210811415611f2f57611f2e612081565b5b50919050565b611f3e826120df565b810181811067ffffffffffffffff82111715611f5d57611f5c6120b0565b5b80604052505050565b6000611f7182611e5d565b91507fffffffffffffffffffffffffffffffffffffffffffffffffffffffffffffffff821415611fa457611fa3611ff4565b5b600182019050919050565b6000819050919050565b6000819050919050565b6000611fce82611e5d565b9150611fd983611e5d565b925082611fe957611fe8612023565b5b828206905092915050565b7f4e487b7100000000000000000000000000000000000000000000000000000000600052601160045260246000fd5b7f4e487b7100000000000000000000000000000000000000000000000000000000600052601260045260246000fd5b7f4e487b7100000000000000000000000000000000000000000000000000000000600052602160045260246000fd5b7f4e487b7100000000000000000000000000000000000000000000000000000000600052602260045260246000fd5b7f4e487b7100000000000000000000000000000000000000000000000000000000600052604160045260246000fd5b6000601f19601f8301169050919050565b7f566f7465206d757374206265206174206c65617374203120616e64206174206d60008201527f6f73742031303000000000000000000000000000000000000000000000000000602082015250565b7f566f74652073657373696f6e20616c726561647920656e646564000000000000600082015250565b7f6e6f7420666f756e640000000000000000000000000000000000000000000000600082015250565b7f4e6f74206861766520656e6f75676820766f7465000000000000000000000000600082015250565b7f4f6e6c7920565246436f6f7264696e61746f722063616e2066756c66696c6c00600082015250565b7f4e6f74206f776e65720000000000000000000000000000000000000000000000600082015250565b7f766f7465206e6f7420656e642079657421210000000000000000000000000000600082015250565b6002811061224657612245612052565b5b50565b61225281611e02565b811461225d57600080fd5b50565b61226981611e14565b811461227457600080fd5b50565b61228081611e20565b811461228b57600080fd5b50565b61229781611e5d565b81146122a257600080fd5b5056fea2646970667358221220b2289a6259d2d5a26b34c979ab7f02cd40628790e1b9f8b7ece8e992a10986a164736f6c63430008010033",
  "linkReferences": {},
  "deployedLinkReferences": {}
}